:020000040800F2
:1000000058250020A1230008F9210008FB21000841
:10001000FD210008FF210008012200080000000067
:1000200000000000000000000000000003220008A3
:10003000052200080000000007220008092200082D
:10004000192400081D240008212400082524000884
:10005000292400082D240008312400083524000834
:10006000392400083D24000841240008AD2200087E
:1000700045240008492400084D24000851240008A4
:1000800055240008592400085D2400086124000854
:1000900065240008692400086D2400087124000804
:1000A00075240008792400087D24000881240008B4
:1000B00085240008892400088D2400089124000864
:1000C00095240008992400089D240008A124000814
:1000D000A52400084B220008A9240008AD2400082C
:1000E000B1240008B5240008B92400084FF4605179
:1000F0004843401C0100481E0029FBD1704710B541
:1001000000F03AFB5FF4803000F056FB00F071FB2A
:1001100004002000C0B2012827D1002000F0A6FB77
:10012000002000F0B3FB4FF4806000F0A7FB00203C
:1001300000F0B5FB022000F095FC102000F09BFCC5
:100140005FF480115FF4803000F072FB012000F05A
:100150007BFB392000F041FC0028FAD0022000F09F
:1001600078FB00F07EFB0828FBD110BD10B5040021
:100170002100C9B244F21D2000F005FC10BD80B57D
:1001800000215FF0006000F06DFD4FF4A06000F012
:1001900031FD01BD10B40020002100220B009BB2F4
:1001A000152B26DADFF870351C68A4689B881C4282
:1001B00001D152F00102DFF864351C68A4689B8805
:1001C0001C4201D152F00202DFF854351C68A468C9
:1001D0009B881C4201D152F00402030014009BB220
:1001E000A4B2A34201D1491CD8E700231900100092
:1001F000D4E780B210BC70471CB5042100226C46C5
:10020000200000F053FD0121DFF8180500F013FE77
:1002100010208DF8030003208DF80200DFF8080598
:100220008188ADF800106946006800F08FFDDFF8A6
:10023000FC048188ADF800106946006800F086FD76
:1002400013BDF8B5FFF75BFFFFF799FF0120FFF73C
:100250008DFF72B6FFF7D0FFDFF8CC44A08821688D
:100260004861DFF8C854A888296848610A20FFF768
:100270003DFF00F027FE00F033FF45F25556DFF852
:10028000B0743888B04209D100F0C8F8002818D1FD
:100290004AF6AA2038800520788012E038884FF688
:1002A000FF7188420DD14AF6AA2038800520788057
:1002B00000F0B4F8012804D100F0DCF8002800D1E7
:1002C0003E80FFF767FF1430B8805FF4E13000F044
:1002D0009FFF00F0E8FF0021012000F0F5FF01F092
:1002E00077F8A08821680861A8882968086138889B
:1002F000B04204D10120DFF83C14086003E0402044
:10030000DFF83014086062B6F1BDDFF82804017828
:10031000890716D5016831F002010160DFF8180481
:100320000168491C01600078C00705D5DFF8F803B3
:1003300081880068416104E0DFF8EC03818800688F
:100340000161704738B50400002072B62568DFF8F7
:10035000EC132940B1F1005F0DD1DFF8E403211D5A
:1003600009680160DFF8DC1300680860206880F32A
:100370000888086880470120DFF8B813086000206B
:10038000DFF8C413086062B631BD80B5DFF8A4039E
:10039000017849060FD4DFF8B013096829290AD378
:1003A000DFF88C13098845F25552914203D1016858
:1003B00051F0800101600078000603D5DFF88C035E
:1003C000FFF7C0FF01BD70B5DFF8844307212000AF
:1003D00001F027F900280DD00721200001F02FF9A6
:1003E0005FF4E13000F014FF00F05DFF0021012018
:1003F00000F06AFFDFF85C43200001F0E8F9002814
:100400000BD00021200000F04EF840F60C1500261D
:1004100032002900200000F049FC70BDF8B500242E
:10042000CD4E002500270822CC49300001F0E4F928
:1004300000281CD1082005002800C0B2322810DA9C
:1004400030780700761C3800C0B2202803DB380063
:10045000C0B2802803DB3800C0B2002801D16D1C77
:10046000EAE72800C0B2322801D1012004002000B0
:10047000C0B2F2BD00200021B94B0022110089B2A8
:10048000802908DA110089B253F8211011F1010F07
:1004900001D1521CF2E7110089B2802901D101215A
:1004A0000800C0B270472DE9FE4F04000D005FF058
:1004B00000095FF0000A40F60C1B0094DFF8A482EC
:1004C00046465A460099300001F0CAF9B8F80200D1
:1004D00040440679B8F80200404441794FF48070F6
:1004E00000FB0166B8F80210091F18F1080001F0BE
:1004F00021FA07003000390080B289B2884240F00A
:10050000F78098F80D008DF808000020B4F80B1063
:10051000ADF80A10BDF80A104FF6FF72914206D0EE
:10052000BDF80A0082498988884240F0F3809DF82E
:100530000800012800F08480022835D0032800F04C
:10054000B080042805D005280BD0F72800F0BF8024
:10055000CEE000207C49086001F031FB82494880F0
:10056000C6E07448007840061DD55FF00009002001
:10057000002198F80F80754A4346DBB212EB832ABC
:10058000924510D37948016851450CD11AF5806124
:100590000160504601F03CFC83465846C0B201F071
:1005A000E6FB71494880A3E062480078400646D5E2
:1005B00000210022002398F8080000283FD198F875
:1005C0000F008DF80000D8F81090D8F814000190B2
:1005D0005E48814533D36649019810EB09000A68EB
:1005E000904202D00868002829D1C1F80090DFF8B5
:1005F0003CA1BAF80400DAF800104861DFF828B12D
:10060000BBF80400DBF800104861019A18F11801EA
:10061000484601F008FC002807D0019A49469DF899
:10062000000001F016FB50494880BAF80400DAF8DF
:1006300000100861BBF80400DBF80010086157E007
:10064000DFF8248101F027FAA8F80200B8F80200C8
:1006500000280BD0B8F8021018F1040000F05EFE7C
:100660000020A8F802000220FFF740FD3148016891
:10067000490849000160016851F0400101604AF6F3
:10068000AA202B49088000F0A1FD00F0FEF93248B5
:1006900001F0BEFB2D483549086000203449086050
:1006A00026E0FFF7BBFE012810D101F03EFA2E49EB
:1006B00048802048016851F08001016045F25550A2
:1006C0001B49088000F082FD00F0E8F910E0DFF837
:1006D000988000200190002000903223254A9DF848
:1006E000081018F1040001F075F9A8F80200FFE7FE
:1006F000DFF87480B8F8020000280BD0B8F80210B8
:1007000018F1040000F00AFE0020A8F80200022000
:10071000FFF7ECFCBDE8F78FF0230008F823000892
:1007200000240008000230000824000810240008FB
:10073000301B0020381B0020441B00200000FE2F2F
:100740004C1B0020481B0020501B002000400008CC
:10075000003801401400002000500008B0230008B9
:1007600000420008200900202C1200203C1B002021
:10077000401B0020B0220008DFF8A412086850F0E7
:1007800001000860DFF89C221368DFF89C02034038
:1007900013600B68DFF8940203400B60086830F4C4
:1007A00080200860106830F4FE0010605FF41F00C5
:1007B000DFF87C1208607047DFF864120A6832F4D0
:1007C00080320A600A6832F480220A600200B2F5C0
:1007D000803F03D0B2F5802F05D009E00A6852F4BB
:1007E00080320A6004E00A6852F4A0220A60FFE73F
:1007F000704738B50020009000240025312000F01B
:10080000ECF805000098401C009000984FF6FF712E
:10081000884203D02800C0B20028EFD0312000F079
:10082000DCF8002801D0012000E00020C0B232BD79
:1008300030B400237B4D2C6834F47C1451EA000260
:1008400014432C6030BC70470100C9B2794A116072
:1008500070470021734B1A689208920002431A6095
:1008600070477048006810F00C00704700216D4B15
:100870001A6832F0F00202431A6070470021694B97
:100880001A6832F4E06202431A6070470021654B37
:100890001A6832F4605252EAC0021A6070470021AE
:1008A000604B1A6832F4404202431A6070472DE9E7
:1008B000F04F01000022002500200026594FD7F8F4
:1008C00000C01CF00C0C6346002B04D0042B05D098
:1008D000082B06D023E0594A0A6022E0584A0A60F1
:1008E0001FE03A6812F470123B6813F4803318006A
:1008F000920C921C1500002804D1524A02FB05F20A
:100900000A600BE03A68920304D54F4A02FB05F2F5
:100910000A6003E04A4A02FB05F20A6001E0474A26
:100920000A603C6814F0F0042409DFF8209119F8FB
:1009300004E00A6832FA0EF24A603B6813F4E0639E
:100940001B0A19F803804A6832FA08F28A603A688A
:1009500012F46052D20A19F80290D1F804A03AFABF
:1009600009FAC1F80CA03F6817F44047BF0BDFF845
:10097000E0A01AF807A0D1F80CB0BBFBFAFBC1F855
:1009800010B0BDE8F08F0A00D2B2002A04D0314A7C
:1009900013680343136003E02E4A13688343136014
:1009A00070470A00D2B2002A04D02B4A13680343CE
:1009B000136003E0284A13688343136070470A00FA
:1009C000D2B2002A04D0254A13680343136003E01F
:1009D000224A136883431360704730B4010000203B
:1009E000002300250A00D2B25209D2B2012A02D154
:1009F0000B48046806E0022A02D10F48046801E0AF
:100A0000174804680B00DBB213F01F032000D84026
:100A1000C00701D5012000E00020C0B230BC704703
:100A200000100240041002400000FFF8FFFFF6FE35
:100A300008100240600042422010024000127A007A
:100A4000001BB70000093D00808D5B000000002006
:100A500010000020181002400C100240101002403C
:100A6000241002400021DFF840311A6812F03802E9
:100A700002431A607047DFF830110A6832F0100242
:100A80000A600A6802430A607047DFF82001DFF855
:100A900020110160DFF81C1101607047DFF81801B8
:100AA000016851F080010160704770B504000426B0
:100AB0005FF0FF3000F086F805002800C0B204287F
:100AC0001AD1DFF8F460306850F002003060DFF8CF
:100AD000EC000460306850F0400030605FF0FF30A0
:100AE00000F070F805002800C0B2052804D0316875
:100AF00041F6FD70014031602800C0B270BDF8B50C
:100B000004000D000427002000905FF0FF3000F08B
:100B100059F806003000C0B204282DD1DFF89870D3
:100B2000386850F00100386025805FF0FF3000F039
:100B300049F806003000C0B2042814D1A01C00906F
:100B40002800000C009908805FF0FF3000F03AF8B0
:100B500006003000C0B205280ED0396841F6FE709C
:100B60000140396008E03000C0B2052804D039687F
:100B700041F6FE70014039603000C0B2F2BD042180
:100B80000F480268D20701D501200AE00268520727
:100B900001D5022005E00068C00601D5032000E071
:100BA0000420C0B270470000002002400420024030
:100BB00023016745AB89EFCD10200240142002408D
:100BC0000C20024070B504000425FFF7D8FF060092
:100BD0003000C0B2012806D1002C04D0FFF7CFFFAF
:100BE0000600641EF4E7002C01D105200600300049
:100BF000C0B270BD25490143254A11607047F0B469
:100C0000002200230F24C17800291FD02049096841
:100C100011F4E061D1F5E061090AD1F104052B007E
:100C2000CC4045789D408678264035432D012A00EA
:100C3000184D0678AA550125067816F01F06B5400E
:100C4000154E07787F1146F8275009E001210578F5
:100C500015F01F05A940114D0678761145F82610AC
:100C6000F0BC70470E4A0A4002430E4B1A607047B0
:100C7000042805D10C490A6852F004020A6004E015
:100C800009490A6832F004020A6070470000FA0558
:100C90000CED00E000E400E000E100E080E100E0B5
:100CA00080FFFF1F08ED00E010E000E062F30F227C
:100CB00062F31F42401810F0030308D0C91A1FD373
:100CC000DB0748BF00F8012D28BF20F8022D1300D4
:100CD00030B414461546103928BF20E93C00FAD834
:100CE000490728BF20E90C0048BF40F8042D8900BF
:100CF00028BF20F8022D48BF00F8012D30BC7047F6
:100D0000C91818BF00F8012DCB0728BF00F8012D26
:100D1000704730B4002513E050F8042BD30744BFCC
:100D2000A9F101039A18091F042942F8045BFAD2B9
:100D300013468C0744BF15809B1CC90748BF1D7014
:100D400050F8041B0029E7D130BC7047F0B50022F1
:100D50000023002400250026002791F803C01CF082
:100D60000F0C91F803E05FEACE6E02D58A7852EA62
:100D70000C0C0A7812062AD0026816000022140011
:100D8000082C23D25FF0010E1EFA04F215000A8827
:100D90002A401300AB4217D1A20015000F22AA402F
:100DA0001700BE431CFA05F21643CA78282A04D15C
:100DB0001EFA04FEC0F814E006E0CA78482A03D1FF
:100DC0001EFA04FEC0F810E0641CD9E706600A8829
:100DD000B2F5807F2EDB4268160000221400082C3A
:100DE00027D25FF0010E14F108021EFA02F215007C
:100DF0000A882A401300AB4219D1A20015000F2225
:100E0000AA401700BE431CFA05F21643CA78282AE6
:100E100004D114F108021EFA02F24261CA78482A8B
:100E200005D114F108021EFA02FEC0F810E0641C9D
:100E3000D5E74660F0BDF0B400220023002500276E
:100E4000002802D51D4C246801E01D4C2468C0F325
:100E5000034586B210F4401CBCF5401F07D134F0A6
:100E60007064174A176837F07067176011E0C202A4
:100E700006D50322AA4013009C4354F0706408E096
:100E80000200520DD2B2120116FA02F2944354F04B
:100E900070640A00D2B2002A06D00200520DD2B20B
:100EA000120116FA02F21443002802D5034A146014
:100EB00001E0034A1460F0BC704700001C000140D0
:100EC0000400014080B503208DF8020014208DF845
:100ED000030081488188ADF8001069460068FFF77B
:100EE00035FF7E488188ADF8001069460068FFF73D
:100EF0002DFF01BD002064210800411E0028FBD108
:100F0000704743F233314843401C0100481E00291A
:100F1000FBD1704710B5704CA088216808616F48FC
:100F2000818800680161FFF7E5FF2068806800287C
:100F300001D1012000E00020217911F001010842D7
:100F400001D0002011E0A08821684861FFF7D2FF9E
:100F500020688068A188084201D0002005E0A088B0
:100F600021684861FFF7C6FF012010BD38B55B4C12
:100F7000A08821684861FFF7BDFF574DA888296800
:100F80004861FFF7B7FFA08821680861FFF7B2FF4B
:100F9000A88829680861FFF7ADFF31BD10B54F4C37
:100FA000A08821684861FFF7A5FF4B488188006849
:100FB0004161FFF79FFFA08821680861FFF79AFF52
:100FC000A08821684861FFF795FF10BD10B5434C1C
:100FD000A08821684861FFF78DFF3F48818800683D
:100FE0000161FFF787FFA08821680861FFF782FF92
:100FF000A08821684861FFF77DFF10BD38B5374CE8
:10100000A08821684861FFF775FF334DA8882968DB
:101010000861FFF76FFFA08821680861FFF76AFF8A
:1010200028688068A988084204D0A088216848619F
:10103000002003E0A08821684861012032BD70B51E
:10104000040008252800451EC0B2002817D0234EF2
:10105000B08831684861200604D51F48818800683F
:10106000016103E01C48818800684161FFF742FF8D
:10107000B08831680861FFF73DFF6400E2E7174878
:1010800081880068416170BDF8B508240025124EC2
:10109000B088316808612000441EC0B2002813D017
:1010A0006D000E4FB88839684861FFF723FFB88894
:1010B00039680861FFF71EFF30688068B188084210
:1010C000E9D055F00105E6E70448818800684161F0
:1010D0002800C0B2F2BD0000C8230008D0230008D9
:1010E0002DE9F8435FF00008002441F6F875474EFB
:1010F00032000821280000F0DBFE07003800C0B2F3
:10110000002810D05FF000085FF0000906213000D1
:1011100000F010FCF18802000B0092B29BB29A42E0
:1011200001D000221700320008214FF4F05000F0E7
:10113000BFFE80464046C0B200280FD000245FF0BA
:1011400000090621300000F0F5FBF18802000B00D9
:1011500092B29BB29A4201D00022904658EA070010
:10116000C0B2002809D10120B0804AF6AA20308000
:101170000720708000F02AF826E03800C0B201286D
:101180000FD14046C0B200280BD132000821280000
:1011900000F08EFE320008214FF4F05000F04FFFB7
:1011A00012E03800C0B200280ED14046C0B201287B
:1011B0000AD1320008214FF4F05000F079FE3200DD
:1011C0000821280000F03BFFBDE8F18338B500247A
:1011D0000E4D0020E8800621280000F0ABFBE880DF
:1011E0002A00082141F6F87000F029FF012809D1F2
:1011F0002A0008214FF4F05000F021FF012801D10E
:10120000012004002000C0B232BD0000301B0020CD
:1012100030B585B0040010208DF8030003208DF850
:1012200002004F4DA888ADF8000069462868FFF716
:101230008DFDA888296848614A4D280000F0ECF827
:1012400049488188ADF8001003218DF8021018215B
:101250008DF8031069460068FFF778FD43488188E0
:10126000ADF8001004218DF8031069460068FFF7FF
:101270006DFD01940020ADF808000020ADF80A00D3
:101280000020ADF80C000020ADF810000C20ADF8E7
:101290000E0001A9280000F007F90121280000F044
:1012A00079F905B030BD80B525208DF8000001200A
:1012B0008DF8010000208DF8020001208DF8030058
:1012C0006846FFF79CFC01BD70B504000D00254E7B
:1012D00040F22771300000F0EFF92200D2B240F264
:1012E0002551300000F065F92A00D2B240F22661A3
:1012F000300000F05EF970BD0100C9B21C4A1180D7
:10130000184909880906FBD570474FF460514843D6
:10131000401C0100481E0029FBD170472DE9F04117
:1013200004000D000026DFF83880B8F80400D8F873
:10133000001008610120FFF7E8FF0027AF4204D248
:10134000E05DFFF7D9FF7F1CF8E70120FFF7DDFF25
:10135000B8F80400D8F800104861BDE8F08100003A
:10136000E823000800380140D8230008E0230008E3
:101370000438014010B4020052B2002A05D40A0118
:101380001D4B040064B21A5508E00A011B4B04000F
:1013900064B214F00F04234403F8042C10BC70470B
:1013A00010B50400601EB0F1807F01D301200EE073
:1013B000601E134908600F215FF0FF30FFF7DAFF6E
:1013C00000201049086007200F490860002010BD68
:1013D00080B50420FFF74CFC0C48FFF7E1FF00202C
:1013E0000B49086000200B4908600F215FF0FF30B7
:1013F000FFF7C0FF01BD000000E400E018ED00E0D1
:1014000014E000E018E000E010E000E0382C0500F7
:10141000501B0020541B002010B504005848844283
:101420000AD101214FF48040FFF7BBFA00214FF4AD
:101430008040FFF7B6FA36E0524884420AD10121D3
:101440005FF40030FFF7BBFA00215FF40030FFF7D4
:10145000B6FA28E04C4884420AD101215FF480208A
:10146000FFF7ADFA00215FF48020FFF7A8FA1AE039
:10147000464884420AD101215FF40020FFF79FFA19
:1014800000215FF40020FFF79AFA0CE04048844204
:1014900009D101215FF48010FFF791FA00215FF478
:1014A0008010FFF78CFA10BD2DE9F84F86B00400CC
:1014B0000D00002600275FF000085FF000095FF0D4
:1014C000000AA8890028A346218A4CF6FF70014033
:1014D000E8880143009100982082A1894EF6F3101C
:1014E0000140AA8828890243688902431143009178
:1014F0000098A081A18A4FF6FF400140A8890143CE
:1015000000910098A08201A8FFF7D1F91C488345FB
:1015100001D1049900E00399A089000407D519209E
:1015200000FB01F02A685200B0FBF2F206E019203D
:1015300000FB01F02A689200B0FBF2F26420B2FBDB
:10154000F0F6360133001B09642000FB1323A08949
:10155000000408D5D80032306427B0FBF7F010F053
:101560000700064307E0180132306427B0FBF7F0AC
:1015700010F00F000643268107B0BDE8F08F000091
:10158000003801400044004000480040004C00404A
:10159000005000400A00D2B2002A04D0828952F4DE
:1015A0000052828104E083894DF6FF7213408381EB
:1015B00070472DE9F0410023002500275FF0000E61
:1015C0000C0040F66A16A4B2B44280460C00E4B2A5
:1015D0006409E4B20E00B6B216F01F065FF0010C0B
:1015E0001CFA06FC012C02D118F10C0806E0022CB2
:1015F00002D118F1100801E018F114081300DBB251
:10160000002B06D0D8F800305CEA0303C8F800309D
:1016100005E0D8F8003033EA0C03C8F80030BDE824
:10162000F08102000023080080B2B0F5007F10882E
:10163000084201D0012000E00020C0B270470A003B
:1016400092B292050A0092B2D24302807047F0B47F
:10165000040000270020002200260B0040F66A1537
:101660009BB2AB420D00EDB26D09EDB20B009BB227
:1016700013F01F035FF0010C1CFA03F3012D02D1DC
:10168000A089034006E0022D02D1208A034001E038
:10169000A08A03400A0092B2120A92B21CFA02F225
:1016A00020880240002B03D0002A01D0012000E056
:1016B0000020C0B2F0BC704770B4002200240B00C0
:1016C00040F66A159BB2AB420B009BB21B0A012588
:1016D0009D402E00B6B2F643068070BC70470A7873
:1016E000002A06D0812A0DD0822A1ED0842A3DD01D
:1016F00069E00200D2B27E2A03D181220A707E22E2
:101700008A7160E00200D2B2552A04D182220A70A6
:101710005522CA7108E00200D2B27E2A02D181228B
:101720000A7001E000220A704DE00200D2B2082ADD
:101730000DDB0200D2B2F12A09DA84220A7002001B
:10174000D2B2D21C8A80087203224A800DE00200C5
:10175000D2B2002A07D184220A7014228A80087229
:1017600003224A8001E000220A702CE00A7A002A53
:101770001DD14A880E2A05D18B880200D2B2D31817
:101780008B8014E04A880F2A06D18A880300DBB2D6
:1017900012EB03228A800AE04A88102A02D18A8842
:1017A0008A8004E04A88112A01D18A888A804A887E
:1017B000531C4B8092B20A4490714A888B889A429B
:1017C00001D306220A700022C1F8082970470100DF
:1017D00000200A78052A08D14A88092A02DB01225A
:1017E000100007E000220A7004E00A78062A01D1FE
:1017F00001221000C0B270470300002013F0030F55
:1018000009D0521E22BF13F8010B11F801CBB0EB27
:101810000C00F3D0704711F0030F14D1121F22BF38
:1018200053F8040B51F804CB6045F7D0121D0AD2CF
:1018300000BA9CFA8CFCB0EB0C0038BF6FF00000D3
:1018400088BF01207047521E22BF13F8010B11F808
:1018500001CBB0EB0C00F6D0521C08BF104670470D
:1018600062B38B0708D0521E11F8013B00F8013B10
:1018700000F024808B07F6D1830740F0208000BF62
:10188000103A07D330B4B1E83810103AA0E8381055
:10189000F9D230BC530724BFB1E80810A0E8081003
:1018A00044BF51F8043B40F8043BD20724BF31F851
:1018B000022B20F8022B44BF0B7803707047121FD5
:1018C00017D35B0009D151F8043B20F8023B1B0CF5
:1018D000121F20F8023BF6D20BE051F8043B00F84F
:1018E000013B1B0A20F8023B1B0C121F00F8013BB6
:1018F000F3D238BF121D521E24BF11F8013B00F86D
:10190000013BF8D8704730B40EE0026843680244E7
:101910000830DC0744BFA9F10104E31852F8045B66
:1019200043F8045B091FF9D150F8041B0029ECD1DE
:1019300030BC704770B403000022002400264FF62C
:10194000FF7000258D4214D25A5D504000221600CF
:10195000082E0CD2C20706D580B2020048F2084019
:1019600090EA520001E080B24008761CF0E76D1C5E
:10197000E8E780B2C04380B270BC704770B4030027
:101980000022002600244FF6FF7000252A000E00DA
:1019900092B2B6B2B24218D22A0092B29A5C5040C9
:1019A00000221400220092B2082A0CDAC20706D5DF
:1019B00080B2020048F2084090EA520001E080B292
:1019C0004008641CEEE76D1CE0E780B2C04380B2C3
:1019D00070BC70472DE9F74F82B0070098460E9C07
:1019E0000F9D00260020ADF804007E20B855761C1F
:1019F0005520B855761C18F10B00B855761C0120FF
:101A0000B855761C0020B855761C0020B855761CB9
:101A10000020B855761C1F20B855761C9DF80C0088
:101A2000B855761C0020B855761C2000C0B200289E
:101A30000CD1C1465FFA89F90498009007EB060AB9
:101A40004A4600995046FFF70BFF0BE0C1465FFA8C
:101A500089F95FF0000A07EB060B524649465846E3
:101A6000FFF724F94046C0B28619BC55761CBD5517
:101A7000761CB878411E89B2B81CFFF77FFF0100C1
:101A8000B955761C080080B2000AB855761C3000A3
:101A900005B0BDE8F08F70B500260024DB4D7E2038
:101AA00005EB06010871761C552005EB060108714F
:101AB000761C092005EB06010871761C012005EB58
:101AC00006010871761C002005EB06010871761CE2
:101AD000002005EB06010871761C002005EB0601CD
:101AE0000871761C1F2005EB06010871761C012089
:101AF00005EB06010871761C002005EB0601087154
:101B0000761CA879411E89B2A81DFFF737FF010096
:101B100005EB06000171761C080080B2000A05EB97
:101B200006021071761C300070BD70B500260024CE
:101B3000B64D7E2005EB06010871761C552005EB9D
:101B400006010871761C092005EB06010871761C58
:101B5000012005EB06010871761C002005EB06014B
:101B60000871761C002005EB06010871761C002028
:101B700005EB06010871761C1F2005EB06010871B4
:101B8000761C032005EB06010871761C002005EB8E
:101B900006010871761CA879411E89B2A81DFFF7BD
:101BA000EDFE010005EB06000171761C080080B215
:101BB000000A05EB06021071761C300070BD70B58E
:101BC00000260024914D7E2005EB06010871761C4D
:101BD000552005EB06010871761C092005EB06016E
:101BE0000871761C012005EB06010871761C0020A7
:101BF00005EB06010871761C002005EB0601087153
:101C0000761C002005EB06010871761C1F2005EBF1
:101C100006010871761C042005EB06010871761C8C
:101C2000002005EB06010871761CA879411E89B2D7
:101C3000A81DFFF7A3FE010005EB06000171761C4D
:101C4000080080B2000A05EB06021071761C300015
:101C500070BD2DE9F84304000D00160000275FF069
:101C60000008DFF8A8917E2009EB070108717F1CAE
:101C7000552009EB070108717F1C002009EB0701C3
:101C800008717F1C012009EB070108717F1C0020EF
:101C900009EB070108717F1C002009EB070108719F
:101CA0007F1C002009EB070108717F1C1F2009EB36
:101CB000070108717F1C022009EB070108717F1CD6
:101CC000002009EB070108717F1C09EB0700047174
:101CD0007F1C09EB070005717F1C2800000A09EB37
:101CE000070108717F1C2800000C09EB070108712F
:101CF0007F1C2800000E09EB070108717F1C09EB0F
:101D0000070006717F1C3000000A09EB070108710B
:101D10007F1C3000000C09EB070108717F1C3000AC
:101D2000000E09EB070108717F1C2000C0B20028DB
:101D300007D0320009EB0700011D280000F099F8D8
:101D4000F7193800811E89B219F10600FFF716FE57
:101D5000010009EB070001717F1C080080B2000A36
:101D600009EB070210717F1C3800BDE8F283F8B55B
:101D7000040000270025254E7E2006EB0701087190
:101D80007F1C552006EB070108717F1C0A2006EB1B
:101D9000070108717F1C012006EB070108717F1CF9
:101DA000002006EB070108717F1C002006EB0701ED
:101DB00008717F1C002006EB070108717F1C1F20A3
:101DC00006EB070108717F1C052006EB070108716F
:101DD0007F1C002006EB070108717F1C06EB070043
:101DE00004717F1CB079411E89B2B01DFFF7C6FD9A
:101DF000010006EB070001717F1C080080B2000A99
:101E000006EB070210717F1C3800F2BD2C12002077
:101E100010B504002000FEF748FE042801D101207F
:101E200000E0002010BD2DE9F04704000D00160071
:101E30000020002101275FF00108A9465FF0000A99
:101E4000B24512D25046800859F820101AEB04000F
:101E5000FEF755FE07003800C0B2042802D000206B
:101E6000804602E01AF1040AEAE74046C0B2BDE843
:101E7000F0872DE9F84F04000D00160000275FF0F1
:101E800000085FF000095FF0010A0094AB46FEF71E
:101E9000FCFD0021B1EB960F06D2009850F821000E
:101EA0004BF82100491CF5E75046C0B2BDE8F28F5F
:101EB0002DE9F04104000D0016005FF00108002735
:101EC000280080B2002860D0FFF724F8002801D154
:101ED000002080464046C0B2002808D0A020FFF76E
:101EE000AEF8FFF78BF8002801D10020804640466D
:101EF000C0B2002808D0200080B2000AC0B2FFF7AC
:101F00009EF8FFF77BF880464046C0B2002806D016
:101F10002000C0B2FFF793F8FFF770F88046404604
:101F2000C0B2002805D0FEF7F5FF002801D100203F
:101F300080464046C0B2002808D0A120FFF77FF8B5
:101F4000FFF75CF8002801D1002080466D1E404656
:101F5000C0B2002817D0002007003800290080B246
:101F600089B2884208D2FFF78FF8390089B27054DD
:101F7000FFF714F87F1CF0E7FFF786F8390089B205
:101F80007054FFF723F8FEF7F1FF4046C0B2BDE8FA
:101F9000F0812DE9F04104000D00160000275FF0EC
:101FA0000108280080B2002842D0FEF7B3FF0028C5
:101FB00001D1002080464046C0B2002808D0A020B1
:101FC000FFF73DF8FFF71AF8002801D100208046FE
:101FD0004046C0B2002808D0200080B2000AC0B23B
:101FE000FFF72DF8FFF70AF880464046C0B20028F8
:101FF00006D02000C0B2FFF722F8FEF7FFFF8046B0
:10200000002007003800290080B289B288420DD232
:102010004046C0B2002807D0380080B2305CFFF7DD
:102020000EF8FEF7EBFF80467F1CEBE7FEF79EFF06
:102030000520FEF766FF4046C0B2BDE8F0812DE9FD
:10204000F04704000D00160000275FF000085FF065
:10205000000A200010F01F0F1BD014F01F00D0F159
:10206000200007002800390080B289B2884200D2DF
:102070002F00404680B206EB0002390089B218EB0F
:10208000040080B2FFF785FF8146ED1B17EB0808BF
:1020900001E05FF001094846C0B200281FD02800C7
:1020A00080B200281BD0202007002800390080B211
:1020B00089B2884200D22F00404680B206EB00026F
:1020C000390089B218EB040080B2FFF762FF814645
:1020D000ED1B17EB08084846C0B20028DFD1484680
:1020E000C0B2BDE8F087000080B53D49086850F0F7
:1020F000010008603B4A13683B48034013600B68CB
:102100003A4803400B60086830F48020086010688B
:1021100030F4FE0010605FF41F003549086000F0E5
:1021200001F801BD80B500F001F801BD82B00020CA
:102130000190002000902A49086850F4803008601F
:10214000086810F4003000900198401C019000983D
:10215000002804D101984FF6FF729042F0D1086830
:10216000800302D50120009001E00020009000983B
:10217000012831D11F48026852F010020260026843
:10218000920892000260026852F002020260154852
:102190000268026002680260026852F480620260B3
:1021A000026832F47C120260026852F4A0220260DB
:1021B0000A6852F080720A600A689201FCD50168D0
:1021C000890889000160016851F00201016001681D
:1021D00011F00C010829FAD102B07047000000008C
:1021E00000100240041002400000FFF8FFFFF6FE5E
:1021F00008100240002002407047FEE7FEE7FEE7BD
:10220000FEE770477047704723480168491C01602A
:1022100000681521B0FBF1F201FB1200002804D187
:102220001E48016851F0020101601D48017809064D
:102230000AD5D0F80819491DC0F80819D0F80819AE
:10224000322901D305210170704770B5154C40F259
:10225000255529002000FFF7FAF900280CD00026A8
:1022600029002000FFF728FA0F4805880C492800AC
:10227000C0B2FFF734FA0AE04FF458712000FFF7BC
:10228000E6F9002803D008480088C005C00D208862
:1022900010F47C40208070BD501B0020381B0020B3
:1022A000140000200038014004380140704700004D
:1022B000426F6F742056332E305F323030333036F9
:1022C0003030204744333246317878000000000037
:1022D00000000000000000000000000000000000FE
:1022E0000000000010B5074979441831064C7C44C1
:1022F000163404E00A68081D114488470146A142CB
:10230000F8D110BD080000002800000007EAFFFF18
:10231000441B00001400002000000000EBF5FFFF4C
:102320001400000068000000000000200000000011
:1023300000F00DF8002801D0FFF7D4FFAFF30080C4
:102340000020AFF3008000F004F800F00CF801204A
:10235000704780B5FDF775FFFDF7D7FFFEF715F85D
:10236000FEF731F8F8E700F001B8000007463846FC
:1023700000F002F8FBE7000080B5AFF30080024AEE
:1023800011001820ABBEFBE7260002000000000091
:1023900001020304010203040607080902040608F7
:1023A0000148804701480047E9200008BD23000894
:1023B000534D35303033303320000000AFF3008010
:1023C000AFF30080FFF7B4FF000C01408000000075
:1023D000000C014040000000000801400002000025
:1023E000000801400004000000080140000800004F
:1023F000000C014000200000000C014000400000E3
:10240000000C014000800000000C014000080000AA
:10241000000C014000100000FFF7FEBFFFF7FEBFF9
:10242000FFF7FEBFFFF7FEBFFFF7FEBFFFF7FEBFE0
:10243000FFF7FEBFFFF7FEBFFFF7FEBFFFF7FEBFD0
:10244000FFF7FEBFFFF7FEBFFFF7FEBFFFF7FEBFC0
:10245000FFF7FEBFFFF7FEBFFFF7FEBFFFF7FEBFB0
:10246000FFF7FEBFFFF7FEBFFFF7FEBFFFF7FEBFA0
:10247000FFF7FEBFFFF7FEBFFFF7FEBFFFF7FEBF90
:10248000FFF7FEBFFFF7FEBFFFF7FEBFFFF7FEBF80
:10249000FFF7FEBFFFF7FEBFFFF7FEBFFFF7FEBF70
:1024A000FFF7FEBFFFF7FEBFFFF7FEBFFFF7FEBF60
:0C24B000FFF7FEBFFFF7FEBFFFF7FEBF07
:04000005080023BD0F
:00000001FF
