:020000040800F2
:10000000683B00200D5700082D5100082F510008B3
:10001000315100083351000835510008000000003C
:10002000000000000000000000000000AB1E0008FF
:100030003751000800000000651E0008E1160008A6
:1000400085570008895700088D5700089157000808
:1000500095570008995700089D570008A1570008B8
:10006000A5570008A9570008AD570008B157000868
:10007000B5570008B9570008BD510008995100084C
:10008000BD570008C1570008C5570008C9570008E8
:10009000CD570008D1570008D5570008395100083E
:1000A000D9570008DD570008E1570008E557000858
:1000B0001F520008E9570008ED570008F1570008E3
:1000C000F5570008F9570008FD57000801580008C7
:1000D00005580008E5510008095800080D580008A7
:1000E0001158000815580008195800081D58000834
:1000F0002158000825580008295800082D580008E4
:100100003158000835580008395800083D58000893
:100110004158000845580008495800084D58000843
:100120005158000855580008595800085D580008F3
:100130002DE9F14F84B00E0017009846380080B2C8
:10014000800001F07FF80500002D15D0642001F03B
:1001500079F80400002C0BD05FF064095FF0000A0E
:10016000A34652464946584601F09EF9256304E0ED
:10017000280001F0F1F800E00024002C12D000204B
:10018000039002940F9801900E98009043463A0015
:1001900092B23100049800F00AF8200000F077F8DD
:1001A000012001E05FF0FF3005B0BDE8F08F2DE9E0
:1001B000F94F81B00C0016000C9F0D9DDDF83880C2
:1001C000B00000905FF0A50BD8F830A05A46009917
:1001D000504601F069F9D8F8300000EB8600B0F124
:1001E000040A5FEADA0A5FEACA0A1AF0070000287E
:1001F00007D0502080F31188BFF34F8FBFF36F8F6C
:10020000FEE7002C14D000208146B9F1140F0CD267
:1002100014F8090008EB090181F8340014F809000A
:10022000002802D019F10109EFE7002088F8470003
:100230001F2F07D3502080F31188BFF34F8FBFF3D8
:100240006F8FFEE71F2F01D31E200700C8F82C7008
:10025000C8F8507018F1040001F068F918F118009E
:1002600001F064F9C8F81080D7F11F00C8F8180031
:10027000C8F82480029A0199504601F095F9C8F80F
:100280000000002D01D0C5F80080BDE8F78F70B5E3
:10029000040001F0F5F9DFF8B4140868401C0860A8
:1002A000DFF8AC542868002806D12C6008680128C3
:1002B0000DD100F0C9FC0AE0DFF8980400680028BE
:1002C00005D1E06A2968C96A884200D32C60DFF84A
:1002D00088040168491C01600068A064DFF87C1490
:1002E0000A680123E06A83401A430A601420DFF899
:1002F0007014E26A42430A445668A660B268E2603B
:10030000221DB3685A60221DB260E26A42430A4469
:100310006261E26A4243E36A00FB03F00858401C52
:10032000885001F0C7F9DFF82C04006800280DD0D0
:100330002868C06AE16A884208D25FF08050DFF81E
:1003400024140860BFF34F8FBFF36F8F70BD70B57B
:10035000040001F095F9002C03D1DFF8F4030568DF
:1003600000E02500281D01F00BF900280FD1DFF86F
:10037000F013EA6A142042438858002807D1DFF8B6
:10038000DC130A680123E86A83409A430A60A86A7A
:10039000002803D015F1180001F0F2F8DFF8B803D7
:1003A0000168491C0160DFF8A863306885420AD102
:1003B000291DDFF8B40301F0BCF8DFF8B0030168D1
:1003C000491C016006E0DFF884030168491E0160F2
:1003D00000F08FFC01F06EF93068854202D02800F1
:1003E00000F07EFCDFF86C030068002818D030684D
:1003F000854215D1DFF878030068002807D0502027
:1004000080F31188BFF34F8FBFF36F8FFEE75FF06C
:100410008050DFF850130860BFF34F8FBFF36F8F2A
:1004200070BD38B505000024002D15D0DFF840035D
:100430000068002807D0502080F31188BFF34F8F49
:10044000BFF36F8FFEE700F0D4F80021280000F022
:100450008FFE00F0D4F80400002C08D15FF080502B
:10046000DFF800130860BFF34F8FBFF36F8F31BD0C
:1004700010B4020000201300002A07D1502181F39C
:100480001188BFF34F8FBFF36F8FFEE75969DFF815
:100490007C44A14209D1996ADFF87047A14204D097
:1004A000996A002901D10121080010BC7047F8B5F4
:1004B000040000252600002C07D1502080F311886D
:1004C000BFF34F8FBFF36F8FFEE701F01DF9EFF31E
:1004D0001187502080F31188BFF34F8FBFF36F8FC8
:1004E0003000FFF7C5FF002841D0DFF88402006824
:1004F000002836D1F06ADFF858120968C96A8842C4
:1005000005D3012005000120DFF8F0160860301D3A
:1005100001F036F8DFF844120A680123F06A8340DC
:100520001A430A601420DFF83812F26A42430A4480
:100530005268B2609368F360331DD2F808C0CCF8FB
:100540000430331D9360F36A43430B447361F36AD1
:100550004343D6F82CC000FB0CF00858401CC85090
:1005600005E016F11801DFF8700700F0E2FF87F3ED
:1005700011882800F2BD1CB5DFF8BC0601900020F0
:10058000009000238022DFF8B416DFF8B406FFF7EE
:10059000CFFD0400012C02D101F008F90400012C68
:1005A00018D1502080F31188BFF34F8FBFF36F8FA6
:1005B0005FF0FF30DFF88C1608600120DFF894113F
:1005C00008600020DFF8AC11086001F092FB01F038
:1005D00010F80AE014F1010F07D1502080F31188C0
:1005E000BFF34F8FBFF36F8FFEE7DFF8F0060068B1
:1005F00013BDDFF87C010168491C01607047F8B544
:1006000000250026DFF868412068002807D1502027
:1006100080F31188BFF34F8FBFF36F8FFEE701F0B8
:100620002FF82068401E20602068002840F082805B
:100630004648006800287DD0DFF8D01508680028FB
:1006400053D0C868C0680500A86A296AEA69916041
:10065000E9692A6A5160416815F11802914201D195
:10066000296A41600021A9620168491E0160686928
:10067000E968AA689160A968EA68516041682A1D22
:10068000914201D1E9684160002169610168491E18
:10069000016032490A680123E86A83401A430A600C
:1006A0002F481421EA6A4A4302445268AA609368B8
:1006B000EB602B1D946863602B1D9360EB6A4B43CA
:1006C00003446B61EB6A4B43EC6A01FB04F1415854
:1006D000491CC150E86A1E490968C96A8842ABD3FF
:1006E0000120DFF818150860A6E7002D01D000F002
:1006F00000FBDFF844763C68002C0CD000F03CF89E
:10070000002803D00120DFF8F4140860641E002CD8
:10071000F4D100203860DFF8E4040068002809D034
:10072000012006005FF080500E490860BFF34F8F34
:10073000BFF36F8F00F0BEFF3000F2BD0D480068C0
:100740007047DFF8F805006870470000103100209E
:10075000003100201C3100202C31002018310020F5
:10076000E828002004ED00E06C3000200C3100206F
:1007700038310020143100202DE9F0410027DFF846
:1007800090060068002840F0B580DFF8880604680D
:10079000641C0460002C1AD15A49086800680028BB
:1007A00007D0502080F31188BFF34F8FBFF36F8FB6
:1007B000FEE7D1F80080544802680A60C0F8008063
:1007C000DFF854060168491C016000F092FADFF876
:1007D00074140868844278D34A4A10680068002874
:1007E00003D15FF0FF3008606FE01068C068C06838
:1007F000050068680600B44201D20E6065E06869D1
:10080000EA68AB689A60AA68EB685A6042682B1D78
:100810009A4201D1EA68426000226A610268521E6F
:100820000260A86A002812D0A86A2A6AEB699A6056
:10083000EA692B6A5A60426815F118039A4201D19D
:100840002A6A42600022AA620268521E0260DFF831
:10085000B02513685FF0010CE86A1CFA00FC5CEA42
:1008600003031360DFF8A0051422EB6A534303442B
:100870005B68AB60D3F808C0C5F80CC015F1040C78
:10088000D3F808E0CEF804C015F1040CC3F808C092
:10089000D5F82CC002FB0CFC8444C5F814C0D5F874
:1008A0002CC002FB0CFCD5F82CE002FB0EF28258A7
:1008B000521C40F80C20DFF854050068C06AEA6A50
:1008C000904289D20120070086E7DFF840050068E2
:1008D000DFF83415C26A142042438858022801D335
:1008E00001200700DFF814030068002807D001206A
:1008F000070004E0DFF840040168491C016038008B
:10090000BDE8F08104310020083100208030002053
:1009100010B4DFF8FC040068002804D00120DFF8E0
:10092000DC12086045E00020DFF8D0120860DFF834
:10093000EC14DFF8D00400680860DFF8E4241068E5
:100940000B68984208D2DFF8C40403689C6D0868FD
:1009500004191068241A9C6508681060DFF8A00468
:100960000068B0FA80F1D1F11F011422DFF8983449
:1009700002FB01F01858002807D1502080F311889D
:10098000BFF34F8FBFF36F8FFEE702FB01F203EB64
:100990000200426852684260426810F108039A42BD
:1009A00002D14268526842604068C068DFF85C2447
:1009B000106010BC704738B504000D00002C07D142
:1009C000502080F31188BFF34F8FBFF36F8FFEE786
:1009D000DFF83804006810F11801200000F0B5FDC0
:1009E0000121280000F0C4FB31BD70B504000E00E9
:1009F0001500002C07D1502080F31188BFF34F8FD2
:100A0000BFF36F8FFEE76068DFF800140A68D061FB
:100A100082680B681A620A68183283685A600A682A
:100A20001832826009688C622168491C2160002D9F
:100A300002D05FF0FF3006002900300000F098FB84
:100A400070BD70B40200D068C168002907D1502081
:100A500080F31188BFF34F8FBFF36F8FFEE7886A73
:100A60000B6ACC69A360CB690C6A6360436811F1BF
:100A70001804A34201D10B6A436000238B62036810
:100A80005B1E0360DFF888030068002835D14869E1
:100A9000CB688C68A3608B68CC68636043680C1D6E
:100AA000A34201D1CB68436000234B6103685B1E06
:100AB0000360DFF84C331C680125C86A85402C436D
:100AC0001C60DFF844031423CC6A5C43044464686C
:100AD0008C60A568CD600D1DA66875600D1DA560B4
:100AE000CD6A5D4305444D61CD6A5D43CE6A03FB2B
:100AF00006F3C3585B1C43510FE0444B5868C86170
:100B000084680C6211F1180485686C6011F1180496
:100B100084608B621C68641C1C60DFF8F002006853
:100B2000C06ACB6A984204D201200123334C23606F
:100B300000E0002070BC7047DFF8DC12096801603B
:100B4000DFF8D0120968416070472DE9F0410400D8
:100B50000D00002C07D1502080F31188BFF34F8F78
:100B6000BFF36F8FFEE7002D07D1502080F311886F
:100B7000BFF34F8FBFF36F8FFEE700F081FDDFF80B
:100B8000940206686768F71BDFF88012086890F81F
:100B90006100002806D00020096881F861005FF03C
:100BA000010824E0286810F1010F02D15FF000086D
:100BB0001DE0DFF8640200682168884207D06068A1
:100BC000864204D35FF00108002028600FE0286807
:100BD000874208D22868C01B28602000FFF7ACFFBE
:100BE0005FF0000803E0002028605FF0010800F0DB
:100BF00061FD4046BDE8F081000000002431002086
:100C00000120DFF8401508607047000058300020D0
:100C100010B5040000F042F8DFF8EC01006802288B
:100C2000F8D35FF08050DFF820150860BFF34F8FD6
:100C3000BFF36F8FEEE700003431002064570008E7
:100C4000110C00083031002070B500241F2C09D28F
:100C5000DFF8B401142101FB04F1084400F057FC53
:100C6000641CF3E7DFF8E454280000F050FCDFF8E0
:100C7000E064300000F04BFC174800F048FCDFF85F
:100C8000D40400F044FCDFF8D00400F040FCDFF8AE
:100C9000CC040560DFF8C804066070BD38B5DFF825
:100CA000C4542868002816D000F0EAFCDFF8A40439
:100CB000C068C0680400201D00F062FC1F48016885
:100CC000491E01602868401E286000F0F3FC2000E7
:100CD00000F006F8E3E731BD583000201C0000208A
:100CE00010B50400206B00F037FB200000F034FB4F
:100CF00010BDDFF8681408680068002805D15FF0AF
:100D0000FF30DFF86414086005E00868C068006818
:100D1000DFF8541408607047DFF8500400680028BA
:100D200001D1012007E0DFF8FC040068002801D1B0
:100D3000022000E000207047203100201031002008
:100D4000F8B5040025000026002C56D02F48006876
:100D5000854207D0502080F31188BFF34F8FBFF337
:100D60006F8FFEE7686D002807D1502080F311884F
:100D7000BFF34F8FBFF36F8FFEE7686D401E68654E
:100D8000E86A296D884238D0686D002835D1281D61
:100D900000F0F6FB002806D119490A680123E86A29
:100DA00083409A430A60286DE862E86AD0F11F0028
:100DB000A86113490A680123E86A83401A430A605C
:100DC0001420DFF86814EA6A42430A445268AA60B1
:100DD0009368EB602B1D97687B602B1D9360EB6A1B
:100DE00043430B446B61EB6A4343EF6A00FB07F03C
:100DF0000858401CC850012006003000F2BD000019
:100E000018310020D0300020E828002000310020D8
:100E100038310020143100202831002040310020DA
:100E20003C3100202DE9F04104000D001600002C9B
:100E300007D0502080F31188BFF34F8FBFF36F8F1F
:100E4000FEE700F01DFCDFF8D883D8F8000000EBC7
:100E50008400C06D002814D10120D8F8001021446E
:100E600081F86000002E0CD00121300000F080F9E4
:100E70005FF08050DFF8D0120860BFF34F8FBFF3F0
:100E80006F8F00F017FC00F0FBFBD8F8000000EBC0
:100E90008400C76D002F0ED0002D06D00020D8F89A
:100EA000001001EB8401C86505E0781ED8F8001039
:100EB00001EB8401C8650020D8F80010214481F8B6
:100EC000600000F0F7FB3800BDE8F0812DE9F04745
:100ED00004000F0090461D00089E002C07D05020F3
:100EE00080F31188BFF34F8FBFF36F8FFEE700F0E1
:100EF000C7FBDFF82C93D9F80000204490F860007D
:100F000002281DD0D9F8000000EB8401C96DB94357
:100F100000EB8400C1650120D9F80010214481F85C
:100F20006000002E0CD00121300000F021F95FF0AC
:100F30008050DFF814120860BFF34F8FBFF36F8F3C
:100F400000F0B8FB00F09CFB002D05D0D9F80000A4
:100F500000EB8400C06D2860D9F80000204490F8B0
:100F60006000022802D05FF0000A0BE0D9F8000010
:100F700000EB8401C96D31EA080100EB8400C16512
:100F80005FF0010A0020D9F80010214481F86000C8
:100F900000F090FB5046BDE8F0872DE9F84F0400C3
:100FA0000D00170098460A9E5FF00109002D07D03A
:100FB000502080F31188BFF34F8FBFF36F8FFEE790
:100FC000002C07D1502080F31188BFF34F8FBFF35F
:100FD0006F8FFEE7A24600F053FB002E03D00AEB12
:100FE0008500C06D30600AEB050090F860B002200B
:100FF0000AEB050181F860004046C0B2002825D008
:1010000002280CD003D3042815D010D31FE00AEB1C
:101010008500C06D38430AEB8501C86524E00AEB02
:101020008500C06D401C0AEB8501C8651CE00AEB19
:101030008500C76518E05846C0B2022803D00AEB05
:101040008500C76501E0002081460DE00CE0DFF877
:10105000E0010068002807D0502080F31188BFF31A
:101060004F8FBFF36F8FFEE75846C0B2012864D19F
:10107000DAF81400DAF80C10DAF808209160DAF8DF
:101080000810DAF80C20516041681AF1040291420C
:1010900002D1DAF80C1041600021CAF8141001687E
:1010A000491E0160DFF880110A680123DAF82C007C
:1010B00083401A430A60DFF874011421DAF82C2007
:1010C0004A4302445268CAF808209368CAF80C30B0
:1010D0001AF10403D2F808C0CCF804301AF1040362
:1010E0009360DAF82C304B430344CAF81430DAF832
:1010F0002C304B43DAF82CC001FB0CF14158491C51
:10110000C150DAF82800002807D0502080F3118859
:10111000BFF34F8FBFF36F8FFEE7DFF80401006866
:10112000C06ADAF82C10884207D25FF08050064976
:101130000860BFF34F8FBFF36F8F00F0BBFA4846D4
:10114000BDE8F28F2431002004ED00E030300020B3
:10115000443000206C30002080300020043100201A
:10116000083100200C310020303100201C310020DB
:101170002DE9F04105000C002D480768DFF8A0803C
:101180000020D8F8001081F86100D8F80000001D98
:1011900000F0F6F9002808D1D8F8000022490A68C2
:1011A0000123C06A83409A430A6015F1010F1AD1E6
:1011B000002C18D01F484168D8F8002091608A6838
:1011C000D8F80030DA60D8F80020121D8B685A6019
:1011D000D8F80020121D8A60D8F8002050610268FB
:1011E000521C02601AE0E8190600D8F800004660B8
:1011F000BE4207D2D8F80000011D0F48006800F079
:10120000A4F90BE0D8F80000011D0C48006800F0BC
:101210009CF90B4801688E4200D20660BDE8F0815F
:10122000003100203831002018310020E82800204B
:1012300014310020803000200831002004310020CB
:10124000303100202DE9F84F04005FF00009FFF76E
:10125000D0F9DFF834A2DAF80000002801D100F05C
:10126000B6F8002C0FD089480168083114F0070047
:10127000091A0D005FF0FF30401BA04201D32C196A
:1012800001E000200400002C55D4002C53D0DFF8DE
:1012900000B2DBF80000A0424DD37E480700006892
:1012A00006007068A04205D23068002802D03700DE
:1012B0003668F6E7DAF8000086423CD073483968B1
:1012C00002681144894631683960006840007168DD
:1012D000091B884216D206EB0400804618F007006E
:1012E000002807D0502080F31188BFF34F8FBFF341
:1012F0006F8FFEE77068001BC8F8040074604046FA
:1013000000F092F8DBF800107068091ACBF80010B2
:101310006148DBF800100268914202D2DBF800104D
:101320000160706850F000407060002030605B48E1
:101330000168491C0160FFF762F919F007000028F5
:1013400007D0502080F31188BFF34F8FBFF36F8F0A
:10135000FEE74846BDE8F28F70B504002600002C79
:1013600034D04A4800684042064435006868002886
:1013700007D4502080F31188BFF34F8FBFF36F8FD6
:10138000FEE72868002807D0502080F31188BFF3BB
:101390004F8FBFF36F8FFEE76868002816D5286867
:1013A000002813D1686820F000406860FFF721F939
:1013B00037490A68686882180A60280000F034F823
:1013C00037480168491C0160FFF719F970BD70B416
:1013D0004FF420523348010011F0070F04D0C91D0B
:1013E000C908C900521A82180B002A480360002459
:1013F0004460D41825480068241AE408E400224D0B
:101400002C6000202E68706000202E68306018006C
:10141000261A46602D68056045681F4E3560456890
:101420001B4E356070BC704730B41A4A1168814257
:1014300001D21268FAE7140051682144814204D1B4
:1014400053684168CB185360100003004168194489
:101450001568A94210D10C4914680D68AC4208D037
:101460004468116849680C19446011680968016092
:1014700004E00968016001E011680160824200D067
:10148000106030BC70470000E83000207C57000836
:10149000EC300020BC300020F0300020F430002080
:1014A000F8300020E800002062F30F2262F31F42B0
:1014B000401810F0030308D0C91A1FD3DB0748BF38
:1014C00000F8012D28BF20F8022D130030B4144677
:1014D0001546103928BF20E93C00FAD8490728BF33
:1014E00020E90C0048BF40F8042D890028BF20F8EF
:1014F000022D48BF00F8012D30BC7047C91818BF35
:1015000000F8012DCB0728BF00F8012D704710F11E
:10151000080141605FF0FF31816010F10801C16096
:1015200010F1080101610021016070470021016193
:10153000704742684A6093688B6093685960916015
:10154000086103685B1C0360704710B40B6813F1FB
:10155000010F01D1026907E010F108025468246804
:10156000A34201D35268F9E754684C604C68A1600B
:101570008A60516008610468641C046010BC704794
:10158000010008698A684B689A604A688B685A60EB
:1015900042688A4201D18A68426000220A61026878
:1015A000521E026000687047001F5FF08073036086
:1015B000001F4B085B000360001F0FF20D03036068
:1015C00014380260203870476348006810F1010F3A
:1015D00007D0502080F31188BFF34F8FBFF36F8F78
:1015E000FEE7502080F31188BFF34F8FBFF36F8F5A
:1015F000FEE7E0B5594801780191FF2101700178BB
:101600008DF800109DF8001011F05001544A11702F
:10161000544907220A609DF80020120608D50A687E
:10162000521E0A609DF8002052008DF80020F2E75B
:101630000A68D2F10702042A07D0502181F31188E9
:10164000BFF34F8FBFF36F8FFEE70A6812020A6085
:101650000A6812F4E0620A60019901704248016868
:1016600051F470010160016851F07041016000F0B7
:1016700083F800203849086000F027FC00200EBDE8
:10168000502080F31188BFF34F8FBFF36F8F324923
:101690000A68521C0A60096801290AD1334909689D
:1016A000090606D080F31188BFF34F8FBFF36F8F09
:1016B000FEE7704728490868002807D1502080F3CA
:1016C0001188BFF34F8FBFF36F8FFEE70868401E8E
:1016D00008600868002802D1002080F31188704754
:1016E00080B5502080F31188BFF34F8FBFF36F8F09
:1016F000FFF742F8002803D05FF080501B490860D4
:10170000002080F3118801BDEFF30580102811D36C
:10171000174A1268125C11000A00114B1B78D2B2F2
:101720009A4207D2502282F31188BFF34F8FBFF342
:101730006F8FFEE70B4A12680E4B1B6813F4E063D1
:101740009A4207D2502282F31188BFF34F8FBFF322
:101750006F8FFEE7704700000000002000E400E00B
:1017600063310020FC30002020ED00E004ED00E0BB
:10177000805700080CED00E00848002101600021BE
:10178000074A1160074909684FF47A72B1FBF2F118
:10179000491E054A116007210160704710E000E012
:1017A00018E000E01800002014E000E01CB5002460
:1017B00000F080F9DFF84403006800280ED0DFF85D
:1017C000400301901F20009000234FF48072DFF847
:1017D00034130FF28900FEF7ABFC0400002C07D194
:1017E000502080F31188BFF34F8FBFF36F8FFEE758
:1017F000200016BD70B504000D0016002B0032004D
:10180000A1694919200000F093F8002805D0A069CB
:1018100045192000216A8847F0E770BD70B50400C3
:101820000D00B9480068C068C668301DFFF7A8FE03
:1018300096F82800400705D52A0021003000FFF760
:10184000D9FF05E096F8280010F0FE0086F8280081
:101850003000316A884770BD0000000038B50400D0
:10186000684600F03FF805000099280000F003F8F2
:1018700000F086F8F4E77CB505000C00FEF7B9FE31
:10188000684600F042F806000098002827D1002C96
:1018900008D1AE4206D3FEF7B2FE31002800FFF7B2
:1018A000BDFF1EE0002C07D09848006800680028A3
:1018B00001D1012400E000242200A91B8F48006808
:1018C00000F08CFDFEF79BFE00280AD15FF08050EF
:1018D0008F490860BFF34F8FBFF36F8F01E0FEF7B2
:1018E0008EFE73BD0100884A10680068002801D18F
:1018F000012000E0002008600868002803D110687B
:10190000C068006800E00020704770B50400FEF772
:1019100015FF05007F4E3068854204D200F0B4F810
:101920000120206001E0002020603560280070BDAB
:101930002DE9F04104000D0016001F005FF00008C3
:1019400065602461AE420CD3F01BA169884202D3CA
:101950000120804611E0211D6C480068FFF7F5FD6D
:101960000BE0BE4204D2BD4202D30120804604E017
:10197000211D65480068FFF7E8FD4046BDE8F0819D
:1019800038B584B0002269465C48006800F085FBE9
:10199000002877D000980028F4D4029804006069E9
:1019A000002802D0201DFFF7EBFD03A8FFF7ADFFD5
:1019B0000500009801280DD063D3032830D009D347
:1019C00005284FD033D3072804D003D309282ED0BD
:1019D00026D356E094F8280050F0010084F828003F
:1019E000019B2A000199A06941182000FFF7A0FF80
:1019F000002814D094F82800400707D52A00019940
:101A0000A06941182000FFF7F5FE05E094F82800D2
:101A100010F0FE0084F828002000216A8847B1E712
:101A200094F8280010F0FE0084F82800AAE794F843
:101A3000280050F0010084F828000198A061A069F6
:101A4000002807D1502080F31188BFF34F8FBFF3D8
:101A50006F8FFEE72B002A00A16949192000FFF7CC
:101A600067FF8FE794F82800800703D42000FFF772
:101A700073FC05E094F8280010F0FE0084F82800BC
:101A800080E77FE705B030BD10B51F4908680068E2
:101A9000002809D00868C068006804005FF0FF31C2
:101AA0002000FFF7BBFEF0E70868184A13680B60D8
:101AB000106010BD70B5FFF7E3FD104C20680028E2
:101AC00018D1154D2800FFF722FD144E3000FFF706
:101AD0001EFD0D4805600D48066000220C21052002
:101AE00000F069FA20602068002803D00C492068C3
:101AF00000F045FCFFF7DEFD70BD00004C3100201A
:101B0000503100206C57000844310020483100203B
:101B100004ED00E05431002094300020A830002073
:101B20007457000838B584B00121DFF8F80100F0DF
:101B30004EFD10208DF8030001208DF80200DFF823
:101B4000E841A088ADF800006946206800F0BCFCC0
:101B5000DFF8D851A888ADF800006946286800F081
:101B6000B3FCDFF8B8028188ADF8001004218DF8CD
:101B7000031001218DF802106946006800F0A4FCF2
:101B80000621002000F065FD4020029001208DF824
:101B90000E0000208DF80C0010208DF80D0002A81A
:101BA00000F086FD17208DF8040001208DF8070055
:101BB0000A208DF8050000208DF8060001A800F02D
:101BC000DAFD10208DF8030003208DF80200A088B4
:101BD000ADF800006946206800F076FCA888ADF8F2
:101BE00000006946286800F06FFC05B030BD11B5F3
:101BF00081B00C00012101A800F02AFF019816BD58
:101C00001CB5FFF73DFD00F07AF8DFF8144203221F
:101C10000021012000F0CFF920602068002803D1C6
:101C2000DFF8000200F042FF0021C72000F017FAA1
:101C3000DFF8F4110860DFF8F40101900220009051
:101C400000238022DFF8E8110FF2E500FEF770FABA
:101C5000DFF8E00101900320009000238022DFF8EC
:101C6000D8110FF24D10FEF763FADFF8D0010190A2
:101C70000420009000238022DFF8C4110FF25D10D1
:101C8000FEF756FA0020FEF762FBFFF713FD13BDC7
:101C900038B584B004000D002000ADF8080028001D
:101CA000ADF804000020ADF80A000020ADF80600F1
:101CB00001A95FF0804000F00DFF012201215FF0DB
:101CC000804000F068FF1C208DF8000004208DF893
:101CD000010000208DF8020001208DF80300684605
:101CE00000F049FD01215FF0804000F045FF05B0A4
:101CF00030BD80B547210920FFF7CAFF01BD80B57F
:101D000000220121032000F056F9DFF838110860A5
:101D1000002280210A2000F04EF9DFF82C11086023
:101D200001BD000000023000345700083C57000895
:101D3000F8B5464C20780228FBD100200090022301
:101D4000002200213B480068FFF727F9207910287E
:101D500009D10020009001230122002137480068AA
:101D6000FFF71BF90BE02079112808D10020009023
:101D700001230222002131480068FFF70EF94FF4D9
:101D8000097500262700320029003800FFF78CFB78
:101D9000002020705FF400302D4908604FF4087077
:101DA0002C4908602C48016851F001010160C0E72E
:101DB00038B54FF47A7500245FF0FF32002100201F
:101DC000FFF730F80400002C03D02100234800F076
:101DD0006DFE2800FEF725FBEEE70000E0B50020D1
:101DE00001905FF0FF30009001AB5FF0FF32002107
:101DF0000020FFF76BF80128F3D10198012802D0E9
:101E0000022805D0EDE70199154800F04FFEE8E7FC
:101E10000199134800F04AFEE3E700004457000828
:101E2000C8300020E4560008CC300020DC30002010
:101E300048560008E030002060560008E4300020DA
:101E400078560008D4300020D83000207C2D0020A7
:101E5000040002405C000240580002409056000816
:101E60001C570008EFF30980BFF36F8F1D4B1A68F2
:101E700020E9F00F106008B54FF0500080F3118892
:101E8000BFF34F8FBFF36F8FFEF742FD4FF000009F
:101E900080F31188BDE8084019680868B0E8F00FC1
:101EA00080F30988BFF36F8F70470E4B196808687D
:101EB000B0E8F00F80F30988BFF36F8F4FF0000098
:101EC00080F311884EF00D0E7047074800680068D7
:101ED00080F3088862B661B6BFF34F8FBFF36F8F90
:101EE00000DF00000031002008ED00E0F8B5070039
:101EF0000D0001263C00002C07D1502080F31188F2
:101F0000BFF34F8FBFF36F8FFEE7002C45D0E06B20
:101F1000002842D05FF0FF30E16BB0FBF1F0216CA4
:101F200088423AD3FFF7ACFB2168E26B206C424356
:101F300001EB0200A0600020A063206860602168BF
:101F4000E26B521E206C424301EB0200E0605FF046
:101F5000FF3084F8440084F84500002D12D1206938
:101F6000002817D014F11000FEF76BFD002811D0E7
:101F70005FF08050DFF88C120860BFF34F8FBFF323
:101F80006F8F07E014F11000FFF7C1FA14F124007D
:101F9000FFF7BDFAFFF78EFB01E000200600002EE0
:101FA00007D1502080F31188BFF34F8FBFF36F8F9D
:101FB000FEE73000F2BD2DE9F84305008846914662
:101FC0000024002D20D05FF0FF30B0FBF5F040453D
:101FD0001AD308FB05F010F1540F15D208FB05F0D9
:101FE000060016F15400FFF72DF90400002C15D05F
:101FF00020005430070000944B46DBB23A004146C3
:10200000280000F00EF809E0002C07D1502080F3E2
:102010001188BFF34F8FBFF36F8FFEE72000BDE83D
:10202000F2832DE9F04105000C0016001F00DDF8D9
:102030001880002C02D1C8F8008001E0C8F80060C8
:10204000C8F83C50C8F8404001214046FFF74EFF19
:1020500088F850700020C8F84800BDE8F08170B5DD
:1020600005000E000024002D0BD0B54209D302223A
:1020700000212800FFF79FFF0400002C0BD0A6636F
:1020800009E0002C07D1502080F31188BFF34F8F57
:10209000BFF36F8FFEE7200070BD2DE9F64182B0DF
:1020A00080460E0000244746002F07D1502080F3C1
:1020B0001188BFF34F8FBFF36F8FFEE7002E02D161
:1020C000386C002801D1012000E00020C0B20028B7
:1020D00007D1502080F31188BFF34F8FBFF36F8F6C
:1020E000FEE7FEF719FE002802D10398002801D16F
:1020F000012000E00020C0B2002807D1502080F36A
:102100001188BFF34F8FBFF36F8FFEE7FFF7B8FA69
:10211000BD6B002D1BD03100380000F0C3F8681EE5
:10212000B863386900280ED017F11000FEF789FC5B
:10213000002808D05FF08050DFF8C8100860BFF3B7
:102140004F8FBFF36F8FFFF7B5FA012057E0039869
:10215000002803D1FFF7AEFA002050E0002C04D194
:102160006846FEF7E9FC01200400FFF7A3FAFEF73A
:1021700040FAFFF785FA97F9440010F1010F02D1F8
:10218000002087F8440097F9450010F1010F02D1B3
:10219000002087F84500FFF78DFA03A96846FEF78F
:1021A000D4FC002820D1380000F0DBF8002815D03E
:1021B000039917F12400FEF7FEFB380000F08DF8BC
:1021C000FEF71DFA0028A1D15FF08050DFF834102F
:1021D0000860BFF34F8FBFF36F8F97E7380000F0B1
:1021E0007CF8FEF70CFA91E7380000F076F8FEF77D
:1021F00006FA380000F0B5F8002887D0002004B0B7
:10220000BDE8F08104ED00E02DE9F84F06000F0075
:1022100014005FF00008B56B306C002809D13068FD
:1022200000283AD1B068FEF78BFD80460020B060F0
:1022300033E0002C14D1D6F84090BA46D6F804B05A
:102240004A465146584600F0EBFC7068316C084431
:1022500070607068B16888421FD3306870601CE09D
:10226000D6F84090BA46D6F80CB04A465146584681
:1022700000F0D6FCF068316C49420844F060F06828
:102280003168884204D2B068316C49420844F06039
:10229000022C02D1002D00D06D1E681CB063404698
:1022A000BDE8F28F2DE9F04104000D00206C0028FC
:1022B00011D0E068216C0844E060E068A1688842C1
:1022C00001D32068E060266CE768A8463200390038
:1022D000404600F0A5FCBDE8F081F8B50400FFF72A
:1022E000CFF994F94550280040B2012819DBA06CC1
:1022F000002807D0200000F097F800280FD0FEF744
:102300007FFC0CE0606A002808D014F12400FEF77E
:1023100098FB002803D0FEF773FC00E001E06D1E7F
:10232000E1E75FF0FF3684F84560FFF7C3F9FFF798
:10233000A7F994F94470380040B201280CDB2069F9
:10234000002809D014F11000FEF77BFB002801D013
:10235000FEF756FC7F1EEEE784F84460FFF7AAF90B
:10236000F1BD38B50400FFF78BF9A06B002801D14F
:10237000012500E00025FFF79DF9280032BD30B4AB
:102380000022002807D1502383F31188BFF34F8F19
:10239000BFF36F8FFEE7002918D000231C00082C24
:1023A00014D20D4D05EBC4035B68984203D105EBD5
:1023B000C4031A000AE0002A06D155F83430002B75
:1023C00002D105EBC4031A00641CE8E7002A01D01F
:1023D0001160506030BC7047F02F0020F8B5040049
:1023E0000D0016002700FFF74BF997F9440010F194
:1023F000010F02D1002087F8440097F9450010F141
:10240000010F02D1002087F84500FFF753F9B86BA0
:10241000002805D13200290017F12400FEF7E5FA63
:102420003800FFF75AFFF1BD71B581B00198846C97
:102430000025002C07D1502080F31188BFF34F8F67
:10244000BFF36F8FFEE7A06BE16B884207D350208C
:1024500080F31188BFF34F8FBFF36F8FFEE7A06B40
:10246000E16B88422ED294F94560002201A9200038
:10247000FFF7CAFE050030005FF0FF3140B288422E
:102480000BD1606A00281DD014F12400FEF7D9FAA0
:10249000002817D00120050014E0FEF752F93100A2
:1024A00049B281420ED2310049B27F2907D1502171
:1024B00081F31188BFF34F8FBFF36F8FFEE7761C58
:1024C00084F84560280076BDF0B500220023002482
:1024D00000250026002791F803C01CF00F0C91F88E
:1024E00003E05FEACE6E02D58A7852EA0C0C0A78D5
:1024F00012062AD00268160000221400082C23D2EB
:102500005FF0010E1EFA04F215000A882A4013003B
:10251000AB4217D1A20015000F22AA401700BE43FC
:102520001CFA05F21643CA78282A04D11EFA04FEC2
:10253000C0F814E006E0CA78482A03D11EFA04FE67
:10254000C0F810E0641CD9E706600A88B2F5807F05
:102550002EDB4268160000221400082C27D25FF000
:10256000010E14F108021EFA02F215000A882A4030
:102570001300AB4219D1A20015000F22AA40170088
:10258000BE431CFA05F21643CA78282A04D114F176
:1025900008021EFA02F24261CA78482A05D114F1F3
:1025A00008021EFA02FEC0F810E0641CD5E746607F
:1025B000F0BD10B40200002390680C00A4B22042C9
:1025C00001D0012000E00020C0B210BC7047F0B480
:1025D0000022002300250027002802D5314C246862
:1025E00001E0314C2468C0F3034586B210F4401C6E
:1025F000BCF5401F07D134F070642B4A176837F0E0
:102600007067176011E0C20206D50322AA401300CA
:102610009C4354F0706408E00200520DD2B21201E3
:1026200016FA02F2944354F070640A00D2B2002AFF
:1026300006D00200520DD2B2120116FA02F2144371
:10264000002802D5174A146001E0174A1460F0BC54
:102650007047F0B400230F2211F00304E4B2A40089
:1026600012FA04F4114D0A00D2B2921055F8222049
:10267000A2430E00F6B2B61045F826200A00D2B2E8
:10268000921055F822600700FFB211F00302D2B297
:10269000920097403E430A00D2B2921045F8226061
:1026A000F0BC70471C0001400400014008000140DC
:1026B00070B40024284B1A00817900292DD0264CB3
:1026C000256801688D432560244C256801688D4389
:1026D000256001798A18146801680C431460204C45
:1026E000256801688D4325601E4D2E6801688E4364
:1026F0002E604179102908D1236801680B432360BB
:102700002B6801680B432B600DE04179CB181A0050
:10271000136801680B43136005E001798A18136898
:1027200001688B43136070BC704710B40200002333
:1027300000200949096811400B4C2468144203D059
:10274000002901D0012000E00020C0B210BC704779
:10275000054908607047000000040140040401407E
:10276000080401400C040140140401401E490143C7
:102770001E4A11607047F0B4002200230F24C17874
:1027800000291FD01949096811F4E061D1F5E06111
:10279000090AD1F104052B00CC4045789D4086788C
:1027A000264035432D012A00114D0678AA550125F2
:1027B000067816F01F06B5400E4E07787F1146F8D2
:1027C000275009E00121057815F01F05A9400A4DA1
:1027D0000678761145F82610F0BC7047074A0A4083
:1027E0000243074B1A6070470000FA050CED00E049
:1027F00000E400E000E100E080E100E080FFFF1F76
:1028000008ED00E030B585B00400042100226D46DB
:102810002800FEF749FE1021002201AD2800FEF736
:1028200043FE10208DF8030003208DF80200974D21
:10283000A888ADF8000069462868FFF745FEA8881B
:1028400029684861924D280000F04CFA914881882F
:10285000ADF8001003218DF8021018218DF8031037
:1028600069460068FFF730FE8B488188ADF800109C
:1028700048218DF8031069460068FFF725FE019492
:102880000020ADF808000020ADF80A000020ADF8E7
:102890000C000020ADF810000C20ADF80E0001A9CE
:1028A000280000F067FA0121280000F0D9FA01227F
:1028B00040F22441280000F0E2FA012280212800A1
:1028C00000F015FB01224021280000F010FB05B0AC
:1028D00030BD38B50400042100226D462800FEF703
:1028E000E3FD25208DF8000003208DF80100022073
:1028F0008DF802008DF803406846FFF73CFF31BDBC
:1029000070B58CB004000D00644E300000F0FCFA8D
:1029100063480190029410200390049500200590D4
:102920008020069000200790002008900020099049
:102930004FF440500A9000200B9001A9300000F0A5
:102940005BFB01220221300000F074FB00F05CF818
:102950000E208DF8000002208DF8010000208DF877
:10296000020001208DF803006846FFF704FF0CB059
:1029700070BD70B58CB004000D00042100226E46BD
:102980003000FEF791FD2C21002201AE3000FEF751
:102990008BFD444E300000F0B7FA4148019002949C
:1029A00000200390049500200590802006900020D0
:1029B000079000200890002009904FF440500A90A2
:1029C00000200B9001A9300000F016FB012202212B
:1029D000300000F02FFB5FF40030334908603068AE
:1029E0004008400030600F208DF8000002208DF874
:1029F000010000208DF8020001208DF803006846D8
:102A0000FFF7B9FE0CB070BD4FF4005026490860C6
:102A1000224801684908490001601D4800884006B5
:102A2000FBD51A4881880068416170470100C9B22E
:102A30001B4A1180164909880906FBD570474FF4D7
:102A4000C0414843401C0100481E0029FBD170478B
:102A50002DE9F04104000D005FF000080B4EB08836
:102A6000316808610120FFF7EAFF0027AF4204D276
:102A7000E05DFFF7DBFF7F1CF8E7054800884006B4
:102A8000FBD5B08831684861BDE8F0815C5700082B
:102A9000003801404C5700085457000844000240D9
:102AA0000438014058000240040002400EB4C0B592
:102AB000024603A800210190009101AB01210448C6
:102AC00078440C3000F0DEFA06BC5DF810FB00BF65
:102AD000F12B000010B4002204881D4B98420ED048
:102AE000214A90420BD0B0F1804F08D0194A904251
:102AF00005D0194A904202D0184A904204D14FF6AC
:102B00008F7214404A881443154A904207D0154AE0
:102B1000904204D04FF6FF421440CA881443048008
:102B20008A8882850A88028598420BD00E4A904294
:102B300008D00E4A904205D00D4A904202D00D4A6C
:102B4000904201D10A7A02860122828210BC70472B
:102B5000002C01400004004000080040000C004030
:102B600000100040001400400034014000400140CB
:102B700000440140004801400A00D2B2002A04D0BB
:102B8000028852F00102028004E003884FF6FE72D0
:102B90001340038070471300DBB2002B03D08389FE
:102BA0000B43838102E083898B4383817047F0B4B8
:102BB0000200002300260024178A0F4095890D404B
:102BC000380080B2002805D0280080B2002801D04B
:102BD000012000E00020C0B2F0BC70470A0092B2B1
:102BE000D2430282704730B4002513E050F8042B22
:102BF000D30744BFA9F101039A18091F042942F819
:102C0000045BFAD213468C0744BF15809B1CC9078E
:102C100048BF1D7050F8041B0029E7D130BC704735
:102C200062B38B0708D0521E11F8013B00F8013B3C
:102C300000F024808B07F6D1830740F0208000BF8E
:102C4000103A07D330B4B1E83810103AA0E8381081
:102C5000F9D230BC530724BFB1E80810A0E808102F
:102C600044BF51F8043B40F8043BD20724BF31F87D
:102C7000022B20F8022B44BF0B7803707047121F01
:102C800017D35B0009D151F8043B20F8023B1B0C21
:102C9000121F20F8023BF6D20BE051F8043B00F87B
:102CA000013B1B0A20F8023B1B0C121F00F8013BE2
:102CB000F3D238BF121D521E24BF11F8013B00F899
:102CC000013BF8D87047B1F5807F02D34FF0FF3059
:102CD00070470170012070470078401E8041C0435A
:102CE000C00F704710B50400584884420AD1012132
:102CF0004FF4804001F05EFB00214FF4804001F072
:102D000059FB36E0524884420AD101215FF4003079
:102D100001F05EFB00215FF4003001F059FB28E078
:102D20004C4884420AD101215FF4802001F050FB1D
:102D300000215FF4802001F04BFB1AE046488442FA
:102D40000AD101215FF4002001F042FB00215FF471
:102D5000002001F03DFB0CE04048844209D10121F4
:102D60005FF4801001F034FB00215FF4801001F06B
:102D70002FFB10BD2DE9F84F86B004000D00002692
:102D800000275FF000085FF000095FF0000AA889E3
:102D90000028A346218A4CF6FF700140E8880143D1
:102DA000009100982082A1894EF6F3100140AA8874
:102DB0002889024368890243114300910098A08149
:102DC000A18A4FF6FF400140A88901430091009875
:102DD000A08201A801F058FA1C48834501D104994A
:102DE00000E00399A089000407D5192000FB01F039
:102DF0002A685200B0FBF2F206E0192000FB01F055
:102E00002A689200B0FBF2F26420B2FBF0F63601C1
:102E100033001B09642000FB1323A089000408D59C
:102E2000D80032306427B0FBF7F010F007000643FB
:102E300007E0180132306427B0FBF7F010F00F0004
:102E40000643268107B0BDE8F08F0000003801403E
:102E50000044004000480040004C0040005000404A
:102E60000A00D2B2002A04D0828952F40052828130
:102E700004E083894DF6FF721340838170472DE98A
:102E8000F0410023002500275FF0000E0C0040F603
:102E90006A16A4B2B44280460C00E4B26409E4B2FB
:102EA0000E00B6B216F01F065FF0010C1CFA06FC0D
:102EB000012C02D118F10C0806E0022C02D118F105
:102EC000100801E018F114081300DBB2002B06D043
:102ED000D8F800305CEA0303C8F8003005E0D8F801
:102EE000003033EA0C03C8F80030BDE8F08113006D
:102EF000DBB2002B03D0838A0B43838202E0838AF8
:102F00008B43838270472E000168490849000160A5
:102F10000021016000214160002181600021C16029
:102F20004A49884205D14A490A6852F00F020A60AC
:102F300061E04849884205D145490A6852F0F002EB
:102F40000A6058E04449884205D141490A6852F470
:102F500070620A604FE04149884205D13C490A68E5
:102F600052F470420A6046E03D49884205D1384932
:102F70000A6852F470220A603DE03A49884205D15D
:102F800033490A6852F470020A6034E036498842D4
:102F900005D12F490A6852F070620A602BE033496C
:102FA000884205D132490A6852F00F020A6022E0D5
:102FB0003049884205D12E490A6852F0F0020A6071
:102FC00019E02D49884205D129490A6852F47062F6
:102FD0000A6010E02949884205D125490A6852F45F
:102FE00070420A6007E02649884204D120490A68F5
:102FF00052F470220A60704730B4002304686FF303
:103000000E148D680A6A15430A6915434A69154307
:103010008A691543CA6915434A6A15438A6A154382
:103020002C430460CA6842600A6882604A68C260D1
:1030300030BC70471300DBB2002B03D003680B4396
:10304000036002E003688B4303607047080002409E
:10305000040002401C0002403000024044000240D4
:10306000580002406C000240800002400804024008
:10307000040402401C0402403004024044040240A4
:10308000580402402DE9F14FB2B099469246002310
:103090000691CDE900333C9A0F930DF14A0114914A
:1030A0004A7011E0329E57462C4617F8011B0698CD
:1030B000B0470028069000F026810F98401C641E3F
:1030C0000F90F2D13296AA449AF80000252808D130
:1030D0000021002209910A920B910C920D910E92FF
:1030E0000FE06A464FF0FF31504601F0FFF905004E
:1030F00002D10F9800F066BED4D50125E3E741F078
:1031000001011AF8010F2028F9D023280CD02B2810
:1031100004D02D2805D0302809D00BE041F0020161
:10312000EFE741F00401ECE741F00801E9E741F085
:103130001001E6E72A280FD1D9F8002052F8040B35
:10314000C9F800200028119003D54042119041F0A9
:1031500004010AF1010A14E01192DFF8EC3B0AE0E5
:103160001198984205DA00EB800402EB4402303AF1
:1031700011920AF1010A9AF80020A2F130000A28FF
:10318000EED39AF800002E2803D04FF0FF321092B1
:1031900029E01AF8010F2A2809D1D9F8000050F8BF
:1031A000042BC9F8000010920AF1010A1BE02D2837
:1031B0000CBF0AF1010A002000221092DFF8882BD0
:1031C0000BE040B9109B934205DA03EB830504EB57
:1031D0004504303C10940AF1010A9AF80040A4F129
:1031E00030030A2BEDD3ADF848100FF660309AF893
:1031F000001001F085F908B11AF8010B8DF84A00AA
:103200009DF84A00682805D19AF8000068280CD17A
:10321000622106E06C2804BF9AF800006C2804D1F3
:1032200071218DF84A100AF1010A1FA808901AF8B6
:1032300001BBBBF125012DD01C3900F06181091FB4
:10324000022940F25D810E392AD0491F00F0B38473
:10325000093900F05581891E00F04985491E00F0AA
:10326000F584491E022940F24B81091F00F0EE84CB
:10327000491F00F0BA80491E00F09D84491E65D0A8
:10328000C91E21D0891E00F09684C91E00F09384C7
:1032900000F04CBD25238DF87C30012109912AE0F6
:1032A0006C208DF84A00D9F8000050F8042BC9F8BA
:1032B0000000002A43D11499487800283DD04FF0EF
:1032C000FF340FF6902012E09DF84A006C28EAD0F7
:1032D000D9F8000050F8044BC9F800000794D4B99D
:1032E0001499487898B14FF0FF340FF6842001F01C
:1032F00013F9201A07D132981FAA04A900F065FD1E
:1033000000287FF5E1AE4FF0FF3000F05BBD0FF617
:103310007C200790EFE7109D002D04D5204601F09A
:103320001BF9044607E02A46204601F031F900283F
:1033300014BF041B2C460A94DDE70FF65422329882
:1033400004A900F0C8FD0028D5D5DCE7D9F80010A5
:1033500051F8040BC9F8001020F00004002121F0FE
:10336000FF351FABCDE904450793DDE90423089938
:103370003C2413B90AB9109898B102F00F05303502
:10338000641EEEB23A2EA8BF2735120942EA037234
:103390001B090D5508BF002A03D007980D19A84234
:1033A000EBD308190790C4F13C0210980A928242AC
:1033B00009DABDF84810821A4FF6EF7001400C92FE
:1033C000ADF8481097E7002895D59DF8480000F023
:1033D000140010288FD1119B09990C985B1A1B1AA5
:1033E0009A1A002A87DD0C9285E71499487820B153
:1033F0004FF0FF340FF69C1079E79DF84A006228E1
:1034000062D0682819D06A2840D06C2806D071286C
:103410004DD074282DD07A281ED064E0D9F8001041
:1034200051F8040BC9F8001020B94FF0FF340FF623
:103430007C105CE70F9901605DE7D9F8001051F846
:10344000040BC9F8001020B94FF0FF340FF65C10E0
:103450004DE70F9901804EE7D9F8001051F8040BA1
:10346000C9F800100028E5D14FF0FF340FF63C10EA
:103470003DE7D9F8001051F8040BC9F800100028F6
:10348000D8D14FF0FF340FF6241030E7D9F80010F0
:1034900051F8040BC9F8001020B94FF0FF340FF6B3
:1034A0000C1024E70F9AD317C0E9002323E7D9F8BB
:1034B000001051F8040BC9F800100028F2D14FF0A9
:1034C000FF340FF6E80012E7D9F8001051F8040BAA
:1034D000C9F8001020B94FF0FF340FF6D00006E70E
:1034E0000F99017007E7D9F8001051F8040BC9F8DB
:1034F000001000289ED14FF0FF340FF6B000F6E622
:10350000D9F80020D21D22F00702C9F80020D2E924
:1035100000010832C9F80020CDE90401C80F02D02B
:1035200009982D210AE0BDF84800810702D50998C5
:103530002B2103E0C00705D5099820211FAA1154AB
:10354000401C0990DDE9042309991FA8CDE92E2329
:1035500008444BF020016129079015AC0BD010995D
:10356000002902D50621109105E001BF4BF0200192
:10357000672901221092DDE9042359004915491CED
:1035800010D11A030ED0ABF1610503211A2D0A9157
:1035900002D20FF6A43101E00FF6A0310322FFF7AB
:1035A0003FFBA8E659004915491C0AD11A0308D166
:1035B000ABF1610503211A2D0A9116D30FF6843160
:1035C000ECE7DDE90401CDE93001DDE9302323F04A
:1035D0000047B7F5801F22F000060DD20022002F11
:1035E00008BF002E029203D116E00FF65431D5E742
:1035F00002AA00F0F9FF0FE0DFF8EC0ADFF8EC1A9E
:1036000000EB17500290DDE930234FF0FF301940F6
:10361000DFF8DC7A10403943CDE904014BF020009B
:1036200061280DD1079830210170821CBBF1610F18
:1036300007920CBF7821582141700998801C09908D
:10364000DDE9040120F0000231F0004308BF002A48
:1036500002D10026002571E14BF02008B8F1610F7E
:1036600040F0BE801098002847BF21210391401CE4
:103670000390039FDDE92E017F1C00220023DDE97A
:10368000044500F0E9FF02998DF8542038BF85F019
:103690000045091F002F02910DF155065DDDDFF891
:1036A000541ACDE9302140F2FF732E93204629466B
:1036B0000022002300F0E8FF4FD24800400D00F147
:1036C0001C0215D0002A13DD2E9B9A420ADBDDE98D
:1036D000300121F0004205F000400243DDE93001F5
:1036E000114611E06FF31E5141EA025120460BE0F2
:1036F00024F0000035F0004108BF00280FBF294624
:103700001C22294600F0D8FF04460D4601F072F84D
:10371000FF1F002F804609DD01F08AF802460B46A4
:103720002046294601F096F804460D46F01D072173
:10373000B8F1000F0CDD491E5EBF08F00F0200F863
:10374000012D4FEA2818F3D502E0002200F8012DE0
:10375000491EFAD5C61D002FA8DC0DF15500361AFA
:1037600003988642D8BF304600280DF1550430D466
:10377000B04206DA0DF155010A5C082AA8BF0F21F4
:1037800000DA0021024615AB134400E0401E13F896
:103790000159521E8D42F9D00F2904D10DF1550166
:1037A0008B5C5B1C8B54002A04D50299091D15AC57
:1037B000401C0291411E0CD46218ABF13A061378FA
:1037C0003033DDB23A2DA8BFF318491E02F8013993
:1037D000F5D51099002940F1AF80421E1092ABE060
:1037E0000299DFF8142947F29750414391FBF2F216
:1037F000DDE92E45029225F00045D2F1070204DDF5
:103800002046294600F04CFC0BE052420020DFF835
:10381000EC1800F045FC02460B462046294601F014
:103820008BF80446B8F1660F109806BF029F0A375E
:1038300006273F18142FC8BF142730208DF85400D6
:103840000D460020DFF8B818CDE92E010DF1550620
:10385000002F33DD2046294601F092F901460A4641
:1038600006F1080304200A26B2FBF6F606EB860EE4
:10387000A2EB4E02303203F8012C0A22B6FBF2F220
:1038800002EB820EA6EB4E063036401E03F8026DA8
:10389000E9D1083F002F03F10806D9DD084601F001
:1038A00083F902460B462046294600F0D3FFDDE9A6
:1038B0002E2301F087F904460D46CBE70DF15500A4
:1038C000361A0DF1550404E00298401E761E02904F
:1038D000641C20783028F7D0B8F1660F02D1029925
:1038E000491C04E0B8F1650F0CBF012100211098BC
:1038F00008188642B8BF701E00281DD4B04204DAF2
:10390000215C3429C8BF392100DC30210246631E06
:103910009D1800E0401E15F80169521E8E42F9D034
:10392000392902D1A15C491CA154002A04D502996D
:10393000491C1C46401C02910646029D00F0DAFD1F
:10394000406A0778DDF8408030B2002802DC0126AA
:103950000FF2F4744BF02000662808BF6D1C16D0DF
:10396000672846D128B210F1040F48DB404546DAFB
:103970009DF848006D1C010703D430B24045B8BF24
:10398000804628B2B8EB000848BF4FF000080FFA95
:1039900085FB07980A99BBF1000F00F3B2804A1C1F
:1039A0000A9230234354B8F1000F03DC9DF848001D
:1039B000010704D50A98411C0A9107990F5418EB86
:1039C0000B0FB8BFC8F100052DB268420D90A84496
:1039D00032B29045B8BF4646079B0A9836B20B965E
:1039E000324621461844FFF71BF9A8EB06000E905B
:1039F000CBE0BBF1610F17D14FF0700B19E030B283
:103A0000404504DA9DF848100A0758BF8046B8F1CF
:103A1000010848BF4FF00008BBF1670F14BF4FF01B
:103A2000450B4FF0650B04E0BBF1410F08BF4FF0B1
:103A3000500B0A98411C0A91B8F1000F079914F82D
:103A4000012B0A5403DC9DF8480001071AD50A9897
:103A5000411C0A91B8F1000F07990F5412DD761E30
:103A600030B2804507980A9BB8BF464632B221461D
:103A70001844FFF7D5F80A9936B271180A91A8EBE5
:103A800006000D9007980A9908442AB2002A80F887
:103A900000B003D42B224270811C04E02D21417020
:103AA0001546811C6D4200202EAA0A2409E02B46EF
:103AB00093FBF4F505EB8506A3EB460302F8013B07
:103AC000401C2DB2002DF2DC012806DC4BF0200258
:103AD000652A04BF302201F8012B00282EAA08D144
:103AE000302001F8010B06E0401E135C303301F872
:103AF000013B0028F8DC079A0A981044091A0B9138
:103B000043E0084431B22AB2914219DA32B2214676
:103B1000FFF786F80A9936B27118ABEB0606B8F1D2
:103B2000000F0A910D9603DC9DF84800020704D5AA
:103B3000079847540B99491C0B91CDF8388024E025
:103B40002146FFF76DF80A98761B5844B8F1000F2C
:103B50000A9003DC9DF848100A0703D5411C0A911E
:103B600007990F5430B2804507980A9BB8BF464664
:103B700032B204EB0B011844FFF752F80A9836B240
:103B800030180A90A8EB06000D909DF8480000F050
:103B9000140010287FF4AFAB099A0A990D988A187F
:103BA0000B9982180E988A18821811988242BFF6D3
:103BB000A2AB821A17E49DF84A00622808D0682850
:103BC0000ED06A2814D06C281FD0712810D01CE0A9
:103BD000D9F8001051F8040BC9F80010C0B21AE06F
:103BE000D9F8001051F8040BC9F8001080B212E0A7
:103BF000D9F80020D21D22F00702C9F80020D2E92E
:103C000000010832C9F8002006E0D9F8001051F888
:103C1000040BC9F800100021CDE904019DF848000B
:103C200001075AD5DDE90423002B08BF002A54D030
:103C30004BF02000782850D109981FA930220A544F
:103C4000401C431C099301F800B046E09DF84A006F
:103C5000622808D068280ED06A2814D06C281FD09B
:103C6000712810D01CE0D9F8001051F8040BC9F8E5
:103C7000001040B21AE0D9F8001051F8040BC9F84E
:103C8000001000B212E0D9F80020D21D22F0070285
:103C9000C9F80020D2E900010832C9F8002006E086
:103CA000D9F8001051F8040BC9F80010C117CDE97C
:103CB0000401002902D509982D210AE0BDF8480029
:103CC000810702D509982B2103E0C00705D5099883
:103CD00020211FAA1154401C09901FA809990144D2
:103CE000079104A8594600F056F9FFF704BB9DF868
:103CF0004A006C280BD001210991D9F8000050F836
:103D0000041BC9F800008DF87C10FFF7F4BAD9F84D
:103D1000000050F8041BC9F8000015914FF0FF3265
:103D200010920021169115AAFFF709BB2521012247
:103D3000BBF1000F8DF87C1009923FF4DCAA8DF8DE
:103D40007DB00221FFF7AABACBCCCC0C686A6C74A8
:103D50007A4C00007072696E74665F733A2062611B
:103D60006420256C7320617267756D656E74000048
:103D70007072696E74665F733A20626164202573A5
:103D800020617267756D656E7400000000000000B0
:103D9000000000007072696E74665F733A20256ED1
:103DA00020646973616C6C6F776564007072696E12
:103DB00074663A2062616420256E20617267756DB9
:103DC000656E740033B0BDE8F08F2DE9FC410F46FD
:103DD000064690467A6B7869396ABC6A121AB869E5
:103DE000521A796A121AF869521A121A97F8380098
:103DF000141B41070FD42020002C8DF800000ADD91
:103E0000254601236A463946304600F07DF90028F0
:103E10005DD16D1EF5D17B6942463946304600F0D2
:103E200073F9002853D130208DF800003D6A002D31
:103E300009DD01236A463946304600F065F900285D
:103E400045D16D1EF5D1BB69FA683946304600F0A0
:103E50005BF900283BD130208DF800007D6A002DF1
:103E600008DD01236A463946304600F04DF970BB43
:103E70006D1EF6D1F868B969FB69421839463046BB
:103E800000F042F918BB30208DF80000BD6A002D0B
:103E900008DD01236A463946304600F035F9B0B9ED
:103EA0006D1EF6D197F8380041070DD52020002C63
:103EB0008DF8000008DD01236A463946304600F0DF
:103EC00023F920B9641EF6D10020BDE8F6814FF039
:103ED000FF30BDE8F6812DE9F8470D46A3B02F6B02
:103EE000002F8246904648BF6FF0004700F03BFF2E
:103EF000696B401801AA0021C2E90011812828BF7E
:103F00004FF0FF3044D289461EE0A74230DB68699B
:103F1000201881280BD30021696303AA2946504643
:103F2000FFF753FF5FEA000922D40020686103AB6A
:103F30006E69224669469819FEF772FEA6196E61EF
:103F400058F8040BA0B13F1B002F11DDD8F800106A
:103F500001AA684600F0CCFA0446002C05D4D8F833
:103F600000000028D1D1641ECFD54FF0FF390EE0FC
:103F7000B9F1000F504604D103AA2946FFF725FFE7
:103F80008146B9F1000F02D100206861686348469C
:103F900024B0BDE8F0872DE9FC4307466F293E6950
:103FA00008BF082405D041F02000782814BF0A2457
:103FB00010243C25D7E90023642918BF69299046BD
:103FC000994605D1002B03D5D8F1000869EB4909C2
:103FD000B9F1000F08BFB8F1000F0CD1386B50B920
:103FE000082C39D197F83800010735D530203B250A
:103FF00086F83B0030E08DF80010404649462246E6
:10400000E31700F0B5FE3032D0B26D1E3A280195AC
:1040100004DB9DF80000A0F151018A18725540465A
:1040200049462246E31700F0A3FE80465FEA0109F5
:1040300008BFB8F1000F03D0F86871198842DCD3CB
:10404000082C09D197F83800010705D5705D302894
:1040500002D06D1E30207055C5F13C02BA61711955
:10406000F960386B824208DA821A3A624FF6EF70D2
:10407000398F01403987BDE8F38300280ED597F8C2
:10408000380000F01400102808D17B6B7969386A79
:104090005B1A1B1A9A1A002AC8BF3A62BDE8F3835A
:1040A0002DE9D04306460F4614464FF00008DFF8CE
:1040B000549012E0E00707D542464B463046394659
:1040C00000F080FD06460F464046494642464B46B4
:1040D00000F078FD641080468946002CEAD1304615
:1040E0003946BDE8D083000002FCFFFFFFFF0F80D0
:1040F0000000E03F0000F07FA08601000000F03FDC
:1041000084D7974100002440F8B505460E4617466F
:104110001C4600205CB117F8011BB068A847B060CE
:1041200030B1F06A401CF0620020641EF3D1F2BD91
:104130004FF0FF30F2BD00006E616E004E414E0048
:10414000696E6600494E460030004300DFF8E41215
:10415000086850F001000860DFF8DC221368DFF81F
:10416000DC02034013600B68DFF8D40203400B60ED
:10417000086830F480200860106830F4FE00106099
:104180005FF41F00DFF8BC1208607047DFF8A4126C
:104190000A6832F480320A600A6832F480220A60C7
:1041A0000200B2F5803F03D0B2F5802F05D009E0C0
:1041B0000A6852F480320A6004E00A6852F4A022CD
:1041C0000A60FFE7704738B5002000900024002502
:1041D000312000F00BF905000098401C0090009879
:1041E0004FF6FF71884203D02800C0B20028EFD0FC
:1041F000312000F0FBF8002801D0012000E0002071
:10420000C0B232BD30B400238B4D2C6834F47C1422
:1042100051EA000214432C6030BC70470100C9B25F
:10422000894A116070470021834B1A6892089200F6
:1042300002431A6070478048006810F00C00704715
:1042400000217D4B1A6832F0F00202431A60704779
:104250000021794B1A6832F4E06202431A60704719
:104260000021754B1A6832F4605252EAC0021A609B
:10427000704776490860704700216F4B1A6832F426
:10428000404202431A6070472DE9F04F01000022BE
:10429000002500200026684FD7F800C01CF00C0C49
:1042A0006346002B04D0042B05D0082B06D023E056
:1042B000684A0A6022E0684A0A601FE03A6812F41D
:1042C00070123B6813F480331800920C921C150096
:1042D000002804D1614A02FB05F20A600BE03A684B
:1042E000920304D55E4A02FB05F20A6003E05A4AD3
:1042F00002FB05F20A6001E0564A0A603C6814F0CD
:10430000F0042409DFF85C9119F804E00A6832FA35
:104310000EF24A603B6813F4E0631B0A19F803804D
:104320004A6832FA08F28A603A6812F46052D20A95
:1043300019F80290D1F804A03AFA09FAC1F80CA0D1
:104340003F6817F44047BF0BDFF81CA11AF807A01D
:10435000D1F80CB0BBFBFAFBC1F810B0BDE8F08F90
:104360000A00D2B2002A04D0404A13680343136003
:1043700003E03E4A13688343136070470A00D2B2D9
:10438000002A04D03A4A13680343136003E0384A12
:1043900013688343136070470A00D2B2002A04D026
:1043A000344A13680343136003E0324A13688343BB
:1043B000136070470A00D2B2002A04D02E4A136854
:1043C0000343136003E02C4A136883431360704770
:1043D0000A00D2B2002A04D0284A136803431360AB
:1043E00003E0264A136883431360704730B401002A
:1043F0000020002300250A00D2B25209D2B2012ABD
:1044000002D10C48046806E0022A02D11048046870
:1044100001E01B4804680B00DBB213F01F0320000F
:10442000D840C00701D5012000E00020C0B230BC58
:104430007047000000100240041002400000FFF826
:10444000FFFFF6FE0810024060004242D8004242E0
:104450002010024000127A00001BB70000093D0046
:10446000808D5B0004000020140000201410024026
:10447000181002401C1002400C10024010100240A4
:10448000241002401C48704770B45368D41801E0EF
:104490005B1C491E042B08DA00291FBF057804F8AD
:1044A000015B10F8016B002EF2D1536070BC7047B5
:1044B00038B514461D4661B1FFF7E6FF61686A6BC7
:1044C000204690476FF00102811A02D0491E01D0A8
:1044D00001E003E005E00021616032BD6FF0010002
:1044E00032BD4FF0FF3032BDDA6B1047024BDFE7D1
:1044F000014BF9E7014870475800002020000020D8
:10450000C9B202788A421AB11CBF10F8012FF9E72C
:1045100018BF00207047000080B500B906A005490B
:104520000B681BB122220021984701E000F038FD02
:10453000222002BD58310020636F6E73747261696E
:104540006E742068616E646C65723A2062616420EA
:104550006D6573736167650000F10103810704D025
:1045600010F8011B820781B1FAD10268A2F1013172
:10457000914311F0803104BF50F8042FF6E709BAD7
:10458000B1FA81F100EBD100401CC01A7047000065
:10459000C9B2830706D0521E22D310F8013B9942BC
:1045A000F7D11FE0083A13D302F1040241EA0121D6
:1045B00041EA014150F8043B121F21BF4B40A3F1D7
:1045C000013C2CEA030C1CF0803FF3D0C9B2001F61
:1045D000083210F8013B521E28BF91EA030FF8D8A9
:1045E00018BF0120401E704710B5144600F002F8B5
:1045F000226010BDC1F30A5343B14A0012F5001FF7
:1046000028D2A3F2FE32A1EB0251704750EA410CCE
:1046100020D001F0004C31EA0C01B1FA81F204BF64
:10462000B0FA80F3D2180B3AB2F120032CBF00FA93
:1046300003F1914041EA0C013EBFC2F1200C20FA87
:104640000CF319439040524240F2FD33D21A01EB71
:1046500003517047002270474FF4001C1CEB410FC0
:1046600094BF1CEB430F09E041EA030C50EA4C0CE9
:1046700052EA0C0C03D2994208BF9042704714BF13
:104680008B428242704700004FF4001C1CEB410F2C
:1046900094BF1CEB430F09E041EA030C50EA4C0CB9
:1046A00052EA0C0C03D28B4208BF8242704714BFFF
:1046B0009942904270470000124254D440F2FF7C6D
:1046C0001CEA11530FD0634531D09B1863453CBFA2
:1046D00001EB0251704701F0004141EA0C5100200A
:1046E000AFF30080704750EA410320D001F0004C46
:1046F00091EA0C011CD0B1FA81F30B3B9A420DD91F
:10470000D21A994051EA0C01C3F1200C20FA0CFC9A
:1047100061449840531C40F2FF7CD7E7914041EA46
:104720000C01C2F1200C20FA0CF3194390407047A1
:10473000B0FA80F31533202BE0D3202AEED3203AB1
:10474000203B9A4209D9D21A00FA03F141EA0C013E
:104750000020531C40F2FF7CB8E700FA02F141EA66
:104760000C0100207047524240F2FF7C1CEA1153BA
:104770000DD06345DBD0B2EB030C3CBFA1EB025183
:1047800070470CF1010221EA035141F4801150EA13
:10479000410CCCD001F0004C352A27DC30B481EA42
:1047A0000C01B2F1200309DAC2F12003044601FA38
:1047B00003F5D0402843D1409C400CE0C3F12002D7
:1047C000450020FA03F418BF44F0010421FA03F075
:1047D00091400C43002174F1004550F1000051EB71
:1047E0000C01244230BC7FF47BAF7047614600204F
:1047F00076E70000C1F30A5340F2FE329B1A14DD43
:10480000D3F120034FEAE17208DDC90241EA5051B9
:1048100041F00040D84080185040704703F2E1302A
:1048200010B1D24382F00040704700207047000072
:10483000C11768B14840401AB0FA80F29040D21CCB
:10484000C907C2F5846241EA025202EBD021400559
:104850007047000070B44FF0004591EA030F40F13B
:10486000A3836B40841A71EB030603D2001BB14192
:10487000121973414FF4001C1CEB410F34BF7CEB49
:10488000430442E00C0DA4EB1356352E4FDC45EAF1
:10489000C323DB0A45EAC121C912B6F120050DDDAB
:1048A00063FA05F6EB4086EA0305124218BF45F0AD
:1048B0000105C01851F100010CD213E062FA06F5AF
:1048C000F2405540F3415A40B340F3405A408018FB
:1048D000594107D349085FEA30005FEA350528BF30
:1048E00045F0010501F58011420875F1004250F1D3
:1048F000000041EB04514E0016F5001F70BC38BF9C
:1049000070470020090D090570471CEB410F10D2BC
:1049100052EA43060BD0BCEB410F05D80C0DAB435C
:10492000661E342EB6DD02E0AB438018594170BCE0
:10493000704770BC70470000F0B540F2FF7581EA27
:10494000030C0CF0004C15EA11541DBF15EA135767
:10495000AC42AF42E5E0BC41C1F31301C3F3130322
:10496000801A994143F4801304D2641E40004941E7
:1049700080185941C90241EA5051B1FBF3F603FBDB
:104980001611A2FB0675D7EBC020A94102D2761EF4
:1049900080185941C90241EA5051B1FBF3FE03FBB3
:1049A0001E11A2FB0E75D7EBC020A94103D2AEF1B8
:1049B000010E80185941890241EA9051760546EA74
:1049C0008E2EB1FBF3F603FB1611A2FB0675D7EB97
:1049D0008020A94102D2761E80185941C90241EABD
:1049E00050514EEA060EB1FBF3F603FB1611A2FB83
:1049F0000675D7EBC020A94102D2761E8018594116
:104A0000C90241EA5051B1FBF3F703FB1711A2FBB6
:104A10000735D3EBC020A94167F100070CBF004266
:104A200047F0010766F3D5274FEA1E31B80814F5A1
:104A3000806412DDBD0775F1004250EB0E5051EB62
:104A4000045111F5801F5CBF41EA0C01F0BD4CF030
:104A50007F6141F0E0410020F0BDBD076D0840EAF4
:104A60000E5041F48011D4F10104B4F120060ADAA9
:104A7000C4F120060200E04001FA06F3E1401843C9
:104A8000B24015430EE0342C13DCC6F1200445EA95
:104A900040056D0820FA06F2154321FA06F0A14000
:104AA0000D43002175F1004250F1000051EB0C0163
:104AB000F0BD00205FEA0C01F0BDCFB992185B4158
:104AC000B3FA83F704BFB2FA82F6BF190B3FB7F10E
:104AD00020062FBF02FA06F3BB40C7F1200622FAD8
:104AE00006F638BF3343BA401CB1E419641E33E7FD
:104AF0007F4231F00041B1FA81F404BFB0FA80F690
:104B0000A4190B3CB4F120062FBF00FA06F1A14016
:104B1000C4F1200620FA06F638BF3143A0403C1B02
:104B20001AE7AC421ABF05EA1357AF4212E050EA47
:104B300041061CBF52EA4306BFE750EA4107304630
:104B400061461CBF41EA0551F0BD52EA430C08BF63
:104B5000C143F0BD00204FF4001616EB410F98BF83
:104B600016EB430F08BF16EB410F24BFC14305E00E
:104B700016EB430F0CBF61464CEA0551F0BD000037
:104B8000400D491840EA81200CD2490DA1F5806101
:104B9000491C40F0004005DBD1F11F0154BFC84063
:104BA000C017704700207047014648B1B0FA80F145
:104BB0008840C91CC1F58461090501EBD02140057D
:104BC00070470000B0B581EA030C0CF0004C40F2D5
:104BD000FF7515EA11541DBF15EA1357AC42AF42D9
:104BE00039E0E41923EA455343F48013C90241F044
:104BF000004141EA505EC7021100A7FB02020028F3
:104C00004FF00000EEFB01204FF00001E3FB072115
:104C100018BF42F00102401800214941E3FB0E0198
:104C2000A4F580640F0302D252004041494154F17F
:104C300001046CDD470872F1004250F1000051EBB5
:104C40000451A1F580115CBF41EA0C01B0BD4CEAF2
:104C500005510020B0BD05EA1357AC4214BFAF4266
:104C600041E050EA410E1CBF52EA430E02E06146A9
:104C70000020B0BD24423C441BD15FEA070EF6D0B1
:104C8000090302BF01460020AEF1140EB1FA81F70C
:104C9000AEEB070401FA07FE0C37C7F1200100FA5A
:104CA00007F7C8404EEA000E23EA455343F4801349
:104CB000A2E733F00043B3FA83F704BFB2FA82FEEF
:104CC00077440B3FE41BB7F1200E2FBF02FA0EF31F
:104CD000BB40C7F1200E22FA0EFE38BF43EA0E0396
:104CE000BA40641C82E750EA410E14BF52EA430EF8
:104CF0006FF000014FF4001717EB430F8ABF1946FE
:104D000017EB410FB5E74CEA05510020B0BDD4F1D7
:104D10000104B4F120070FDAC4F12007520828BFBC
:104D200042F0010210FA07F501FA07F7E1BF2A4342
:104D3000E0403843E1400FE0352C98DCC7F1200417
:104D400052EA400220FA07F218BF42F0010231FA9B
:104D500007F0A1400A43002172F1004250F1000027
:104D600051EB0C01B0BD80B5FFF78CFB006C02BDB0
:104D7000BBBBE1B1B2F5803F80F07E80022A1ED934
:104D80008C46B1FBF2F102FB11C31B0443EA104352
:104D9000B3FBF2FC02FB1C3380B240EA0343B3FBDB
:104DA000F2F002FB103240EA0C4000237047022A66
:104DB00005D98446B0FBF2F002FB10C270474AB13D
:104DC00005D100F0010249085FEA30007047002277
:104DD0000023704700F09EB90B0002000021002064
:104DE0007047904271EB030CF6D3B3F5803F2FD29E
:104DF000F0B5B3FA83F7B1FA81F4A7F10F0E3D1BBA
:104E00005340CEF1200602FA0EF2F3415340B5F1C1
:104E10000F0746D80F3C2C444140C4F12006A04067
:104E2000F1414140B1FBF3F603FB1611A2FB06452D
:104E3000001BA94102D2761E8018594180EA010266
:104E400021FA0EF362FA0EF200215A403046F0BD0C
:104E500030B4B1FBF3FC03FB1C11A2FB0C45001B9F
:104E6000A94103D2ACF1010C8018594130BC024673
:104E70000B46604600217047B2F1807F65D3F0B5E4
:104E8000B2FA82F7B1FA81F4C7F10F063D1B22FA9C
:104E900006F307F1110EF24120355A40B5F10F0724
:104EA000B8D94140C4F12006A040F1414140B1FBD6
:104EB000F3FC03FB1C11A2FB0C45001BA94103D210
:104EC000BCF1010C801859410F2F12D30F3FC903B9
:104ED00041EA5041B1FBF3F603FB1611A2FB064574
:104EE000D4EBC030A94102D2761E8018594146EA5F
:104EF000CC3C07B34140C7F12006B840F1414140E6
:104F0000B1FBF3F603FB1611A2FB0645001BA941FA
:104F100002D2761E8018594180EA010221FA0EF36E
:104F2000C7F1200462FA0EF20CFA07F05A402CFA8C
:104F300004F13043F0BD80EA010221FA0EF30021B2
:104F400062FA0EF260465A40F0BD8C46B1FBF2F1B7
:104F500002FB11C31B0243EA1063B3FBF2FC02FB2A
:104F60001C331B024CEA002043EA1063B3FBF2FC43
:104F700002FB1C331B024CEA002043EA1063B3FB24
:104F8000F2FC02FB1C331B024CEA002043EA1063D4
:104F9000B3FBF2FC02FB1C324CEA002000237047FA
:104FA000012000F0B9B80000841A71EB030604D2A6
:104FB0006E40001BB141121973414FF4001C1CEBF1
:104FC000410F34BF7CEB430683E00C0DA4EB13567A
:104FD000362E00F37C80012E45EAC32341DC43EAF0
:104FE000525312BFD20292025B08240545EAC12146
:104FF00041EA5051D2EBC020994125D407D1B0FAF3
:1050000080F610FA06F162D00020203608E0B1FAEE
:1050100081F6B140C6F1200220FA02F21143B040FD
:105020004FEAF474B4EB465434F001064FEA7404CA
:105030000AD8D6F50016760D04F00044F04061FA67
:1050400006F25040F1404840C00A40EA415021F089
:10505000004128BF5FEA500550F1000044EBD12128
:1050600035E0DB0A45EAC121C90AB6F120050EDDAB
:1050700042EA0242120CC5F1200603FA06F6EB40A2
:1050800042EA06056D42984161F100010DE062FAC5
:1050900006F5F240554063FA06FC82EA0C02F34042
:1050A0005A406D42904161EB030111F4801F05D11C
:1050B000641E620502D06D004041494121F4801117
:1050C000430875F1004350F1000041EB045170BCFE
:1050D00070471CEB410F15D223F0004352EA430600
:1050E0000BD04FEA4C0CBCEB410F04D80C0D661EE4
:1050F000342EB7DDEBE7801A994150EA410608BF2C
:105100000021E4E708BF1CEB430F28BF6FF000014C
:10511000DDE700007047000080B5AFF30080024A71
:1051200011001820ABBEFBE7260002007047FEE727
:10513000FEE7FEE7FEE7704710B500244020FDF7CC
:10514000F4FA012827D140213E48FDF732FA002821
:105150001BD13D480188491C01803C48FDF7A6FC55
:105160003B480068FBF7A3F90400012C09D1002C8F
:1051700007D05FF0805037490860BFF34F8FBFF30F
:105180006F8F00203449087002E001203249087016
:105190004020FDF7DDFA10BD5FF400302F490860B4
:1051A0002F4801684908490001602E482E490968C6
:1051B000D1F50871418001210170704780B5FDF77C
:1051C00023FC5FF40030254908604FF4087026493D
:1051D00008602348016851F0010101600020234963
:1051E000087101BD22480188C90610D55FF400315D
:1051F0001A4A11601A490A68520852000A6019498D
:10520000194A1268D2F508724A8002220A70008890
:10521000184908801848008818490880704780B5E8
:1052200001215FF08040FDF7C2FC012808D114483D
:105230000168491C016001215FF08040FDF7CEFC50
:1052400001BD0000000801405C310020A8560008A4
:10525000C430002004ED00E0623100200400024070
:10526000580002407C2D00205C000240542B00209E
:10527000003801405E3100200438014060310020D8
:10528000D03000204FF4C0414843401C0100481E6C
:105290000029FBD1704738B50024FEF757FF5FF4B3
:1052A0008030FEF773FFFEF78EFF05002800C0B2C6
:1052B00001282BD10020FEF7C3FF0020FEF7D0FF0E
:1052C0004FF48060FEF7C4FF4FF44040FEF7D4FF78
:1052D0000020FEF7CEFF022000F05CF8102000F066
:1052E00062F85FF480115FF48030FEF78BFF0120DD
:1052F000FEF794FF3920FFF779F80028FAD0022052
:10530000FEF791FFFEF797FF0828FBD131BD10B5DE
:1053100004002100C9B20120FFF722F82100C9B220
:105320000720FFF739F82100C9B244F21D20FFF72A
:1053300025F810BD80B500215FF00060FDF74EFA42
:105340004FF4A060FDF712FA01BD80B5FFF7A3FF8F
:10535000FFF7F0FF0120FFF7DAFF4FF44070FDF791
:1053600005FA00F02DF84FF4FA70FFF78BFF4FF4B9
:10537000FA70FFF787FF4FF4FA70FFF783FF4FF4DF
:10538000FA70FFF77FFF72B6FCF7CCFBFCF7B1FCBD
:1053900062B601BD0021DFF824301A6812F038022D
:1053A00002431A607047DFF814100A6832F01002E6
:1053B0000A600A6802430A60704700000020024049
:1053C00080B50F48FDF71EFA0120FDF782FA4FF471
:1053D00008710C48FDF794FA4FF408710A48FDF77C
:1053E000C8FA5FF40030094908604FF408700849B2
:1053F00008600848016851F00101016001BD00002A
:1054000080841E005C2B0020802D002004000240C0
:105410005C0002405800024080B53D49086850F0E9
:10542000010008603B4A13683B48034013600B6867
:105430003A4803400B60086830F480200860106828
:1054400030F4FE0010605FF41F003549086000F082
:1054500001F801BD80B500F001F801BD82B0002067
:105460000190002000902A49086850F480300860BC
:10547000086810F4003000900198401C01900098DA
:10548000002804D101984FF6FF729042F0D10868CD
:10549000800302D50120009001E0002000900098D8
:1054A000012831D11F48026852F0100202600268E0
:1054B000920892000260026852F0020202601548EF
:1054C0000268026002680260026852F48062026050
:1054D000026832F47C120260026852F4A022026078
:1054E0000A6852F080720A600A689201FCD501686D
:1054F000890889000160016851F0020101600168BA
:1055000011F00C010829FAD102B070470000000028
:1055100000100240041002400000FFF8FFFFF6FEFA
:105520000810024000200240F0B40246106895685E
:105530001318506803EB5004C0071CD54D441AE003
:1055400013F8017B05F8017B491EF9D198B113F8D6
:10555000011BC6F38106032E08BF13F8016B01EB94
:1055600006214942801C294405D011F8016B05F839
:10557000016B401EF9D1A3420ED013F8016B16F057
:10558000030104BF13F8011BC91C30090F28DBD12C
:1055900013F8010B0F30D7E7F0BC02F10C00704795
:1055A000E0B5FFF7D2FE002001900120009000231B
:1055B000802204490448FAF7BBFDFAF7DCFF00201B
:1055C0000EBD00BFF8560008011C000810B50749C1
:1055D00079441831064C7C44163404E00A68081DEE
:1055E000114488470146A142F8D110BD08000000CF
:1055F00024000000F3D5FFFF7C300000E80000200D
:105600000000000025FFFFFF58020000C600000058
:105610000000002000F00DF8002801D0FFF7D6FFB1
:10562000AFF300800020AFF30080FFF7B9FF00F078
:1056300002F80120704700F001B800000746384624
:10564000FFF76AFDFBE700004465766963655F5418
:1056500061736B4E6F746963655461736B310000E5
:105660004465766963655F5461736B4E6F746963FB
:10567000655461736B3200004465766963655F54FD
:1056800061736B4E6F746963655461736B330000B3
:105690005461736B2054616B65204F6B2C204E75E9
:1056A0006D203A2025640000495352204F502C2091
:1056B000526573756D65205461736B320D0A00007D
:1056C00038B504460D46284600F006F8A84218BF33
:1056D0000024204632BD00000149FCF788BA00BF13
:1056E000A000002073656D6170686F726520637241
:1056F00065617420657272004465766963655F5404
:1057000061736B437265617400000000014880475B
:105710000148004719540008295700086E6F746942
:105720006365203A20256400AFF30080AFF300806A
:10573000FFF770FF000C014000080000000C014062
:105740000010000000080140400000000008014077
:1057500000020000000801400004000000080140B1
:105760000008000049444C4500000000546D7220C0
:1057700053766300546D7251000000000800000071
:10578000F0E300E0FFF7FEBFFFF7FEBFFFF7FEBF4D
:10579000FFF7FEBFFFF7FEBFFFF7FEBFFFF7FEBF3D
:1057A000FFF7FEBFFFF7FEBFFFF7FEBFFFF7FEBF2D
:1057B000FFF7FEBFFFF7FEBFFFF7FEBFFFF7FEBF1D
:1057C000FFF7FEBFFFF7FEBFFFF7FEBFFFF7FEBF0D
:1057D000FFF7FEBFFFF7FEBFFFF7FEBFFFF7FEBFFD
:1057E000FFF7FEBFFFF7FEBFFFF7FEBFFFF7FEBFED
:1057F000FFF7FEBFFFF7FEBFFFF7FEBFFFF7FEBFDD
:10580000FFF7FEBFFFF7FEBFFFF7FEBFFFF7FEBFCC
:10581000FFF7FEBFFFF7FEBFFFF7FEBFFFF7FEBFBC
:10582000FFF7FEBFFFF7FEBFFFF7FEBFFFF7FEBFAC
:10583000FFF7FEBFFFF7FEBFFFF7FEBFFFF7FEBF9C
:10584000FFF7FEBFFFF7FEBFFFF7FEBFFFF7FEBF8C
:10585000FFF7FEBFFFF7FEBFFFF7FEBFFFF7FEBF7C
:1058600012AA0112000120020102030404100B0617
:105870000708090204060800A24A041E19F00207DC
:10588000164500080452FF01E3062F14100500001E
:105890004A4100080140322003F115012002D92CB1
:1058A00000082C43C72C3C2101100702040101A071
:1058B0002F0020F00452A004211B610812E460F2C2
:0358C00012D0649F
:04000005080057296F
:00000001FF
