:020000040800F2
:10000000183A0020B9270008992500089B25000808
:100010009D2500089F250008A1250008000000007C
:100020000000000000000000000000006B16000847
:10003000A32500080000000025160008391200085A
:100040000D280008112800081528000819280008A4
:100050001D28000821280008252800082928000854
:100060002D28000831280008352800083928000804
:100070003D28000841280008C9250008A5250008DA
:1000800045280008492800084D2800085128000884
:1000900055280008592800085D2800086128000834
:1000A00065280008692800086D28000871280008E4
:1000B00075280008792800087D2800088128000894
:1000C00085280008892800088D2800089128000844
:1000D00095280008F1250008992800089D280008A7
:1000E000A1280008A5280008A9280008AD280008B4
:1000F000B1280008B5280008B9280008BD28000864
:10010000C1280008C5280008C9280008CD28000813
:10011000D1280008D5280008D9280008DD280008C3
:10012000E1280008E5280008E9280008ED28000873
:100130002DE9F14F84B00E0017009846380080B2C8
:10014000800000F02BFE0500002D15D0602000F08F
:1001500025FE0400002C0BD05FF060095FF0000A60
:10016000A34652464946584600F04AFF256304E03C
:10017000280000F09DFE00E00024002C12D000209A
:10018000039002940F9801900E98009043463A0015
:1001900092B23100049800F00AF8200000F077F8DD
:1001A000012001E05FF0FF3005B0BDE8F08F2DE9E0
:1001B000F94F81B00C0016000C9F0D9DDDF83880C2
:1001C000B00000905FF0A50BD8F830A05A46009917
:1001D000504600F015FFD8F8300000EB8600B0F173
:1001E000040A5FEADA0A5FEACA0A1AF0070000287E
:1001F00007D0502080F31188BFF34F8FBFF36F8F6C
:10020000FEE7002C14D000208146B9F1140F0CD267
:1002100014F8090008EB090181F8340014F809000A
:10022000002802D019F10109EFE7002088F8470003
:100230001F2F07D3502080F31188BFF34F8FBFF3D8
:100240006F8FFEE71F2F01D31E200700C8F82C7008
:10025000C8F8507018F1040000F014FF18F11800ED
:1002600000F010FFC8F81080D7F11F00C8F8180080
:10027000C8F82480029A0199504600F041FFC8F85E
:100280000000002D01D0C5F80080BDE8F78F70B5E3
:10029000040000F0A1FFDFF8AC130868401C086000
:1002A000DFF8A4532868002806D12C6008680128CC
:1002B0000DD100F00DFC0AE0DFF890030068002883
:1002C00005D1E06A2968C96A884200D32C60DFF84A
:1002D00080030168491C01600068A064DFF87413A2
:1002E0000A680123E06A83401A430A601420DFF899
:1002F0006813E26A42430A445668A660B268E26044
:10030000221DB3685A60221DB260E26A42430A4469
:100310006261E26A4243E36A00FB03F00858401C52
:10032000885000F073FFDFF82403006800280DD028
:100330002868C06AE16A884208D25FF08050DFF81E
:1003400058150860BFF34F8FBFF36F8F70BD70B546
:10035000040000F041FF002C03D1DFF8EC02056837
:1003600000E02500281D00F0B7FE00280FD1DFF8BF
:10037000E812EA6A142042438858002807D1DFF8BF
:10038000D4120A680123E86A83409A430A60A86A83
:10039000002803D015F1180000F09EFEDFF8B0022F
:1003A0000168491C0160DFF8A062306885420AD10B
:1003B000291DDFF8300400F068FEDFF82C04016826
:1003C000491C016006E0DFF87C020168491E0160FB
:1003D00000F0D3FB00F01AFF3068854202D02800FD
:1003E00000F0C2FBDFF864020068002818D0306813
:1003F000854215D1DFF89C040068002807D0502002
:1004000080F31188BFF34F8FBFF36F8FFEE75FF06C
:100410008050DFF884140860BFF34F8FBFF36F8FF5
:1004200070BD38B505000024002D15D0DFF8640438
:100430000068002807D0502080F31188BFF34F8F49
:10044000BFF36F8FFEE700F04FF80021280000F0A7
:100450003BFC00F04FF80400002C08D15FF0805006
:10046000DFF834140860BFF34F8FBFF36F8F31BDD7
:100470001CB5DFF84C0701900020009000234FF4DA
:100480008072DFF840170FF22160FFF751FE040081
:10049000012C02D100F00AFF0400012C15D15020DC
:1004A00080F31188BFF34F8FBFF36F8F5FF0FF3082
:1004B000DFF8141708600120644908600020DFF8A5
:1004C000DC13086000F041FE0AE014F1010F07D1CF
:1004D000502080F31188BFF34F8FBFF36F8FFEE77B
:1004E000DFF8A807006813BDDFF8A8030168491CFE
:1004F00001607047F8B500250026DFF898432068B2
:10050000002807D1502080F31188BFF34F8FBFF32D
:100510006F8FFEE700F060FE2068401E20602068BC
:10052000002840F0848047480068002800F07F8061
:10053000DFF868160868002853D0C868C06805004E
:10054000A86A296AEA699160E9692A6A5160416882
:1005500015F11802914201D1296A41600021A96276
:100560000168491E01606869E968AA689160A96824
:10057000EA68516041682A1D914201D1E9684160F1
:10058000002169610168491E016032490A6801233E
:10059000E86A83401A430A602F481421EA6A4A43F2
:1005A00002445268AA609368EB602B1D94686360F4
:1005B0002B1D9360EB6A4B4303446B61EB6A4B4327
:1005C000EC6A01FB04F14158491CC150E86A1E491C
:1005D0000968C96A8842ABD30120DFF88815086032
:1005E000A6E7002D01D000F0C8FADFF8A4763C6839
:1005F000002C0CD000F032F8002803D00120DFF8E6
:1006000064150860641E002CF4D100203860DFF807
:100610005405006800280AD0012006005FF08050D1
:10062000DFF874120860BFF34F8FBFF36F8F00F0D5
:10063000EDFD3000F2BDDFF864020068704701484C
:1006400000687047CC2F0020BC2F0020D82F00203E
:10065000E82F0020D42F00200C2800202DE9F041A5
:1006600000278C480068002840F0B4808B4804685C
:10067000641C0460002C1AD19F4908680068002897
:1006800007D0502080F31188BFF34F8FBFF36F8FD7
:10069000FEE7D1F80080994802680A60C0F800803F
:1006A000DFF8F0050168491C016000F066FADFF828
:1006B00018150868844278D38F4A106800680028AB
:1006C00003D15FF0FF3008606FE01068C068C06859
:1006D000050068680600B44201D20E6065E06869F2
:1006E000EA68AB689A60AA68EB685A6042682B1D9A
:1006F0009A4201D1EA68426000226A610268521E91
:100700000260A86A002812D0A86A2A6AEB699A6077
:10071000EA692B6A5A60426815F118039A4201D1BE
:100720002A6A42600022AA620268521E0260DFF852
:10073000682513685FF0010CE86A1CFA00FC5CEAAB
:1007400003031360DFF854051422EB6A5343034498
:100750005B68AB60D3F808C0C5F80CC015F1040C99
:10076000D3F808E0CEF804C015F1040CC3F808C0B3
:10077000D5F82CC002FB0CFC8444C5F814C0D5F895
:100780002CC002FB0CFCD5F82CE002FB0EF28258C8
:10079000521C40F80C20DFF808050068C06AEA6ABD
:1007A000904289D20120070086E7DFF8F404006850
:1007B000DFF8E814C26A142042438858022801D3A3
:1007C00001200700DFF89C030068002807D0012003
:1007D000070004E0DFF8B8040168491C0160380034
:1007E000BDE8F081402F0020C82F00202948006874
:1007F000002804D00120DFF86C1308602EE00020F0
:10080000DFF860130860DFF890040068B0FA80F148
:10081000D1F11F011422DFF8843402FB01F01858D3
:10082000002807D1502080F31188BFF34F8FBFF30A
:100830006F8FFEE702FB01F203EB02004268526891
:100840004260426810F108039A4202D1426852683D
:1008500042604068C068DFF848241060704738B5CF
:1008600004000D00002C07D1502080F31188BFF345
:100870004F8FBFF36F8FFEE7DFF82404006810F19D
:100880001801200000F00DFC0121280000F01CFAE6
:1008900031BD0000F42F002004ED00E0D02F002037
:1008A00070B504000E001500002C07D1502080F315
:1008B0001188BFF34F8FBFF36F8FFEE76068DFF8DB
:1008C000E0130A68D06182680B681A620A681832FD
:1008D00083685A600A681832826009688C622168ED
:1008E000491C2160002D02D05FF0FF300600290076
:1008F000300000F0E9F970BDC02F0020C42F0020A7
:1009000070B40200D068C168002907D1502080F37C
:100910001188BFF34F8FBFF36F8FFEE7886A0B6AB2
:10092000CC69A360CB690C6A6360436811F1180459
:10093000A34201D10B6A436000238B6203685B1EF4
:100940000360DFF860030068002835D14869CB6890
:100950008C68A3608B68CC68636043680C1DA342FD
:1009600001D1CB68436000234B6103685B1E0360C9
:10097000DFF824331C680125C86A85402C431C60BD
:10098000DFF818031423CC6A5C43044464688C6069
:10099000A568CD600D1DA66875600D1DA560CD6AAA
:1009A0005D4305444D61CD6A5D43CE6A03FB06F3AA
:1009B000C3585B1C435110E0DFF8E0315868C86150
:1009C00084680C6211F1180485686C6011F11804D8
:1009D00084608B621C68641C1C60DFF8C4020068C1
:1009E000C06ACB6A984205D201200123DFF8744126
:1009F000236000E0002070BC7047DFF8981209689F
:100A00000160DFF8A4120968416070472DE9F041E8
:100A100004000D00002C07D1502080F31188BFF393
:100A20004F8FBFF36F8FFEE7002D07D1502080F36B
:100A30001188BFF34F8FBFF36F8FFEE700F0CCFB41
:100A4000DFF8640206686768F71B286810F1010F79
:100A500002D15FF000081DE0DFF83802006821686D
:100A6000884207D06068864204D35FF00108002006
:100A700028600FE02868874208D22868C01B2860D9
:100A80002000FFF7BAFF5FF0000803E000202860B5
:100A90005FF0010800F0BAFB4046BDE8F08101209C
:100AA000304908607047000010B5040000F03AF8C3
:100AB000DFF8E80100680228F8D35FF080500349AE
:100AC0000860BFF34F8FBFF36F8FEFE704ED00E0D7
:100AD00070B500241F2C09D2DFF8C001142101FBDE
:100AE00004F1084400F0BFFA641CF3E7DFF8BC51DE
:100AF000280000F0B8FADFF8B861300000F0B3FA6F
:100B0000264800F0B0FADFF8AC0100F0ACFADFF8EC
:100B1000A80100F0A8FADFF8A4010560DFF8A00141
:100B2000066070BD38B5DFF89C512868002817D0E2
:100B300000F052FBDFF87C01C068C0680400201D93
:100B400000F0CAFADFF828020168491E016028682F
:100B5000401E286000F05AFB200000F005F8E2E794
:100B600031BD0000E02F002010B50400206B00F024
:100B70009FF9200000F09CF910BDDFF840110868D3
:100B80000068002804D15FF0FF300F49086004E0DE
:100B90000868C06800680C49086070472C2F002066
:100BA000DFF8D4010068002801D1012007E0DFF858
:100BB000CC010068002801D1022000E0002070472D
:100BC000F02F0020F0270008EC2F0020F8B50400DB
:100BD00025000026002C57D0DFF8C40000688542AD
:100BE00007D0502080F31188BFF34F8FBFF36F8F72
:100BF000FEE7686D002807D1502080F31188BFF30D
:100C00004F8FBFF36F8FFEE7686D401E6865E86A1F
:100C1000296D884238D0686D002835D1281D00F034
:100C20005BFA002806D11C490A680123E86A834060
:100C30009A430A60286DE862E86AD0F11F00A86153
:100C400015490A680123E86A83401A430A601420A0
:100C5000DFF83011EA6A42430A445268AA60936896
:100C6000EB602B1D97687B602B1D9360EB6A434301
:100C70000B446B61EB6A4343EF6A00FB07F00858D3
:100C8000401CC850012006003000F2BD08000020C2
:100C9000DC2F0020E42F0020D42F00200C2800207F
:100CA000BC2F0020F42F0020D02F0020042F002084
:100CB000182F0020402F0020542F0020C02F00208C
:100CC000C42F0020C82F00202DE9F04105000C00A2
:100CD0002D480768DFF89C80D8F80000001D00F060
:100CE000FBF9002808D1D8F8000025490A6801233B
:100CF000C06A83409A430A6015F1010F1AD1002C93
:100D000018D022484168D8F8002091608A68D8F845
:100D10000030DA60D8F80020121D8B685A60D8F8CD
:100D20000020121D8A60D8F8002050610268521C11
:100D300002601AE0E8190600D8F800004660BE42DA
:100D400007D2D8F80000011D1148006800F0A9F989
:100D50000BE0D8F80000011D0E48006800F0A1F972
:100D60000D4801688E4200D20660BDE8F0810000A7
:100D7000CC2F0020BC2F0020D82F0020F42F0020E3
:100D8000D42F00200C280020D02F0020542F00202A
:100D9000C42F0020C02F0020EC2F00202DE9F84F99
:100DA00004005FF00009FFF79FFBDFF834A2DAF8D8
:100DB0000000002801D100F0B6F8002C0FD08948BF
:100DC0000168083114F00700091A0D005FF0FF30C8
:100DD000401BA04201D32C1901E000200400002C8C
:100DE00055D4002C53D0DFF800B2DBF80000A0424D
:100DF0004DD37E480700006806007068A04205D207
:100E00003068002802D037003668F6E7DAF80000CC
:100E100086423CD07348396802681144894631687B
:100E20003960006840007168091B884216D206EBE1
:100E30000400804618F00700002807D0502080F3F7
:100E40001188BFF34F8FBFF36F8FFEE77068001BF1
:100E5000C8F804007460404600F092F8DBF8001017
:100E60007068091ACBF800106148DBF800100268BE
:100E7000914202D2DBF800100160706850F000402F
:100E80007060002030605B480168491C0160FFF71A
:100E900031FB19F00700002807D0502080F311889B
:100EA000BFF34F8FBFF36F8FFEE74846BDE8F28F69
:100EB00070B504002600002C34D04A480068404237
:100EC000064435006868002807D4502080F3118854
:100ED000BFF34F8FBFF36F8FFEE72868002807D05E
:100EE000502080F31188BFF34F8FBFF36F8FFEE761
:100EF0006868002816D52868002813D1686820F093
:100F000000406860FFF7F0FA37490A68686882189D
:100F10000A60280000F034F837480168491C016075
:100F2000FFF7E8FA70BD70B44FF420523348010067
:100F300011F0070F04D0C91DC908C900521A821840
:100F40000B002A48036000244460D4182548006838
:100F5000241AE408E400224D2C6000202E68706002
:100F600000202E6830601800261A46602D68056043
:100F700045681F4E356045681B4E356070BC704734
:100F800030B41A4A1168814201D21268FAE714009B
:100F900051682144814204D153684168CB185360A1
:100FA00010000300416819441568A94210D10C498A
:100FB00014680D68AC4208D04468116849680C197F
:100FC000446011680968016004E00968016001E09B
:100FD00011680160824200D0106030BC7047000090
:100FE000A42F002008280008A82F0020902F002000
:100FF000AC2F0020B02F0020B42F00200C000020C8
:1010000062F30F2262F31F42401810F0030308D06E
:10101000C91A1FD3DB0748BF00F8012D28BF20F8ED
:10102000022D130030B414461546103928BF20E9AC
:101030003C00FAD8490728BF20E90C0048BF40F817
:10104000042D890028BF20F8022D48BF00F8012D8B
:1010500030BC7047C91818BF00F8012DCB0728BF56
:1010600000F8012D704710F1080141605FF0FF3179
:10107000816010F10801C16010F1080101610021D7
:101080000160704700210161704742684A609368BF
:101090008B60936859609160086103685B1C036012
:1010A000704710B40B6813F1010F01D1026907E01A
:1010B00010F1080254682468A34201D35268F9E78A
:1010C00054684C604C68A1608A6051600861046893
:1010D000641C046010BC7047010008698A684B6892
:1010E0009A604A688B685A6042688A4201D18A686D
:1010F000426000220A610268521E02600068704766
:10110000001F5FF080730360001F4B085B000360EB
:10111000001F0FF20D03036014380260203870477F
:101120004F48006810F1010F07D0502080F311885C
:10113000BFF34F8FBFF36F8FFEE7502080F311880E
:10114000BFF34F8FBFF36F8FFEE7E0B545480178DF
:101150000191FF21017001788DF800109DF80010B9
:1011600011F05001404A1170404907220A609DF871
:101170000020120608D50A68521E0A609DF8002059
:1011800052008DF80020F2E70A68D2F10702042A23
:1011900007D0502181F31188BFF34F8FBFF36F8FBA
:1011A000FEE70A6812020A600A6812F4E0620A6046
:1011B000019901702E48016851F07C71016001684D
:1011C00051F07041016000F057F800202449086098
:1011D00000F05BFA00200EBD502080F31188BFF3B1
:1011E0004F8FBFF36F8F1E490A68521C0A6009684F
:1011F00001290AD11F490968090606D080F3118820
:10120000BFF34F8FBFF36F8FFEE770471449086835
:10121000002807D1502080F31188BFF34F8FBFF310
:101220006F8FFEE70868401E08600868002802D13A
:10123000002080F31188704780B5502080F311881A
:10124000BFF34F8FBFF36F8FFFF708FA002803D06B
:101250005FF0805007490860002080F3118801BDCD
:101260000000002000E400E010300020B82F002033
:1012700020ED00E004ED00E00848002101600021BD
:10128000074A1160074909684FF47A72B1FBF2F11D
:10129000491E054A116007210160704710E000E017
:1012A00018E000E00400002014E000E01CB5002479
:1012B00000F080F9DFF84403006800280ED0DFF862
:1012C000400301900220009000234FF40072DFF8E9
:1012D00034130FF28900FEF72BFF0400002C07D116
:1012E000502080F31188BFF34F8FBFF36F8FFEE75D
:1012F000200016BD70B504000D0016002B00320052
:10130000A1694919200000F093F8002805D0A069D0
:1013100045192000216A8847F0E770BD70B50400C8
:101320000D00B9480068C068C668301DFFF7D4FEDC
:1013300096F82800400705D52A0021003000FFF765
:10134000D9FF05E096F8280010F0FE0086F8280086
:101350003000316A884770BD0000000038B50400D5
:10136000684600F03FF805000099280000F003F8F7
:1013700000F086F8F4E77CB505000C00FFF7B4F840
:10138000684600F042F806000098002827D1002C9B
:1013900008D1AE4206D3FFF7ADF831002800FFF7C1
:1013A000BDFF1EE0002C07D09848006800680028A8
:1013B00001D1012400E000242200A91B8F4800680D
:1013C00000F0CEFBFFF796F800280AD15FF08050BE
:1013D0008F490860BFF34F8FBFF36F8F01E0FFF7B6
:1013E00089F873BD0100884A10680068002801D19F
:1013F000012000E0002008600868002803D1106880
:10140000C068006800E00020704770B50400FFF776
:1014100012F905007F4E3068854204D200F0B4F81E
:101420000120206001E0002020603560280070BDB0
:101430002DE9F04104000D0016001F005FF00008C8
:1014400065602461AE420CD3F01BA169884202D3CF
:101450000120804611E0211D6C480068FFF721FE45
:101460000BE0BE4204D2BD4202D30120804604E01C
:10147000211D65480068FFF714FE4046BDE8F08175
:1014800038B584B0002269465C48006800F0C7F9AE
:10149000002877D000980028F4D4029804006069EE
:1014A000002802D0201DFFF717FE03A8FFF7ADFFAD
:1014B0000500009801280DD063D3032830D009D34C
:1014C00005284FD033D3072804D003D309282ED0C2
:1014D00026D356E094F8280050F0010084F8280044
:1014E000019B2A000199A06941182000FFF7A0FF85
:1014F000002814D094F82800400707D52A00019945
:10150000A06941182000FFF7F5FE05E094F82800D7
:1015100010F0FE0084F828002000216A8847B1E717
:1015200094F8280010F0FE0084F82800AAE794F848
:10153000280050F0010084F828000198A061A069FB
:10154000002807D1502080F31188BFF34F8FBFF3DD
:101550006F8FFEE72B002A00A16949192000FFF7D1
:1015600067FF8FE794F82800800703D42000FFF777
:101570009FFC05E094F8280010F0FE0084F8280095
:1015800080E77FE705B030BD10B51F4908680068E7
:10159000002809D00868C068006804005FF0FF31C7
:1015A0002000FFF7BBFEF0E70868184A13680B60DD
:1015B000106010BD70B5FFF70FFE104C20680028BA
:1015C00018D1154D2800FFF74EFD144E3000FFF7DF
:1015D0004AFD0D4805600D48066000220C210520DB
:1015E00000F0C9F820602068002803D00C4920686A
:1015F00000F087FAFFF70AFE70BD000000300020FF
:1016000004300020F8270008F82F0020FC2F0020CD
:1016100004ED00E008300020682F00207C2F00201F
:1016200000280008EFF30980BFF36F8F1D4B1A6885
:1016300020E9F00F106008B54FF0500080F31188DA
:10164000BFF34F8FBFF36F8FFFF7D0F84FF000005D
:1016500080F31188BDE8084019680868B0E8F00F09
:1016600080F30988BFF36F8F70470E4B19680868C5
:10167000B0E8F00F80F30988BFF36F8F4FF00000E0
:1016800080F311884EF00D0E70470748006800681F
:1016900080F3088862B661B6BFF34F8FBFF36F8FD8
:1016A00000DF0000BC2F002008ED00E0F8B50700C7
:1016B0000D0001263C00002C07D1502080F311883A
:1016C000BFF34F8FBFF36F8FFEE7002C45D0E06B69
:1016D000002842D05FF0FF30E16BB0FBF1F0216CED
:1016E00088423AD3FFF778FD2168E26B206C4243D1
:1016F00001EB0200A0600020A06320686060216808
:10170000E26B521E206C424301EB0200E0605FF08E
:10171000FF3084F8440084F84500002D12D1206980
:10172000002817D014F11000FFF7EAF8002811D0B4
:101730005FF08050DFF850120860BFF34F8FBFF3A7
:101740006F8F07E014F11000FFF78DFC14F12400F7
:10175000FFF789FCFFF75AFD01E000200600002E8C
:1017600007D1502080F31188BFF34F8FBFF36F8FE5
:10177000FEE73000F2BD2DE9F843050088469146AA
:101780000024002D20D05FF0FF30B0FBF5F0404585
:101790001AD308FB05F010F1540F15D208FB05F021
:1017A000060016F15400FFF7F9FA0400002C15D0DA
:1017B00020005430070000944B46DBB23A0041460B
:1017C000280000F00EF809E0002C07D1502080F32B
:1017D0001188BFF34F8FBFF36F8FFEE72000BDE886
:1017E000F2832DE9F04105000C0016001F00DDF822
:1017F0001880002C02D1C8F8008001E0C8F8006011
:10180000C8F83C50C8F8404001214046FFF74EFF61
:1018100088F850700020C8F84800BDE8F0812DE934
:10182000F64182B080460E0000244746002F07D1C3
:10183000502080F31188BFF34F8FBFF36F8FFEE707
:10184000002E02D1386C002801D1012000E00020D8
:10185000C0B2002807D1502080F31188BFF34F8F0A
:10186000BFF36F8FFEE7FFF79BF9002802D10398C3
:10187000002801D1012000E00020C0B2002807D1DB
:10188000502080F31188BFF34F8FBFF36F8FFEE7B7
:10189000FFF7A2FCBD6B002D1BD03100380000F01B
:1018A000C3F8681EB863386900280ED017F110001D
:1018B000FFF726F8002808D05FF08050DFF8C81046
:1018C0000860BFF34F8FBFF36F8FFFF79FFC0120BE
:1018D00057E00398002803D1FFF798FC002050E060
:1018E000002C04D16846FFF788F801200400FFF7B8
:1018F0008DFCFEF7F9FDFFF76FFC97F9440010F13E
:10190000010F02D1002087F8440097F9450010F13B
:10191000010F02D1002087F84500FFF777FC03A9EB
:101920006846FFF773F8002820D1380000F0DBF894
:10193000002815D0039917F12400FEF790FF380016
:1019400000F08DF8FEF7D6FD0028A1D15FF08050A1
:10195000DFF834100860BFF34F8FBFF36F8F97E746
:10196000380000F07CF8FEF7C5FD91E7380000F084
:1019700076F8FEF7BFFD380000F0B5F8002887D0F4
:10198000002004B0BDE8F08104ED00E02DE9F84F3F
:1019900006000F0014005FF00008B56B306C0028E3
:1019A00009D1306800283AD1B068FFF70FF98046B6
:1019B0000020B06033E0002C14D1D6F84090BA4635
:1019C000D6F804B04A465146584600F03FF97068D0
:1019D000316C084470607068B16888421FD3306809
:1019E00070601CE0D6F84090BA46D6F80CB04A4673
:1019F0005146584600F02AF9F068316C49420844D3
:101A0000F060F0683168884204D2B068316C4942B5
:101A10000844F060022C02D1002D00D06D1E681C1D
:101A2000B0634046BDE8F28F2DE9F04104000D009F
:101A3000206C002811D0E068216C0844E060E06868
:101A4000A168884201D32068E060266CE768A84658
:101A500032003900404600F0F9F8BDE8F081F8B5F1
:101A60000400FFF7B9FB94F94550280040B2012863
:101A700019DBA06C002807D0200000F097F80028A0
:101A80000FD0FFF70CF80CE0606A002808D014F1C2
:101A90002400FEF735FF002803D0FFF700F800E030
:101AA00001E06D1EE1E75FF0FF3684F84560FFF767
:101AB000ADFBFFF791FB94F94470380040B2012868
:101AC0000CDB2069002809D014F11000FEF718FF84
:101AD000002801D0FEF7E3FF7F1EEEE784F84460A4
:101AE000FFF794FBF1BD38B50400FFF775FBA06B61
:101AF000002801D1012500E00025FFF787FB280021
:101B000032BD30B40022002807D1502383F311885E
:101B1000BFF34F8FBFF36F8FFEE7002918D000236C
:101B20001C00082C14D20D4D05EBC4035B689842D1
:101B300003D105EBC4031A000AE0002A06D155F8C8
:101B40003430002B02D105EBC4031A00641CE8E713
:101B5000002A01D01160506030BC7047C42E0020B4
:101B6000F8B504000D0016002700FFF735FB97F9C4
:101B7000440010F1010F02D1002087F8440097F9CA
:101B8000450010F1010F02D1002087F84500FFF752
:101B90003DFBB86B002805D13200290017F1240065
:101BA000FEF77EFE3800FFF75AFFF1BD71B581B038
:101BB0000198846C0025002C07D1502080F31188F7
:101BC000BFF34F8FBFF36F8FFEE7A06BE16B8842CF
:101BD00007D3502080F31188BFF34F8FBFF36F8F6F
:101BE000FEE7A06BE16B88422ED294F9456000229B
:101BF00001A92000FFF7CAFE050030005FF0FF31A9
:101C000040B288420BD1606A00281DD014F1240034
:101C1000FEF776FE002817D00120050014E0FEF73D
:101C20000EFD310049B281420ED2310049B27F2906
:101C300007D1502181F31188BFF34F8FBFF36F8F0E
:101C4000FEE7761C84F84560280076BD62B38B07FA
:101C500008D0521E11F8013B00F8013B00F024802F
:101C60008B07F6D1830740F0208000BF103A07D3DE
:101C700030B4B1E83810103AA0E83810F9D230BCCE
:101C8000530724BFB1E80810A0E8081044BF51F87A
:101C9000043B40F8043BD20724BF31F8022B20F864
:101CA000022B44BF0B7803707047121F17D35B00E1
:101CB00009D151F8043B20F8023B1B0C121F20F8FD
:101CC000023BF6D20BE051F8043B00F8013B1B0A43
:101CD00020F8023B1B0C121F00F8013BF3D238BF67
:101CE000121D521E24BF11F8013B00F8013BF8D829
:101CF000704730B4002513E050F8042BD30744BFDD
:101D0000A9F101039A18091F042942F8045BFAD2C9
:101D100013468C0744BF15809B1CC90748BF1D7024
:101D200050F8041B0029E7D130BC7047DFF8D4110C
:101D3000086850F001000860DFF8CC211368DFF874
:101D4000CC01034013600B68DFF8C40103400B6053
:101D5000086830F480200860106830F4FE001060DD
:101D60005FF41F00DFF8AC1108607047DFF89411D2
:101D70000A6832F480320A600A6832F480220A600B
:101D80000200B2F5803F03D0B2F5802F05D009E004
:101D90000A6852F480320A6004E00A6852F4A02211
:101DA0000A60FFE7704738B5002000900024002546
:101DB000312000F083F805000098401C0090009846
:101DC0004FF6FF71884203D02800C0B20028EFD040
:101DD000312000F073F8002801D0012000E000203D
:101DE000C0B232BD30B40023474D2C6834F47C14AB
:101DF00051EA000214432C6030BC70470100C9B2A4
:101E0000454A1160704700213F4B1A6892089200C2
:101E100002431A6070473C48006810F00C0070479D
:101E20000021394B1A6832F0F00202431A60704701
:101E30000021354B1A6832F4E06202431A607047A1
:101E40000021314B1A6832F4605252EAC0021A6023
:101E5000704732490860704700212B4B1A6832F4F2
:101E6000404202431A6070470A00D2B2002A04D0EE
:101E70002C4A13680343136003E02A4A1368834320
:101E8000136070470A00D2B2002A04D0264A1368B1
:101E90000343136003E0244A1368834313607047CD
:101EA0000A00D2B2002A04D0204A13680343136008
:101EB00003E01E4A136883431360704730B4010087
:101EC0000020002300250A00D2B25209D2B2012A12
:101ED00002D10C48046806E0022A02D110480468C6
:101EE00001E0134804680B00DBB213F01F0320006D
:101EF000D840C00701D5012000E00020C0B230BCAE
:101F00007047000000100240041002400000FFF87B
:101F1000FFFFF6FE0810024060004242D800424235
:101F20002010024014100240181002401C10024001
:101F300024100240F0B500220023002400250026D2
:101F4000002791F803C01CF00F0C91F803E05FEA42
:101F5000CE6E02D58A7852EA0C0C0A7812062AD084
:101F60000268160000221400082C23D25FF0010E34
:101F70001EFA04F215000A882A401300AB4217D15A
:101F8000A20015000F22AA401700BE431CFA05F25A
:101F90001643CA78282A04D11EFA04FEC0F814E0B9
:101FA00006E0CA78482A03D11EFA04FEC0F810E001
:101FB000641CD9E706600A88B2F5807F2EDB426890
:101FC000160000221400082C27D25FF0010E14F135
:101FD00008021EFA02F215000A882A401300AB42DA
:101FE00019D1A20015000F22AA401700BE431CFA07
:101FF00005F21643CA78282A04D114F108021EFA01
:1020000002F24261CA78482A05D114F108021EFA88
:1020100002FEC0F810E0641CD5E74660F0BDF0B4E5
:102020000022002300250027002802D51D4C24682B
:1020300001E01D4C2468C0F3034586B210F4401C37
:10204000BCF5401F07D134F07064174A176837F0A9
:102050007067176011E0C20206D50322AA40130080
:102060009C4354F0706408E00200520DD2B2120199
:1020700016FA02F2944354F070640A00D2B2002AB5
:1020800006D00200520DD2B2120116FA02F2144327
:10209000002802D5034A146001E0034A1460F0BC32
:1020A000704700001C0001400400014080B588B06A
:1020B00001214648FFF7B3FF01214548FFF7AFFF75
:1020C00044488188ADF8001018218DF803100121D3
:1020D0008DF8021069460068FFF72CFF6320ADF809
:1020E000080041F61F40ADF804000020ADF80A00DA
:1020F0000020ADF8060001A95FF0804000F078F8FC
:102100006020ADF810000120ADF812000020ADF8FD
:10211000180004A95FF0804000F0A8F808215FF0E3
:10212000804000F0FCF801215FF0804000F0E8F80A
:1021300009B000BDE0B5FFF74FF827480190022035
:10214000009000234FF4807224490FF24500FDF700
:10215000EFFF234801900320009000234FF480728A
:1021600020490FF24100FDF7E3FF1F4801900420D2
:10217000009000234FF480721C490FF23D00FDF7E0
:10218000D7FF0020FEF7E3F8FFF740F807BD000097
:1021900080B510488188006841614FF4FA70FEF7FD
:1021A00040F9F6E780B50B488188006801614FF47B
:1021B000FA70FEF736F9F6E780B5064881880068C0
:1021C00041614FF4FA70FEF72CF9F6E70002300097
:1021D00000021800E0270008982F00208827000838
:1021E0009C2F002098270008A02F0020A827000877
:1021F00010B400220488384B98420ED03C4A9042DA
:102200000BD0B0F1804F08D0344A904205D0344A08
:10221000904202D0334A904204D14FF68F7214405C
:102220004A881443304A904207D0304A904204D042
:102230004FF6FF421440CA88144304808A8882857E
:102240000A88028598420BD0294A904208D0294A30
:10225000904205D0284A904202D0284A904201D1AB
:102260000A7A02860122828210BC7047F0B40023F1
:1022700000240025068C4EF6FF7216400684B0F846
:1022800020C08688878B48F6FF7217404FF6FF42C2
:1022900017400A8857EA02274DF6FF7212EA0C0C23
:1022A0000A895CEA023C4A885CEA023C0A4A90429B
:1022B00002D00F4A904205D14BF6FF7216408A8930
:1022C00056EA821686808783CA88A0F84020A0F844
:1022D00020C0F0BC70470000002C0140000400400A
:1022E00000080040000C00400010004000140040B6
:1022F00000340140004001400044014000480140DA
:102300000A00D2B2002A04D0028852F001020280F0
:1023100004E003884FF6FE7213400380704710B448
:102320000023848B4FF2FF72144054EA012484830B
:1023300010BC704780B53D49086850F00100086046
:102340003B4A13683B48034013600B683A4803401C
:102350000B60086830F480200860106830F4FE00DC
:1023600010605FF41F003549086000F001F801BDFE
:1023700080B500F001F801BD82B00020019000207E
:1023800000902A49086850F480300860086810F40A
:10239000003000900198401C01900098002804D162
:1023A00001984FF6FF729042F0D10868800302D581
:1023B0000120009001E0002000900098012831D118
:1023C0001F48026852F010020260026892089200F0
:1023D0000260026852F00202026015480268026060
:1023E00002680260026852F480620260026832F49D
:1023F0007C120260026852F4A02202600A6852F065
:1024000080720A600A689201FCD501688908890017
:102410000160016851F002010160016811F00C01D6
:102420000829FAD102B070470000000000100240F5
:10243000041002400000FFF8FFFFF6FE0810024003
:10244000002002404FF4C0414843401C0100481E98
:102450000029FBD1704738B50024FFF767FC5FF413
:102460008030FFF783FCFFF79EFC05002800C0B218
:1024700001282BD10020FFF7D3FC0020FFF7E0FC60
:102480004FF48060FFF7D4FC4FF44040FFF7E4FCCA
:102490000020FFF7DEFC022000F054F8102000F0CE
:1024A0005AF85FF480115FF48030FFF79BFC012045
:1024B000FFF7A4FC3920FFF701FD0028FAD0022025
:1024C000FFF7A1FCFFF7A7FC0828FBD131BD10B531
:1024D00004002100C9B20120FFF7C6FC2100C9B2E7
:1024E0000720FFF7DDFC2100C9B244F21D20FFF7F1
:1024F000C9FC10BD80B500215FF0006000F03DF820
:102500004FF4A06000F034F801BD80B5FFF7A3FFE1
:10251000FFF7F0FF0120FFF7DAFF4FF4FA70FFF743
:1025200091FF4FF4FA70FFF78DFF4FF4FA70FFF749
:1025300089FF4FF4FA70FFF785FF72B6FFF7B6FD1B
:1025400062B601BD0021DFF824301A6812F03802AB
:1025500002431A607047DFF814100A6832F0100264
:102560000A600A6802430A607047000000200240C7
:1025700005490143054A11607047054A0A40024374
:10258000044B1A60704700000000FA050CED00E0F3
:1025900080FFFF1F08ED00E07047FEE7FEE7FEE763
:1025A000FEE770475FF4003020490860204801686A
:1025B0004908490001601F481F490968D1F50871A1
:1025C000418001210170704780B500F041F85FF44F
:1025D0000030164908604FF4087017490860144825
:1025E000016851F00101016000201449087101BD2A
:1025F00013480188C90610D55FF400310B4A1160F9
:102600000B490A68520852000A600A490A4A1268CD
:10261000D2F508724A8002220A70008809490880AF
:1026200009480088094908807047000004000240FA
:1026300058000240A02C00205C000240782A0020B4
:10264000003801400C300020043801400E300020DA
:102650004FF400500A4908600848016849084900D9
:102660000160054800884006FBD502488188006863
:1026700041617047E82700080038014044000240EB
:102680000400024030B40EE002684368024408309F
:10269000DC0744BFA9F10104E31852F8045B43F8D6
:1026A000045B091FF9D150F8041B0029ECD130BCA0
:1026B00070470000E0B5FFF728FF002001900120DF
:1026C000009000234FF4807203490448FDF730FD69
:1026D000FDF7CEFE00200EBD74270008352100084E
:1026E00010B5074979441831064C7C44163404E08F
:1026F0000A68081D114488470146A142F8D110BD5F
:102700000800000028000000EBF5FFFF0830000083
:102710000C000020000000006DFFFFFF0C00000017
:10272000B4000000000000200000000000F00DF8E0
:10273000002801D0FFF7D4FFAFF300800020AFF3F3
:102740000080FFF7B7FF00F002F80120704700F0AB
:1027500001B800000746384600F002F8FBE7000029
:1027600080B5AFF30080024A11001820ABBEFBE732
:10277000260002004465766963655F5461736B43AC
:1027800072656174000000004465766963655F549A
:1027900061736B31000000004465766963655F54C6
:1027A00061736B32000000004465766963655F54B5
:1027B00061736B3300000000014880470148004707
:1027C00035230008C9270008AFF30080AFF300806D
:1027D000FFF7ACFFAAAAAAAA00A24A041E000000A2
:1027E000000C014000080000000801400008000043
:1027F00049444C4500000000546D7220537663003C
:10280000546D72510000000008000000FFF7FEBF89
:10281000FFF7FEBFFFF7FEBFFFF7FEBFFFF7FEBFEC
:10282000FFF7FEBFFFF7FEBFFFF7FEBFFFF7FEBFDC
:10283000FFF7FEBFFFF7FEBFFFF7FEBFFFF7FEBFCC
:10284000FFF7FEBFFFF7FEBFFFF7FEBFFFF7FEBFBC
:10285000FFF7FEBFFFF7FEBFFFF7FEBFFFF7FEBFAC
:10286000FFF7FEBFFFF7FEBFFFF7FEBFFFF7FEBF9C
:10287000FFF7FEBFFFF7FEBFFFF7FEBFFFF7FEBF8C
:10288000FFF7FEBFFFF7FEBFFFF7FEBFFFF7FEBF7C
:10289000FFF7FEBFFFF7FEBFFFF7FEBFFFF7FEBF6C
:1028A000FFF7FEBFFFF7FEBFFFF7FEBFFFF7FEBF5C
:1028B000FFF7FEBFFFF7FEBFFFF7FEBFFFF7FEBF4C
:1028C000FFF7FEBFFFF7FEBFFFF7FEBFFFF7FEBF3C
:1028D000FFF7FEBFFFF7FEBFFFF7FEBFFFF7FEBF2C
:1028E000FFF7FEBFFFF7FEBFFFF7FEBFFFF7FEBF1C
:04000005080027C9FF
:00000001FF
