:020000040800F2
:10400000601B0020C56F0008916D0008936D0008CB
:10401000956D0008976D0008996D0008000000007C
:104020000000000000000000000000008F6E00088B
:104030009B6D000800000000496E0008D16E00086A
:104040006D700008717000087570000879700008C4
:104050007D70000881700008857000088970000874
:104060008D70000891700008957000089970000824
:104070009D700008A1700008C16D00089D6D0008CA
:10408000A5700008A9700008AD700008B1700008A4
:10409000B5700008B9700008BD700008C170000854
:1040A000C5700008C9700008CD700008D170000804
:1040B000D5700008D9700008DD700008E1700008B4
:1040C000E5700008E9700008ED700008F170000864
:1040D000F5700008E96D0008F9700008FD7000082F
:1040E0000171000805710008097100080D710008D0
:1040F0001171000815710008197100081D71000880
:104100002171000825710008297100082D7100082F
:104110003171000835710008397100083D710008DF
:104120004171000845710008497100084D7100088F
:104130004FF460514843401C0100481E0029FBD148
:10414000704780B500F04EFA00F0A6FA01BD70B5D8
:104150000024DFF864640020B0800421300000F007
:10416000DBFAB08032000621002000F0C0FB050021
:10417000320006214FF4407000F0B9FBC0B270BDB0
:104180002DE9F84300270024DFF82C542A000621EB
:10419000002000F0E5FA06003000C0B200280FD081
:1041A00000275FF000080421280000F0B5FAA98874
:1041B00002000B0092B29BB29A4201D0002216007C
:1041C0002A0006214FF4407000F0CAFA07003800B8
:1041D000C0B200280FD000245FF00008042128009E
:1041E00000F09AFAA98802000B0092B29BB29A42A0
:1041F00001D00022170057EA0600C0B200280CD1F7
:1042000006245FF00008A94642462100484600F017
:104210002DFF1E20A870FFF79AFF00F071FF45F2F6
:104220005550DFF898130A88824203D18A882B8878
:104230009A4204D008802888888000F0D5FFBDE825
:10424000F1832DE9FC470400002100200022002317
:10425000B4F805502E00B6B24FF6FF77BE4208D034
:104260002800DFF85463368880B2B04201D00020C5
:1042700038E1E67914F10907A078B0F10808DFF811
:1042800040930020A9F806003000C0B2022800F0D8
:104290000C8104280ED045282BD0462845D047282D
:1042A00000F09280482800F0CC8049284CD0F728B4
:1042B0000FD00CE119F108000090DFF8FC02038830
:1042C0003200D2B20021002000F0B0FFA9F80600B1
:1042D000FDE019F108000090DFF8DC0203883200ED
:1042E000D2B23221DFF8DC0200F0A0FFA9F806000C
:1042F000EDE0404680B2012816D120781E2813DB5D
:10430000DFF8B4A238788AF80200FFF720FF19F12D
:1043100008000090BAF800303200D2B2002100202C
:1043200000F084FFA9F80600D1E0DFF88C0219F153
:104330000801009103883200D2B20121801C00F0F4
:1043400075FFA9F80600C2E0404680B202283AD1C3
:104350003878002837D17878FF2819D1DFF868023B
:10436000818800680161DFF86402017851F004017E
:10437000017019F108000090DFF83C020388320058
:10438000D2B20021002000F051FFA9F806001AE087
:104390007878002817D1DFF8300281880068416101
:1043A000DFF82802017811F0FB01017019F1080013
:1043B0000090814803883200D2B20021002000F032
:1043C00035FFA9F8060082E0404680B2022837D1C6
:1043D0003878062834DA7878FF2802D078780028F0
:1043E0002ED17878FF280FD17948397830F811002C
:1043F00078490968086178490A78012397F900002B
:1044000083401A430A700EE07148397830F8110081
:1044100070490968486170490A78012397F90000DA
:1044200083409A430A7019F108000090624803889B
:104430003200D2B20021002000F0F8FEA9F80600F8
:1044400045E0404680B202282ED1002001905F480E
:104450007978C1703978012906D1417891F0010F3E
:1044600001D00121417005E0417891F0020F01D0A7
:104470000221417059494978574A127851EA02217C
:10448000027951EA0241007851EA0061019119F183
:1044900008000090484803883200D2B2042101A8E5
:1044A00000F0C4FEA9F8060011E0387880B200F0F0
:1044B000E6F819F1080000903F4803883200D2B2B4
:1044C0000021002000F0B2FEA9F80600FFE7B9F8CD
:1044D0000600002803D0424800683C498860B9F8CB
:1044E0000600C0B2BDE8F68710B500243748417811
:1044F00091F0030F0ED03A490A68836813F5FA6306
:104500009A4207D309688160417891F0030F01D086
:1045100003214170417801294DD0417802294AD0C8
:104520004178032947D12D494978890709D58178F0
:1045300011F0050F0DD10121817029490968C16071
:1045400007E08178C90704D50021817024490968F2
:10455000C1608178C90708D5C16811F5FA61204AA0
:104560001268914201D2022181708178890722D597
:104570000421817014498A8809680A61017851F020
:1045800004010170002004002000C0B2062812DAE5
:104590000F482100C9B230F811000E4909680861BE
:1045A0000D4801780122A240114301706420FFF7F9
:1045B000BFFD641CE8E710BD040900200C090020C1
:1045C000800200200050000864700008F0080020FD
:1045D000D46F0008EC6F0008540900201409002073
:1045E0002409002080B510208DF8030003208DF8E9
:1045F000020024488188ADF800106946006800F088
:1046000025FF01BD10B588B001211F4800F093FFC0
:104610001E488188ADF8001018218DF80310012183
:104620008DF802106946006800F010FF6320ADF8B5
:10463000080041F61F40ADF804000020ADF80A0064
:104640000020ADF80600124C01A9200000F0BAFFCE
:104650006020ADF810000120ADF812000020ADF888
:10466000180004A9200000F0EBFF0821200001F051
:104670004EF80121200001F03BF808B010BD0549BB
:1046800008807047EC6F000800081A00F46F0008FB
:10469000000400403804004080B510208DF803006D
:1046A00003208DF8020019488188026851618188D1
:1046B000ADF800106946006800F0C8FE48208DF88B
:1046C000030013488188ADF800106946006800F0C7
:1046D000BDFE10488188ADF800106946006800F002
:1046E000B5FE01BD00200A490A68926889880A421D
:1046F00001D050F0010007490A68926889880A428F
:1047000001D050F00200C0B2704700006470000891
:10471000547000085C70000870B40300002200248C
:1047200000264FF6FF7000258D4214D25A5D50408E
:1047300000221600082E0CD2C20706D580B2020055
:1047400048F2084090EA520001E080B24008761C2E
:10475000F0E76D1CE8E780B2C04380B270BC7047E0
:104760002DE9F04104000D0016005FF0010800275C
:10477000280080B2002860D001F002F8002801D1A2
:10478000002080464046C0B2002808D0A02001F09A
:104790008CF801F069F8002801D1002080464046DD
:1047A000C0B2002808D0200080B2000AC0B201F0D8
:1047B0007CF801F059F880464046C0B2002806D087
:1047C0002000C0B201F071F801F04EF8804640467A
:1047D000C0B2002805D000F0D3FF002801D100208E
:1047E00080464046C0B2002808D0A12001F05DF804
:1047F00001F03AF8002801D1002080466D1E4046A5
:10480000C0B2002817D0002007003800290080B26D
:1048100089B2884208D201F06DF8390089B270542B
:1048200000F0F2FF7F1CF0E701F064F8390089B274
:10483000705401F001F800F0CFFF4046C0B2BDE86F
:10484000F0812DE9F04104000D00160000275FF013
:104850000108280080B2002842D000F091FF002813
:1048600001D1002080464046C0B2002808D0A020D8
:1048700001F01BF800F0F8FF002801D1002080466D
:104880004046C0B2002808D0200080B2000AC0B262
:1048900001F00BF800F0E8FF80464046C0B2002867
:1048A00006D02000C0B201F000F800F0DDFF804625
:1048B000002007003800290080B289B288420DD25A
:1048C0004046C0B2002807D0380080B2305C00F00B
:1048D000ECFF00F0C9FF80467F1CEBE700F07CFF97
:1048E000052000F044FF4046C0B2BDE8F0812DE94C
:1048F000F04704000D00160000275FF000085FF08D
:10490000000A200010F01F0F1BD014F01F00D0F180
:10491000200007002800390080B289B2884200D206
:104920002F00404680B206EB0002390089B218EB36
:10493000040080B2FFF785FF8146ED1B17EB0808E6
:1049400001E05FF001094846C0B200281FD02800EE
:1049500080B200281BD0202007002800390080B238
:1049600089B2884200D22F00404680B206EB000296
:10497000390089B218EB040080B2FFF762FF81466C
:10498000ED1B17EB08084846C0B20028DFD14846A7
:06499000C0B2BDE8F08793
:10500000534D353030333033203234303632303057
:1050100030204733324631303300000000000000BA
:105020000000000000000000000000000000000080
:10503000000030B4002513E050F8042BD30744BF20
:10504000A9F101039A18091F042942F8045BFAD256
:1050500013468C0744BF15809B1CC90748BF1D70B1
:1050600050F8041B0029E7D130BC704762F30F22CF
:1050700062F31F42401810F0030308D0C91A1FD36F
:10508000DB0748BF00F8012D28BF20F8022D1300D0
:1050900030B414461546103928BF20E93C00FAD830
:1050A000490728BF20E90C0048BF40F8042D8900BB
:1050B00028BF20F8022D48BF00F8012D30BC7047F2
:1050C000C91818BF00F8012DCB0728BF00F8012D23
:1050D000704730B40EE00268436802440830DC07D1
:1050E00044BFA9F10104E31852F8045B43F8045BE0
:1050F000091FF9D150F8041B0029ECD130BC7047CE
:105100002DE9F8435FF00008002441F6F875464E9B
:10511000320008212800FFF723FB07003800C0B247
:10512000002810D05FF000085FF000090621300071
:10513000FFF7F2FAF18802000B0092B29BB29A429A
:1051400001D000221700320008214FF4F050FFF781
:1051500007FB80464046C0B200280FD000245FF015
:10516000000906213000FFF7D7FAF18802000B0092
:1051700092B29BB29A4201D00022904658EA0700B0
:10518000C0B2002807D10120B0804AF6AA203080A2
:1051900000F02AF826E03800C0B201280FD14046BE
:1051A000C0B200280BD1320008212800FFF7D8FA3E
:1051B000320008214FF4F050FFF799FB12E038005D
:1051C000C0B200280ED14046C0B201280AD1320038
:1051D00008214FF4F050FFF7C3FA320008212800ED
:1051E000FFF785FBBDE8F18338B500240E4D0020A4
:1051F000E88006212800FFF78FFAE8802A000821BE
:1052000041F6F870FFF773FB012809D12A00082145
:105210004FF4F050FFF76BFB012801D1012004008F
:105220002000C0B232BD00000C0900202DE9FE4F65
:1052300004000D0016001F00DDF830805FF000094B
:105240000020ADF804007E204946C9B208F80100EC
:1052500019F1010955204946C9B208F8010019F1B0
:10526000010900204946C9B208F8010019F10109F5
:105270004846C0B208F8007019F10109380080B240
:10528000000A4946C9B208F8010019F101090020D5
:105290004946C9B208F8010019F101090020494640
:1052A000C9B208F8010019F101091F204946C9B225
:1052B00008F8010019F101094846C0B208F8006079
:1052C00019F1010900204946C9B208F8010019F195
:1052D0000109AA465FFA8AFA00944846C0B208EB70
:1052E000000B52460099584600F030FB15EB0909B7
:1052F00000204946C9B208F8010019F1010900204F
:105300004946C9B208F8010019F10109B9F10100D3
:1053100088F802004946C9B2891E18F10200FFF759
:10532000FBF901004846C0B208F8001019F1010964
:10533000080080B2000A4A46D2B208F8020019F109
:1053400001095FFA89F9484680B2BDE8FE8F2DE970
:10535000F24F040015000026002760880B2871DB3F
:105360006088390089B20B3188426BDB380080B22B
:10537000204400797E2863D1380080B220444079EF
:1053800055285DD100215FF000085FF0000938006A
:1053900080B220448079002807D0380080B22044B1
:1053A00090F806A01AF1030A0EE0380080B22044FB
:1053B00090F80EA05FEA0A2A380080B22044407BB1
:1053C00050EA0A0A1AF10D0A504680B20B2837DB60
:1053D0000020390089B22144B1F809B0594689B298
:1053E0004FF6FF72914205D05846290080B289B22B
:1053F000884225D1514689B2091F380080B2204425
:10540000801DFFF789F93A0092B2514689B28A1895
:1054100004EB0201CA7812023B009BB2514689B2EA
:10542000CB1804EB030189780A430100130089B209
:105430009BB2994204D100990F8001210E0001E036
:105440007F1C8DE73000C0B2BDE8F28FF0B50022BE
:105450000023002400250026002791F803C01CF03B
:105460000F0C91F803E05FEACE6E02D58A7852EA1B
:105470000C0C0A7812062AD00268160000221400CA
:10548000082C23D25FF0010E1EFA04F215000A88E0
:105490002A401300AB4217D1A20015000F22AA40E8
:1054A0001700BE431CFA05F21643CA78282A04D115
:1054B0001EFA04FEC0F814E006E0CA78482A03D1B8
:1054C0001EFA04FEC0F810E0641CD9E706600A88E2
:1054D000B2F5807F2EDB4268160000221400082CF3
:1054E00027D25FF0010E14F108021EFA02F2150035
:1054F0000A882A401300AB4219D1A20015000F22DE
:10550000AA401700BE431CFA05F21643CA78282A9F
:1055100004D114F108021EFA02F24261CA78482A44
:1055200005D114F108021EFA02FEC0F810E0641C56
:10553000D5E74660F0BDF0B4002200230025002727
:10554000002802D51D4C246801E01D4C2468C0F3DE
:10555000034586B210F4401CBCF5401F07D134F05F
:105560007064174A176837F07067176011E0C2025D
:1055700006D50322AA4013009C4354F0706408E04F
:105580000200520DD2B2120116FA02F2944354F004
:1055900070640A00D2B2002A06D00200520DD2B2C4
:1055A000120116FA02F21443002802D5034A1460CD
:1055B00001E0034A1460F0BC704700001C00014089
:1055C0000400014010B4002204883F4B98420ED0E2
:1055D000434A90420BD0B0F1804F08D03B4A9042F2
:1055E00005D03B4A904202D03A4A904204D14FF64D
:1055F0008F7214404A881443374A904207D0374A82
:10560000904204D04FF6FF421440CA8814430480ED
:105610008A8882850A88028598420BD0304A904257
:1056200008D0304A904205D02F4A904202D02F4AEB
:10563000904201D10A7A02860122828210BC704710
:10564000F0B4002600275FF0000C038C4FF6EF72D9
:1056500013400384038C8488058B48F6FF72154041
:105660004FF6FF4215400A8855EA02254FF6DF72D1
:1056700013400A8953EA02134A8853EA0213124A72
:10568000904202D0164A904217D14FF67F721340D3
:105690004A8953EA02134FF6BF7213408A8853EACD
:1056A00002134FF6FF3214404FF2FF7214408A8902
:1056B00054EA8204CA8954EA820484800583CA8831
:1056C00002870384F0BC7047002C014000040040B6
:1056D00000080040000C0040001000400014004092
:1056E00000340140004001400044014000480140B6
:1056F0000A00D2B2002A04D0028852F001020280CD
:1057000004E003884FF6FE7213400380704710B424
:105710000023048B4FF6F77214400C43048310BC33
:10572000704700001CB5042100226C462000FFF7E2
:105730009DFC03208DF8020014208DF803008148A1
:105740008188ADF8001069460068FFF77FFE7E484B
:105750008188ADF8001069460068FFF777FE13BD39
:105760000020C8210800411E0028FBD170474FF4DB
:1057700060514843401C0100481E0029FBD170477E
:1057800010B5704CA088216808616F488188006856
:105790000161FFF7E5FF20688068002801D1012042
:1057A00000E00020217911F00101084201D0002021
:1057B00011E0A08821684861FFF7D2FF2068806867
:1057C000A188084201D0002005E0A0882168486136
:1057D000FFF7C6FF012010BD38B55B4CA0882168DB
:1057E0004861FFF7BDFF574DA88829684861FFF75A
:1057F000B7FFA08821680861FFF7B2FFA888296871
:105800000861FFF7ADFF31BD10B54F4CA08821688E
:105810004861FFF7A5FF4B48818800684161FFF7A9
:105820009FFFA08821680861FFF79AFFA088216880
:105830004861FFF795FF10BD10B5434CA088216863
:105840004861FFF78DFF3F48818800680161FFF7DD
:1058500087FFA08821680861FFF782FFA088216880
:105860004861FFF77DFF10BD38B5374CA08821682F
:105870004861FFF775FF334DA88829680861FFF775
:105880006FFFA08821680861FFF76AFF28688068B9
:10589000A988084204D0A08821684861002003E05C
:1058A000A08821684861012032BD70B50400082538
:1058B0002800451EC0B2002817D0234EB08831689A
:1058C0004861200604D51F4881880068016103E013
:1058D0001C48818800684161FFF742FFB088316849
:1058E0000861FFF73DFF6400E2E717488188006820
:1058F000416170BDF8B508240025124EB0883168AA
:1059000008612000441EC0B2002813D06D000E4F65
:10591000B88839684861FFF723FFB888396808619B
:10592000FFF71EFF30688068B1880842E9D055F063
:105930000105E6E704488188006841612800C0B29B
:10594000F2BD0000FC6F00080470000862B38B0712
:1059500008D0521E11F8013B00F8013B00F02480F2
:105960008B07F6D1830740F0208000BF103A07D3A1
:1059700030B4B1E83810103AA0E83810F9D230BC91
:10598000530724BFB1E80810A0E8081044BF51F83D
:10599000043B40F8043BD20724BF31F8022B20F827
:1059A000022B44BF0B7803707047121F17D35B00A4
:1059B00009D151F8043B20F8023B1B0C121F20F8C0
:1059C000023BF6D20BE051F8043B00F8013B1B0A06
:1059D00020F8023B1B0C121F00F8013BF3D238BF2A
:1059E000121D521E24BF11F8013B00F8013BF8D8EC
:1059F000704700004FF4C0414843401C0100481E5E
:105A00000029FBD1704738B5002400F039FA5FF463
:105A1000803000F055FA00F070FA05002800C0B29E
:105A200001282BD1002000F0A5FA002000F0B2FAE6
:105A30004FF4806000F0A6FA4FF4404000F0B6FA50
:105A4000002000F0B0FA022000F0B6FB102000F0B9
:105A5000BCFB5FF480115FF4803000F06DFA012030
:105A600000F076FA392000F05BFB0028FAD0022023
:105A700000F073FA00F079FA0828FBD131BD10B5B7
:105A800004002100C9B2012000F004FB2100C9B2CA
:105A9000022000F01BFB2100C9B244F21D2000F0DF
:105AA00007FB10BD80B54FF480415FF0006000F04F
:105AB000D1FB4FF4A06000F095FB01BD10B40020B5
:105AC000002100220B009BB2152B26DADFF84C33A5
:105AD0001C68A4689B881C4201D152F00102DFF8C7
:105AE00040331C68A4689B881C4201D152F002021A
:105AF000DFF830331C68A4689B881C4201D152F047
:105B00000402030014009BB2A4B2A34201D1491CB9
:105B1000D8E7002319001000D4E780B210BC70470A
:105B200080B50121C048FFF706FD10208DF8030065
:105B300003208DF80200BD488188ADF80010694649
:105B40000068FFF783FCBA488188ADF80010694609
:105B50000068FFF77BFC48208DF80300B54881887A
:105B6000ADF8001069460068FFF770FCAB4A9188F9
:105B7000AB4880880143AB4880880143ADF80010F2
:105B800069461068FFF762FC01BD38B5FFF73BFFBF
:105B9000FFF788FF0120FFF772FF4FF4FA70FFF75D
:105BA00029FF72B6FFF7BCFFA04CA08821684861AE
:105BB0009F4DA88829684861FFF7B4FDFEF7E0FA19
:105BC000FFF77CFF14309C490880FEF7BAFAFEF715
:105BD00063FD00F091FBFEF715FD00F0B1FBA0881E
:105BE00021680861A8882968086162B631BD38B5A6
:105BF0009248017889075AD5016831F002010160A5
:105C00008F480168491C01608E494978032914D1E5
:105C10000078800708D585488188006841618448FC
:105C20008188006801611CE08148818800684161C9
:105C30007E4881880068016113E00078C00608D5BD
:105C40007A488188006841617948818800680161EB
:105C500007E077488188006841617448818800685E
:105C60000161794C207800280FD1784D2878411CAB
:105C70002970C0B280B2FEF702FD2878642816DBD6
:105C8000642028700120207011E0207801280ED1B6
:105C90006E4D2878411E2970C0B280B2FEF7EFFC2D
:105CA0002878002803D1002028700020207031BD02
:105CB0002DE9FC47664C0721200000F0A8FC0028D5
:105CC0000AD00721200000F0B0FC00F059FB0A20A8
:105CD000FFF790FE00F034FB5E4E3078022802D0D1
:105CE0003078012850D15C4C207900284CD1002517
:105CF0004FF40978B146594FBA4642464946504694
:105D0000FFF724FE002030700020708078880B2878
:105D100029DB0020ADF800004748028869463800BA
:105D2000FFF715FB00281ED0BDF800003844001D09
:105D3000FEF787FAE080E088002814D00120207167
:105D4000474800682060E18814F1080000F078FD01
:105D5000207C042805D10520FFF74CFE414842492C
:105D60000860012005002800C0B200280CD15FF4B3
:105D700000303E4908604FF408703D4908603D48D6
:105D8000016851F00101016033480179012916D100
:105D900001686431324A1268914210D200210171C7
:105DA00000F062FD5FF40030304908604FF4087085
:105DB0002F4908602F48016851F001010160BDE8DA
:105DC000F387704710B51D480168890518D501682B
:105DD00031F400710160FEF785FC274C2178C0B2D8
:105DE000814208D16068401C60606068052807D364
:105DF0002078607004E000206060FEF773FC207083
:105E000010BD80B50D480168490505D5016831F41C
:105E100080610160FEF768FB01BD0000247000088E
:105E20002C70000834700008000230003C7000083C
:105E3000447000084C700008040900201C09002070
:105E400020090020F00800205A0900205B090020EA
:105E500000380140A804002080020020CC06002069
:105E6000240900200400FA050CED00E004000240C3
:105E70005C000240580002401409002070470000F6
:105E8000DFF8E412086850F001000860DFF8DC2257
:105E90001368DFF8DC02034013600B68DFF8D402FC
:105EA00003400B60086830F480200860106830F40C
:105EB000FE0010605FF41F00DFF8BC12086070473E
:105EC000DFF8A4120A6832F480320A600A6832F4F9
:105ED00080220A600200B2F5803F03D0B2F5802F25
:105EE00005D009E00A6852F480320A6004E00A68CA
:105EF00052F4A0220A60FFE7704738B500200090F6
:105F000000240025312000F00BF905000098401C0A
:105F1000009000984FF6FF71884203D02800C0B26D
:105F20000028EFD0312000F0FBF8002801D001203C
:105F300000E00020C0B232BD30B400238B4D2C688D
:105F400034F47C1451EA000214432C6030BC7047D6
:105F50000100C9B2894A116070470021834B1A6859
:105F60009208920002431A6070478048006810F05F
:105F70000C00704700217D4B1A6832F0F00202439A
:105F80001A6070470021794B1A6832F4E0620243CC
:105F90001A6070470021754B1A6832F4605252EA59
:105FA000C0021A60704776490860704700216F4B45
:105FB0001A6832F4404202431A6070472DE9F04FEC
:105FC00001000022002500200026684FD7F800C0FD
:105FD0001CF00C0C6346002B04D0042B05D0082BBE
:105FE00006D023E0684A0A6022E0684A0A601FE09F
:105FF0003A6812F470123B6813F480331800920C64
:10600000921C1500002804D1614A02FB05F20A60C7
:106010000BE03A68920304D55E4A02FB05F20A607F
:1060200003E05A4A02FB05F20A6001E0564A0A60A0
:106030003C6814F0F0042409DFF85C9119F804E0DE
:106040000A6832FA0EF24A603B6813F4E0631B0AF6
:1060500019F803804A6832FA08F28A603A6812F442
:106060006052D20A19F80290D1F804A03AFA09FA5B
:10607000C1F80CA03F6817F44047BF0BDFF81CA124
:106080001AF807A0D1F80CB0BBFBFAFBC1F810B0AE
:10609000BDE8F08F0A00D2B2002A04D0404A13684B
:1060A0000343136003E03E4A136883431360704761
:1060B0000A00D2B2002A04D03A4A1368034313609C
:1060C00003E0384A13688343136070470A00D2B272
:1060D000002A04D0344A13680343136003E0324AB1
:1060E00013688343136070470A00D2B2002A04D0B9
:1060F0002E4A13680343136003E02C4A136883435A
:10610000136070470A00D2B2002A04D0284A1368EC
:106110000343136003E0264A136883431360704708
:1061200030B401000020002300250A00D2B2520939
:10613000D2B2012A02D10C48046806E0022A02D138
:106140001048046801E01B4804680B00DBB213F040
:106150001F032000D840C00701D5012000E0002027
:10616000C0B230BC70470000001002400410024072
:106170000000FFF8FFFFF6FE0810024060004242F8
:10618000D80042422010024000127A00001BB700E3
:1061900000093D00808D5B00000000201000002001
:1061A00014100240181002401C1002400C10024053
:1061B00010100240241002400021DFF824301A6839
:1061C00012F0380202431A607047DFF814100A68B0
:1061D00032F010020A600A6802430A607047000049
:1061E0000020024025490143254A11607047F0B460
:1061F000002200230F24C17800291FD020490968FC
:1062000011F4E061D1F5E061090AD1F104052B0038
:10621000CC4045789D408678264035432D012A00A4
:10622000184D0678AA550125067816F01F06B540C8
:10623000154E07787F1146F8275009E001210578AF
:1062400015F01F05A940114D0678761145F8261066
:10625000F0BC70470E4A0A4002430E4B1A6070476A
:10626000042805D10C490A6852F004020A6004E0CF
:1062700009490A6832F004020A6070470000FA0512
:106280000CED00E000E400E000E100E080E100E06F
:1062900080FFFF1F08ED00E010E000E010B40200F6
:1062A00052B2002A05D40A011D4B040064B21A55EB
:1062B00008E00A011B4B040064B214F00F042344ED
:1062C00003F8042C10BC704710B50400601EB0F138
:1062D000807F01D301200EE0601E134908600F216A
:1062E0005FF0FF30FFF7DAFF002010490860072059
:1062F0000F490860002010BD80B50420FFF7B0FFF3
:106300000C48FFF7E1FF00200B49086000200B4913
:10631000086000215FF0FF30FFF7C0FF01BD000003
:1063200000E400E018ED00E014E000E018E000E018
:1063300010E000E0407E050024090020280900202C
:1063400080B55FF4E13000F079F9012000F0DDF96B
:106350004FF408711E4800F0EFF94FF408711D4822
:1063600000F023FA5FF400301B4908604FF4087016
:106370001A4908601A48016851F00101016001BD25
:1063800010B51748016849084900016015480168BF
:10639000490849000160002000F0B7F9124C0022C2
:1063A00040F22441200000F0EEF80022802120007D
:1063B00000F021F900224021200000F01CF900210A
:1063C000200000F0D1F8200000F010F810BD00000F
:1063D00088020020AC040020040002405C0002405F
:1063E00058000240440002400038014010B504004B
:1063F000584884420AD101214FF48040FFF774FECF
:1064000000214FF48040FFF76FFE36E0524884428F
:106410000AD101215FF40030FFF774FE00215FF420
:106420000030FFF76FFE28E04C4884420AD101217A
:106430005FF48020FFF766FE00215FF48020FFF705
:1064400061FE1AE0464884420AD101215FF400202F
:10645000FFF758FE00215FF40020FFF753FE0CE029
:106460004048844209D101215FF48010FFF74AFEC1
:1064700000215FF48010FFF745FE10BD2DE9F84FB5
:1064800086B004000D00002600275FF000085FF0D2
:1064900000095FF0000AA8890028A346218A4CF66B
:1064A000FF700140E8880143009100982082A18993
:1064B0004EF6F3100140AA882889024368890243F6
:1064C000114300910098A081A18A4FF6FF4001403E
:1064D000A889014300910098A08201A8FFF76EFDF2
:1064E0001C48834501D1049900E00399A089000468
:1064F00007D5192000FB01F02A685200B0FBF2F228
:1065000006E0192000FB01F02A689200B0FBF2F2CD
:106510006420B2FBF0F6360133001B09642000FB57
:106520001323A089000408D5D80032306427B0FBBB
:10653000F7F010F00700064307E018013230642737
:10654000B0FBF7F010F00F000643268107B0BDE85E
:10655000F08F000000380140004400400048004037
:10656000004C0040005000400A00D2B2002A04D083
:10657000828952F40052828104E083894DF6FF72D1
:106580001340838170472DE9F04100230025002747
:106590005FF0000E0C0040F66A16A4B2B4428046CA
:1065A0000C00E4B26409E4B20E00B6B216F01F06A5
:1065B0005FF0010C1CFA06FC012C02D118F10C084A
:1065C00006E0022C02D118F1100801E018F11408BD
:1065D0001300DBB2002B06D0D8F800305CEA0303CE
:1065E000C8F8003005E0D8F8003033EA0C03C8F8EA
:1065F0000030BDE8F0811300DBB2002B03D0838AAA
:106600000B43838202E0838A8B43838270470200BC
:106610000023080080B2B0F5007F1088084201D046
:10662000012000E00020C0B270470A0092B292053B
:106630000A0092B2D24302807047000030B585B0A4
:106640000400042100226D462800FEF70FFD1021F2
:10665000002201AD2800FEF709FD10208DF803008F
:1066600003208DF80200894DA888ADF80000694626
:106670002868FEF7EBFEA88829684861844D280049
:10668000FFF7B4FE83488188ADF8001003218DF830
:10669000021018218DF8031069460068FEF7D6FE37
:1066A0007D488188ADF8001048218DF803106946B7
:1066B0000068FEF7CBFE01940020ADF80800002032
:1066C000ADF80A000020ADF80C000020ADF8100075
:1066D0000C20ADF80E0001A92800FFF7CFFE012124
:1066E0002800FFF741FF012240F224412800FFF774
:1066F0004AFF012280212800FFF77DFF012240216F
:106700002800FFF778FF05B030BD38B5040004213C
:1067100000226D462800FEF7A9FC25208DF8000018
:1067200003208DF8010002208DF802008DF803404F
:106730006846FFF75CFD31BD70B58CB004000D00FC
:10674000564E300000F0B6F85548019002941020E3
:10675000039004950020059080200690002007906B
:1067600000200890002009904FF440500A9000202B
:106770000B9001A9300000F015F901220221300030
:1067800000F02EF900F070F80E208DF800000220C5
:106790008DF8010000208DF8020001208DF8030023
:1067A0006846FFF724FD0CB070BD70B58CB00400D6
:1067B0000D00042100226E463000FEF757FC2C210C
:1067C000002201AE3000FEF751FC364E300000F0E2
:1067D00071F8334801900294002003900495002042
:1067E000059080200690002007900020089000204F
:1067F00009904FF440500A9000200B9001A93000FE
:1068000000F0D0F801220221300000F0E9F85FF436
:1068100000302549086030684008400030600F2093
:106820008DF8000002208DF8010000208DF8020094
:1068300001208DF803006846FFF7D9FC0CB070BD4D
:10684000124A9388126813614FF40052164B1A6073
:10685000164A10600A0092B2154B1A600F4A13686C
:1068600053F00103136070474FF400500E49086065
:106870000A48016849084900016005480088400647
:10688000FBD5024881880068416170471C70000890
:10689000003801400C7000081470000844000240E9
:1068A00004380140580002400400024050000240F9
:1068B0004800024001684908490001600021016068
:1068C00000214160002181600021C1604A49884265
:1068D00005D14A490A6852F00F020A6061E048494E
:1068E000884205D145490A6852F0F0020A6058E032
:1068F0004449884205D141490A6852F470620A60ED
:106900004FE04149884205D13C490A6852F470423F
:106910000A6046E03D49884205D138490A6852F488
:1069200070220A603DE03A49884205D133490A683D
:1069300052F470020A6034E03649884205D12F498A
:106940000A6852F070620A602BE03349884205D130
:1069500032490A6852F00F020A6022E03049884248
:1069600005D12E490A6852F0F0020A6019E02D495B
:10697000884205D129490A6852F470620A6010E021
:106980002949884205D125490A6852F470420A60B3
:1069900007E02649884204D120490A6852F470224F
:1069A0000A60704730B4002304686FF30E148D68DA
:1069B0000A6A15430A6915434A6915438A691543EA
:1069C000CA6915434A6A15438A6A15432C43046011
:1069D000CA6842600A6882604A68C26030BC704718
:1069E0001300DBB2002B03D003680B43036002E00B
:1069F00003688B43036070470800024004000240B4
:106A00001C00024030000240440002405800024096
:106A10006C0002408000024008040240040402406E
:106A20001C04024030040240440402405804024066
:106A30002DE9F04100277D480068002840F0B4802F
:106A40007B480468641C0460002C1AD179490868EA
:106A50000068002807D0502080F31188BFF34F8FC3
:106A6000BFF36F8FFEE7D1F80080734802680A60B9
:106A7000C0F80080DFF8F4010168491C016000F0F3
:106A8000DFF8DFF8E0110868844278D3694A1068BB
:106A90000068002803D15FF0FF3008606FE01068E5
:106AA000C068C068050068680600B44201D20E6084
:106AB00065E06869EA68AB689A60AA68EB685A6042
:106AC00042682B1D9A4201D1EA68426000226A6145
:106AD0000268521E0260A86A002812D0A86A2A6AB8
:106AE000EB699A60EA692B6A5A60426815F11803EB
:106AF0009A4201D12A6A42600022AA620268521EAA
:106B00000260DFF86C2113685FF0010CE86A1CFA80
:106B100000FC5CEA03031360DFF858011422EB6AFF
:106B2000534303445B68AB60D3F808C0C5F80CC09E
:106B300015F1040CD3F808E0CEF804C015F1040CEC
:106B4000C3F808C0D5F82CC002FB0CFC8444C5F87F
:106B500014C0D5F82CC002FB0CFCD5F82CE002FBCD
:106B60000EF28258521C40F80C20DFF80C0100682D
:106B7000C06AEA6A904289D20120070086E7DFF8FE
:106B8000F8000068DFF8EC10C26A1420424388580D
:106B9000022801D301200700DFF8A00000680028C8
:106BA00007D00120070004E0DFF8BC000168491CA1
:106BB00001603800BDE8F0811C480068002804D05E
:106BC0000120DFF8781008602EE00020DFF86C105C
:106BD0000860DFF89C000068B0FA80F1D1F11F0175
:106BE0001422DFF8903002FB01F01858002807D17A
:106BF000502080F31188BFF34F8FBFF36F8FFEE7F4
:106C000002FB01F203EB02004268526842604268F4
:106C100010F108039A4202D142685268426040680B
:106C2000C068DFF854201060704700005009002051
:106C300038090020300900203409002044090020D0
:106C4000DFF8381008680068002804D15FF0FF30D2
:106C50000449086004E00868C068006801490860E9
:106C6000704700004C09002040090020480900201E
:106C70003C090020140000202C09002030090020CD
:106C800080B53D49086850F0010008603B4A136830
:106C90003B48034013600B683A4803400B600868A8
:106CA00030F480200860106830F4FE0010605FF45B
:106CB0001F003549086000F001F801BD80B500F003
:106CC00001F801BD82B000200190002000902A4907
:106CD000086850F480300860086810F400300090B4
:106CE0000198401C01900098002804D101984FF6AB
:106CF000FF729042F0D10868800302D50120009015
:106D000001E0002000900098012831D11F4802685E
:106D100052F010020260026892089200026002685B
:106D200052F00202026015480268026002680260C6
:106D3000026852F480620260026832F47C120260DF
:106D4000026852F4A02202600A6852F080720A605F
:106D50000A689201FCD50168890889000160016810
:106D600051F002010160016811F00C010829FAD10B
:106D700002B0704700000000001002400410024002
:106D80000000FFF8FFFFF6FE08100240002002405E
:106D90007047FEE7FEE7FEE7FEE770475FF400306E
:106DA00020490860204801684908490001601F48DF
:106DB0001F490968D1F508714180012101707047B0
:106DC00080B5FFF751FD5FF40030164908604FF4BD
:106DD0000870174908601448016851F0010101600A
:106DE00000201449087101BD13480188C90610D557
:106DF0005FF400310B4A11600B490A6852085200D7
:106E00000A600A490A4A1268D2F508724A800222C8
:106E10000A700088094908800948008809490880E3
:106E2000704700000400024058000240A8040020FF
:106E30005C0002408002002000380140560900201A
:106E40000438014058090020EFF30980BFF36F8F29
:106E50001D4B1A6820E9F00F106008B54FF0500084
:106E600080F31188BFF34F8FBFF36F8FFFF7A4FE3E
:106E70004FF0000080F31188BDE8084019680868E9
:106E8000B0E8F00F80F30988BFF36F8F70470E4BA7
:106E900019680868B0E8F00F80F30988BFF36F8FB6
:106EA0004FF0000080F311884EF00D0E7047074838
:106EB0000068006880F3088862B661B6BFF34F8F40
:106EC000BFF36F8F00DF00002C09002008ED00E009
:106ED00080B5502080F31188BFF34F8FBFF36F8FC1
:106EE000FFF7A6FD002803D05FF08050024908603C
:106EF000002080F3118801BD04ED00E010B50749C2
:106F000079441831064C7C44163404E00A68081DA4
:106F1000114488470146A142F8D110BD0800000085
:106F2000280000000FE1FFFF4809000014000020C6
:106F3000000000009FE1FFFF14000000740000004B
:106F4000000000200000000080B5FEF71EFEFEF7E6
:106F50004EFEFEF7ADFEFEF735FFFEF732FFFEF701
:106F600050FFFEF78BFFF2E700F00DF8002801D08C
:106F7000FFF7C4FFAFF300800020AFF30080FFF7FE
:106F8000E3FF00F002F80120704700F001B80000B4
:106F90000746384600F002F8FBE7000080B5AFF383
:106FA0000080024A11001820ABBEFBE72600020059
:106FB000000000000102030401020304060708099F
:106FC000020406080148804701480047816C000818
:106FD000E16F00080100020020000001000200042F
:106FE000AFF30080AFF30080FFF7BEFF0008014061
:106FF00023070000000C014020000000000C0140AD
:1070000080000000000C014040000000000801402A
:1070100000020000000801400004000000080140D8
:1070200000080000000C014000200000000C01409E
:1070300000400000000C014000800000000C0140F6
:1070400000080000000C0140001000000008014092
:1070500080000000000801404000000000080140DE
:10706000800000000008014000010000FFF7FEBFA3
:10707000FFF7FEBFFFF7FEBFFFF7FEBFFFF7FEBF44
:10708000FFF7FEBFFFF7FEBFFFF7FEBFFFF7FEBF34
:10709000FFF7FEBFFFF7FEBFFFF7FEBFFFF7FEBF24
:1070A000FFF7FEBFFFF7FEBFFFF7FEBFFFF7FEBF14
:1070B000FFF7FEBFFFF7FEBFFFF7FEBFFFF7FEBF04
:1070C000FFF7FEBFFFF7FEBFFFF7FEBFFFF7FEBFF4
:1070D000FFF7FEBFFFF7FEBFFFF7FEBFFFF7FEBFE4
:1070E000FFF7FEBFFFF7FEBFFFF7FEBFFFF7FEBFD4
:1070F000FFF7FEBFFFF7FEBFFFF7FEBFFFF7FEBFC4
:10710000FFF7FEBFFFF7FEBFFFF7FEBFFFF7FEBFB3
:10711000FFF7FEBFFFF7FEBFFFF7FEBFFFF7FEBFA3
:10712000FFF7FEBFFFF7FEBFFFF7FEBFFFF7FEBF93
:10713000FFF7FEBFFFF7FEBFFFF7FEBFFFF7FEBF83
:10714000FFF7FEBFFFF7FEBFFFF7FEBFFFF7FEBF73
:0400000508006FE19F
:00000001FF
