:020000040800F2
:1000000088460020C5290008D5270008D727000802
:10001000D9270008DB270008DD27000800000000C2
:10002000000000000000000000000000371B000876
:10003000DF27000800000000F11A00087D15000805
:10004000192A00081D2A0008212A0008252A00086C
:10005000292A00082D2A0008312A0008352A00081C
:10006000392A00083D2A0008412A0008452A0008CC
:10007000492A00084D2A000805280008E127000841
:10008000512A0008552A0008592A00085D2A00084C
:10009000612A0008652A0008692A00086D2A0008FC
:1000A000712A0008752A0008792A00087D2A0008AC
:1000B000812A0008852A0008892A00088D2A00085C
:1000C000912A0008952A0008992A00089D2A00080C
:1000D000A12A00082D280008A52A0008A92A00083E
:1000E000AD2A0008B12A0008B52A0008B92A00087C
:1000F000BD2A0008C12A0008C52A0008C92A00082C
:10010000CD2A0008D12A0008D52A0008D92A0008DB
:10011000DD2A0008E12A0008E52A0008E92A00088B
:10012000ED2A0008F12A0008F52A0008F92A00083B
:100130002DE9F14F86B00E0017009846119C129DD4
:10014000002C07D1502080F31188BFF34F8FBFF3ED
:100150006F8FFEE7002D07D1502080F31188BFF389
:100160004F8FBFF36F8FFEE76020009000986028EC
:1001700007D0502080F31188BFF34F8FBFF36F8FEC
:10018000FEE70098002D25D0002C23D004955FF0C9
:1001900060095FF0000ADDF810B052464946584643
:1001A00000F06AFF049804630220049981F85D005E
:1001B000002003900498029005A8019010980090E8
:1001C00043463A003100069800F04CF8049800F0DD
:1001D000B9F801E000200590059807B0BDE8F08F60
:1001E0002DE9F14F84B00E0017009846380080B218
:1001F000800000F091FF0500002D15D0602000F078
:100200008BFF0400002C0BD05FF060095FF0000A48
:10021000A34652464946584600F02EFF256304E0A7
:10022000280001F003F800E00024002C15D0002085
:1002300084F85D000020039002940F9801900E98BE
:10024000009043463A0092B23100049800F00AF858
:10025000200000F077F8012001E05FF0FF3005B0EA
:10026000BDE8F08F2DE9F94F81B00C0016000C9F0E
:100270000D9DDDF83880B00000905FF0A50BD8F838
:1002800030A05A460099504600F0F6FED8F83000EB
:1002900000EB8600B0F1040A5FEADA0A5FEACA0AF4
:1002A0001AF00700002807D0502080F31188BFF310
:1002B0004F8FBFF36F8FFEE7002C14D000208146D4
:1002C000B9F1140F0CD214F8090008EB090181F8F8
:1002D000340014F80900002802D019F10109EFE7F1
:1002E000002088F847001F2F07D3502080F3118883
:1002F000BFF34F8FBFF36F8FFEE71F2F01D31E2079
:100300000700C8F82C70C8F8507018F1040001F00C
:1003100044F818F1180001F040F8C8F81080D7F13F
:100320001F00C8F81800C8F82480029A01995046A6
:1003300001F088F8C8F80000002D01D0C5F8008051
:10034000BDE8F78F70B5040001F0E8F8DFF89C1500
:100350000868401C0860DFF898552868002806D116
:100360002C60086801280DD100F006FD0AE0DFF8D6
:1003700084050068002805D1E06A2968C96A8842B6
:1003800000D32C60DFF870050168491C016000682B
:10039000A064DFF868150A680123E06A83401A4305
:1003A0000A601420DFF85815E26A42430A4456688E
:1003B000A660B268E260221DB3685A60221DB26076
:1003C000E26A42430A446261E26A4243E36A00FB32
:1003D00003F00858401C885001F0BAF8DFF8140503
:1003E000006800280DD02868C06AE16A884208D2F7
:1003F0005FF08050DFF848170860BFF34F8FBFF3FE
:100400006F8F70BD70B5040001F088F8002C03D127
:10041000DFF8DC04056800E02500281D00F0E7FF98
:1004200000280FD1DFF8D814EA6A14204243885814
:10043000002807D1DFF8C4140A680123E86A834062
:100440009A430A60A86A002803D015F1180000F04A
:10045000CEFFDFF8A4040168491C0160DFF8906456
:10046000306885420AD1291DDFF8200600F098FF88
:10047000DFF81C060168491C016006E0DFF86C0427
:100480000168491E016000F0E9FC01F061F8306884
:10049000854202D0280000F0BFFCDFF85804006855
:1004A000002818D03068854215D1DFF85C06006856
:1004B000002807D0502080F31188BFF34F8FBFF37F
:1004C0006F8FFEE75FF08050DFF874160860BFF3AF
:1004D0004F8FBFF36F8F70BD38B505000024002D1E
:1004E00015D0DFF824060068002807D0502080F3DC
:1004F0001188BFF34F8FBFF36F8FFEE700F048F90D
:100500000021280000F050FD00F048F90400002C04
:1005100008D15FF08050DFF828160860BFF34F8FD6
:10052000BFF36F8F31BDF8B5040000F0F7FF002C6A
:1005300003D1DFF8BC03056800E02500281D00F0AA
:1005400056FF00280FD1DFF8B813EA6A142042439F
:100550008858002807D1DFF8A4130A680123E86A45
:1005600083409A430A60A86A002803D015F1180056
:1005700000F03DFFDFF83066291D300000F010FF6D
:10058000002001280CDA05EB000191F85C1001292C
:1005900004D1002105EB000282F85C10401CF0E75A
:1005A00000F0D6FFDFF84C733868002805D000F063
:1005B000B5FF00F053FC00F0CBFFDFF83413086800
:1005C000854224D13868002816D0DFF83C05006841
:1005D000002807D0502080F31188BFF34F8FBFF35E
:1005E0006F8FFEE75FF08050DFF854150860BFF3AF
:1005F0004F8FBFF36F8F0AE03068DFF8F022126888
:10060000904202D10020086001E000F043FAF1BD01
:1006100010B4020000201300002A07D1502181F3FA
:100620001188BFF34F8FBFF36F8FFEE75969DFF873
:100630007845A14209D1996ADFF8D447A14204D094
:10064000996A002901D10121080010BC7047F8B552
:1006500004002500002C07D1502080F31188BFF33F
:100660004F8FBFF36F8FFEE7DFF8846230688542FB
:100670003ED0002D3CD000F051FF2800FFF7C8FF0E
:10068000002833D0281D00F0B2FEDFF870120A688F
:100690000123E86A83401A430A601420DFF86012DD
:1006A000EA6A42430A445268AA609368EB602B1DD1
:1006B00097687B602B1D9360EB6A43430B446B612F
:1006C000EB6A4343EF6A00FB07F00858401CC85030
:1006D000E86A3168C96A884208D35FF08050DFF861
:1006E00094160860BFF34F8FBFF36F8F00F030FF99
:1006F000F1BD10B586B0002004900020039005AA3B
:1007000003A904A800F0F0FFDFF80847049802905E
:1007100003980190002000900023059ADFF86017ED
:100720000FF22D60FFF704FD20602068002801D043
:10073000012400E00024012C02D101F007F804009C
:10074000012C15D1502080F31188BFF34F8FBFF3D8
:100750006F8F5FF0FF30DFF84C17086001206549AC
:1007600008600020DFF8DC13086000F090FE0AE06B
:1007700014F1010F07D1502080F31188BFF34F8F80
:10078000BFF36F8FFEE7DFF82007006806B010BDEB
:10079000DFF874030168491C01607047F8B5002553
:1007A0000026DFF864432068002807D1502080F33A
:1007B0001188BFF34F8FBFF36F8FFEE700F0AEFEDF
:1007C0002068401E20602068002840F08480474850
:1007D0000068002800F07F80DFF8341608680028E1
:1007E00053D0C868C0680500A86A296AEA699160A0
:1007F000E9692A6A5160416815F11802914201D1F4
:10080000296A41600021A9620168491E0160686986
:10081000E968AA689160A968EA68516041682A1D80
:10082000914201D1E9684160002169610168491E76
:10083000016032490A680123E86A83401A430A606A
:100840002F481421EA6A4A4302445268AA60936816
:10085000EB602B1D946863602B1D9360EB6A4B4328
:1008600003446B61EB6A4B43EC6A01FB04F14158B2
:10087000491CC150E86A1E490968C96A8842ABD35D
:100880000120DFF888150860A6E7002D01D000F0F0
:10089000E5FADFF8D8763C68002C0CD000F032F88E
:1008A000002803D00120DFF864150860641E002CC6
:1008B000F4D100203860DFF85405006800280AD021
:1008C000012006005FF08050DFF874120860BFF36B
:1008D0004F8FBFF36F8F00F03BFE3000F2BDDFF8AB
:1008E0006402006870470148006870473C3C002083
:1008F0002C3C0020483C0020583C0020443C002078
:100900000C2800202DE9F04100277F4800680028CE
:1009100040F0B4808B480468641C0460002C1AD139
:100920009F4908680068002807D0502080F311888C
:10093000BFF34F8FBFF36F8FFEE7D1F80080994868
:1009400002680A60C0F80080DFF824060168491CCC
:10095000016000F083FADFF84C150868844278D310
:100960008F4A10680068002803D15FF0FF300860EC
:100970006FE01068C068C068050068680600B4428F
:1009800001D20E6065E06869EA68AB689A60AA689F
:10099000EB685A6042682B1D9A4201D1EA684260B6
:1009A00000226A610268521E0260A86A002812D002
:1009B000A86A2A6AEB699A60EA692B6A5A604268F7
:1009C00015F118039A4201D12A6A42600022AA62F4
:1009D0000268521E0260DFF89C2513685FF0010C6C
:1009E000E86A1CFA00FC5CEA03031360DFF8880580
:1009F0001422EB6A534303445B68AB60D3F808C02E
:100A0000C5F80CC015F1040CD3F808E0CEF804C00A
:100A100015F1040CC3F808C0D5F82CC002FB0CFC7F
:100A20008444C5F814C0D5F82CC002FB0CFCD5F8E2
:100A30002CE002FB0EF28258521C40F80C20DFF82A
:100A40003C050068C06AEA6A904289D2012007002A
:100A500086E7DFF828050068DFF81C15C26A142055
:100A600042438858022801D301200700DFF89C0385
:100A70000068002807D00120070004E0DFF8EC043C
:100A80000168491C01603800BDE8F081B03B0020DE
:100A9000383C00201C480068002804D00120DFF802
:100AA0006C1308602EE00020DFF860130860DFF8A8
:100AB000C4040068B0FA80F1D1F11F011422DFF8FC
:100AC000B83402FB01F01858002807D1502080F3F9
:100AD0001188BFF34F8FBFF36F8FFEE702FB01F268
:100AE00003EB0200426852684260426810F108035A
:100AF0009A4202D14268526842604068C068DFF89A
:100B00007C24106070470000643C002038B504006D
:100B10000D00002C07D1502080F31188BFF34F8FB8
:100B2000BFF36F8FFEE7DFF85404006810F118017F
:100B3000200000F041FC0121280000F035FA31BD11
:100B400004ED00E0403C002070B504000E001500EC
:100B5000002C07D1502080F31188BFF34F8FBFF3D3
:100B60006F8FFEE76068DFF814140A68D06182684E
:100B70000B681A620A68183283685A600A68183269
:100B8000826009688C622168491C2160002D02D0B6
:100B90005FF0FF3006002900300000F005FA70BD5C
:100BA000303C0020343C0020C43B002070B40200E4
:100BB000D068C168002907D1502080F31188BFF3A5
:100BC0004F8FBFF36F8FFEE7886A0B6ACC69A36013
:100BD000CB690C6A6360436811F11804A34201D128
:100BE0000B6A436000238B6203685B1E0360DFF8BF
:100BF00090030068002835D14869CB688C68A360F1
:100C00008B68CC68636043680C1DA34201D1CB683C
:100C1000436000234B6103685B1E0360DFF85433BD
:100C20001C680125C86A85402C431C60DFF8480316
:100C30001423CC6A5C43044464688C60A568CD606E
:100C40000D1DA66875600D1DA560CD6A5D43054448
:100C50004D61CD6A5D43CE6A03FB06F3C3585B1C4E
:100C6000435110E0DFF8A8315868C86184680C620D
:100C700011F1180485686C6011F1180484608B62AE
:100C80001C68641C1C60DFF8F4020068C06ACB6A50
:100C9000984204D2012001235C4C236000E0002034
:100CA00070BC7047DFF8C81209680160DFF8D41221
:100CB0000968416070472DE9F04104000D00002CE7
:100CC00007D1502080F31188BFF34F8FBFF36F8F90
:100CD000FEE7002D07D1502080F31188BFF34F8F1E
:100CE000BFF36F8FFEE700F019FCDFF8980206688B
:100CF0006768F71B286810F1010F02D15FF0000848
:100D00001DE0DFF86C0200682168884207D0606847
:100D1000864204D35FF00108002028600FE02868B5
:100D2000874208D22868C01B28602000FFF7BAFF5E
:100D30005FF0000803E0002028605FF0010800F089
:100D400007FC4046BDE8F08101203049086070474B
:100D500010B5040000F03AF8DFF81C020068022821
:100D6000F8D35FF0805003490860BFF34F8FBFF3A3
:100D70006F8FEFE704ED00E070B500241F2C09D25F
:100D8000DFF8F401142101FB04F1084400F0F6FA45
:100D9000641CF3E7DFF8F051280000F0EFFADFF809
:100DA000EC61300000F0EAFA194800F0E7FADFF8E9
:100DB000E00100F0E3FADFF8DC0100F0DFFADFF831
:100DC000D8010560DFF8D801066070BD38B5DFF8DE
:100DD000CC512868002817D000F0A0FBDFF8B00144
:100DE000C068C0680400201D00F001FBDFF8B401FA
:100DF0000168491E01602868401E286000F0A8FBB9
:100E0000200000F009F8E2E731BD0000503C00206E
:100E10009C3B0020603C002010B5040094F85D006D
:100E2000002806D1206B00F001FA200000F0FEF946
:100E300013E094F85D00012803D1200000F0F6F9DA
:100E40000BE094F85D00022807D0502080F3118851
:100E5000BFF34F8FBFF36F8FFEE710BDDFF8381180
:100E600008680068002804D15FF0FF300D49086071
:100E700004E00868C06800680A490860704700001C
:100E8000FC290008DFF8CC010068002801D101200E
:100E900007E0DFF8C4010068002801D1022000E06B
:100EA000002070475C3C002008000020F8B50400DA
:100EB00025000026002C57D0DFF8C00000688542CE
:100EC00007D0502080F31188BFF34F8FBFF36F8F8F
:100ED000FEE7686D002807D1502080F31188BFF32A
:100EE0004F8FBFF36F8FFEE7686D401E6865E86A3D
:100EF000296D884238D0686D002835D1281D00F052
:100F000076FA002806D11B490A680123E86A834063
:100F10009A430A60286DE862E86AD0F11F00A86170
:100F200014490A680123E86A83401A430A601420BE
:100F3000DFF82C11EA6A42430A445268AA609368B7
:100F4000EB602B1D97687B602B1D9360EB6A43431E
:100F50000B446B61EB6A4343EF6A00FB07F00858F0
:100F6000401CC850012006003000F2BD4C3C00205F
:100F7000543C0020443C00200C2800202C3C002045
:100F8000643C0020403C0020743B0020883B002053
:100F9000B03B0020C43B0020303C0020383C002007
:100FA000343C00203C3C00202DE9F04105000C00C1
:100FB0002C480768DFF89880D8F80000001D00F082
:100FC00016FA002808D1D8F8000024490A6801233D
:100FD000C06A83409A430A6015F1010F1AD1002CB0
:100FE00018D021484168D8F8002091608A68D8F864
:100FF0000030DA60D8F80020121D8B685A60D8F8EB
:101000000020121D8A60D8F8002050610268521C2E
:1010100002601AE0E8190600D8F800004660BE42F7
:1010200007D2D8F80000011D1048006800F0C4F98C
:101030000BE0D8F80000011D0D48006800F0BCF975
:101040000C4801688E4200D20660BDE8F0810000C5
:101050002C3C0020483C0020643C0020443C002004
:101060000C280020403C0020C43B0020343C0020E1
:10107000303C00205C3C002062F30F2262F31F42F0
:10108000401810F0030308D0C91A1FD3DB0748BF6C
:1010900000F8012D28BF20F8022D130030B41446AB
:1010A0001546103928BF20E93C00FAD8490728BF67
:1010B00020E90C0048BF40F8042D890028BF20F823
:1010C000022D48BF00F8012D30BC7047C91818BF69
:1010D00000F8012DCB0728BF00F8012D704730B470
:1010E000002513E050F8042BD30744BFA9F10103F6
:1010F0009A18091F042942F8045BFAD213468C0798
:1011000044BF15809B1CC90748BF1D7050F8041BC5
:101110000029E7D130BC70472DE9F84F04005FF09B
:101120000009FFF735FBDFF834A2DAF800000028E9
:1011300001D100F0B6F8002C0FD0894801680831C1
:1011400014F00700091A0D005FF0FF30401BA042A9
:1011500001D32C1901E000200400002C55D4002CF0
:1011600053D0DFF800B2DBF80000A0424DD37E4838
:101170000700006806007068A04205D230680028A9
:1011800002D037003668F6E7DAF8000086423CD035
:1011900073483968026811448946316839600068CB
:1011A00040007168091B884216D206EB0400804695
:1011B00018F00700002807D0502080F31188BFF3F3
:1011C0004F8FBFF36F8FFEE77068001BC8F80400F5
:1011D0007460404600F092F8DBF800107068091A5D
:1011E000CBF800106148DBF800100268914202D28F
:1011F000DBF800100160706850F000407060002063
:1012000030605B480168491C0160FFF7C7FA19F0BC
:101210000700002807D0502080F31188BFF34F8FBC
:10122000BFF36F8FFEE74846BDE8F28F70B504004C
:101230002600002C34D04A4800684042064435005D
:101240006868002807D4502080F31188BFF34F8FBF
:10125000BFF36F8FFEE72868002807D0502080F387
:101260001188BFF34F8FBFF36F8FFEE768680028C8
:1012700016D52868002813D1686820F000406860FF
:10128000FFF786FA37490A68686882180A602800FA
:1012900000F034F837480168491C0160FFF77EFA16
:1012A00070BD70B44FF420523348010011F0070FA5
:1012B00004D0C91DC908C900521A82180B002A4857
:1012C000036000244460D41825480068241AE40808
:1012D000E400224D2C6000202E68706000202E68F3
:1012E00030601800261A46602D68056045681F4E5C
:1012F000356045681B4E356070BC704730B41A4A83
:101300001168814201D21268FAE714005168214441
:10131000814204D153684168CB1853601000030028
:10132000416819441568A94210D10C4914680D6828
:10133000AC4208D04468116849680C1944601168CF
:101340000968016004E00968016001E0116801605A
:10135000824200D0106030BC70470000143C002076
:10136000142A0008183C0020003C00201C3C0020EF
:10137000203C0020243C00200C00002010F108013B
:1013800041605FF0FF31816010F10801C16010F130
:10139000080101610021016070470021016170476F
:1013A00042684A6093688B609368596091600861F5
:1013B00003685B1C0360704710B40B6813F1010FE6
:1013C00001D1026907E010F1080254682468A342C1
:1013D00001D35268F9E754684C604C68A1608A6098
:1013E000516008610468641C046010BC704701000F
:1013F00008698A684B689A604A688B685A604268D4
:101400008A4201D18A68426000220A610268521E43
:1014100002600068704730B40EE00268436802441E
:101420000830DC0744BFA9F10104E31852F8045B5B
:1014300043F8045B091FF9D150F8041B0029ECD1D3
:1014400030BC7047001F5FF080730360001F4B08C3
:101450005B000360001F0FF20D030360143802608D
:10146000203870474F48006810F1010F07D0502016
:1014700080F31188BFF34F8FBFF36F8FFEE75020CB
:1014800080F31188BFF34F8FBFF36F8FFEE7E0B596
:10149000454801780191FF21017001788DF8001015
:1014A0009DF8001011F05001404A11704049072288
:1014B0000A609DF80020120608D50A68521E0A60CC
:1014C0009DF8002052008DF80020F2E70A68D2F162
:1014D0000702042A07D0502181F31188BFF34F8FF0
:1014E000BFF36F8FFEE70A6812020A600A6812F4FF
:1014F000E0620A60019901702E48016851F47001A0
:101500000160016851F07041016000F057F800205F
:101510002449086000F01FFB00200EBD502080F31E
:101520001188BFF34F8FBFF36F8F1E490A68521C9B
:101530000A60096801290AD11F490968090606D00D
:1015400080F31188BFF34F8FBFF36F8FFEE77047B3
:1015500014490868002807D1502080F31188BFF390
:101560004F8FBFF36F8FFEE70868401E0860086862
:10157000002802D1002080F31188704780B55020E8
:1015800080F31188BFF34F8FBFF36F8FFFF7BAF966
:10159000002803D05FF0805007490860002080F3E6
:1015A000118801BD0000002000E400E0803C002024
:1015B000283C002020ED00E004ED00E00848002178
:1015C00001600021074A1160074909684FF47A72E7
:1015D000B1FBF2F1491E054A116007210160704715
:1015E00010E000E018E000E00400002014E000E05B
:1015F00080B50121434800F034FB43488188ADF8B1
:10160000001010218DF8031001218DF80210694699
:10161000006800F0B1FA01BDE0B53C4802903C48DA
:10162000019002200090002380223A490FF24D00E1
:10163000FEF77EFD3849086038480290384801902E
:10164000032000900023802236490FF26100FEF74C
:101650006FFD3549086035480290354801900420F7
:1016600000900023802233490FF24D00FEF760FD09
:10167000314908600020FEF7C5FE07BD10B5002403
:101680002000C0B2002806D1012004001E48818835
:101690000068416105E0002004001B488188006863
:1016A00001614FF4FA70FEF717FFE9E780B54FF4D8
:1016B000FA70FEF711FFFAE710B500242000C0B25F
:1016C000012804D114480068FEF72DFF07E0200030
:1016D000C0B2022803D110480068FEF7B8FF4FF4EB
:1016E000FA70FEF7F9FEE9E7144B0360144B0B6048
:1016F000802313607047134B0360134B0B608023F0
:101700001360704700023000EC290008C438002044
:10171000C42E002094290008083C00202439002011
:10172000C4300020A42900080C3C0020843900208B
:10173000C4320020B4290008103C0020E439002005
:10174000C4340020443A0020C436002038B586B0A6
:10175000002400F08FF9DFF86803006800281ED02D
:10176000002004900020039005AA03A904A8FFF715
:10177000C2FFDFF8505304980290039801900220B2
:1017800000900023059ADFF840130FF29100FEF756
:10179000CFFC28602868002801D001200400002C1C
:1017A00007D1502080F31188BFF34F8FBFF36F8FA5
:1017B000FEE7200007B030BD70B504000D00160034
:1017C0002B003200A1694919200000F091F800288F
:1017D00005D0A06945192000216A8847F0E770BD4F
:1017E00070B504000D00B9480068C068C668301DB7
:1017F000FFF7FDFD96F82800400705D52A002100D7
:101800003000FFF7D9FF05E096F8280010F0FE0041
:1018100086F828003000316A884770BD38B504006A
:10182000684600F03FF805000099280000F003F832
:1018300000F086F8F4E77CB505000C00FEF7A8FF81
:10184000684600F042F806000098002827D1002CD6
:1018500008D1AE4206D3FEF7A1FF31002800FFF702
:10186000BFFF1EE0002C07D09948006800680028E0
:1018700001D1012400E000242200A91B9048006847
:1018800000F0A4FCFEF78AFF00280AD15FF0805028
:1018900090490860BFF34F8FBFF36F8F01E0FEF7F1
:1018A0007DFF73BD0100894A10680068002801D1DE
:1018B000012000E0002008600868002803D11068BB
:1018C000C068006800E00020704770B50400FFF7B2
:1018D00006F80500804E3068854204D200F0B4F866
:1018E0000120206001E0002020603560280070BDEC
:1018F0002DE9F04104000D0016001F005FF0000804
:1019000065602461AE420CD3F01BA169884202D30A
:101910000120804611E0211D6D480068FFF74CFD55
:101920000BE0BE4204D2BD4202D30120804604E057
:10193000211D66480068FFF73FFD4046BDE8F08185
:1019400038B584B0002269465D48006800F09DFA11
:10195000002877D000980028F4D402980400606929
:10196000002802D0201DFFF742FD03A8FFF7ADFFBE
:101970000500009801280DD063D3032830D009D387
:1019800005284FD033D3072804D003D309282ED0FD
:1019900026D356E094F8280050F0010084F828007F
:1019A000019B2A000199A06941182000FFF7A0FFC0
:1019B000002814D094F82800400707D52A00019980
:1019C000A06941182000FFF7F7FE05E094F8280011
:1019D00010F0FE0084F828002000216A8847B1E753
:1019E00094F8280010F0FE0084F82800AAE794F884
:1019F000280050F0010084F828000198A061A06937
:101A0000002807D1502080F31188BFF34F8FBFF318
:101A10006F8FFEE72B002A00A16949192000FFF70C
:101A200067FF8FE794F82800800703D42000FFF7B2
:101A3000FDFB05E094F8280010F0FE0084F8280073
:101A400080E77FE705B030BD10B520490868006821
:101A5000002809D00868C068006804005FF0FF3102
:101A60002000FFF7BDFEF0E70868194A13680B6015
:101A7000106010BD7CB5FFF751FD114C20680028A7
:101A80001BD1164D2800FFF779FC154E3000FFF7EB
:101A900075FC0E4805600E48066000200090114B52
:101AA000114A0C21052000F088F9206020680028E8
:101AB00003D00E49206800F05AFBFFF749FD73BDC3
:101AC000703C0020743C0020042A0008683C002080
:101AD0006C3C002004ED00E0783C0020D83B002066
:101AE000EC3B0020A43A0020383B00200C2A0008E0
:101AF000EFF30980BFF36F8F1D4B1A6820E9F00FD9
:101B0000106008B54FF0500080F31188BFF34F8F7D
:101B1000BFF36F8FFEF7BEFF4FF0000080F3118818
:101B2000BDE8084019680868B0E8F00F80F309883C
:101B3000BFF36F8F70470E4B19680868B0E8F00F5D
:101B400080F30988BFF36F8F4FF0000080F3118896
:101B50004EF00D0E704707480068006880F3088853
:101B600062B661B6BFF34F8FBFF36F8F00DF000027
:101B70002C3C002008ED00E0F0B5002200230024FA
:101B800000250026002791F803C01CF00F0C91F8E7
:101B900003E05FEACE6E02D58A7852EA0C0C0A782E
:101BA00012062AD00268160000221400082C23D244
:101BB0005FF0010E1EFA04F215000A882A40130095
:101BC000AB4217D1A20015000F22AA401700BE4356
:101BD0001CFA05F21643CA78282A04D11EFA04FE1C
:101BE000C0F814E006E0CA78482A03D11EFA04FEC1
:101BF000C0F810E0641CD9E706600A88B2F5807F5F
:101C00002EDB4268160000221400082C27D25FF059
:101C1000010E14F108021EFA02F215000A882A4089
:101C20001300AB4219D1A20015000F22AA401700E1
:101C3000BE431CFA05F21643CA78282A04D114F1CF
:101C400008021EFA02F24261CA78482A05D114F14C
:101C500008021EFA02FEC0F810E0641CD5E74660D8
:101C6000F0BDF0B40022002300250027002802D593
:101C70001D4C246801E01D4C2468C0F3034586B266
:101C800010F4401CBCF5401F07D134F07064174AB3
:101C9000176837F07067176011E0C20206D503229B
:101CA000AA4013009C4354F0706408E00200520DF7
:101CB000D2B2120116FA02F2944354F070640A0090
:101CC000D2B2002A06D00200520DD2B2120116FA88
:101CD00002F21443002802D5034A146001E0034ACB
:101CE0001460F0BC704700001C000140040001407B
:101CF000F8B507000D0001263C00002C07D150204C
:101D000080F31188BFF34F8FBFF36F8FFEE7002C76
:101D100045D0E06B002842D05FF0FF30E16BB0FBB4
:101D2000F1F0216C88423AD3FFF7F8FB2168E26BAF
:101D3000206C424301EB0200A0600020A0632068F9
:101D400060602168E26B521E206C424301EB02008E
:101D5000E0605FF0FF3084F8440084F84500002D17
:101D600012D12069002817D014F11000FEF71EFFD1
:101D7000002811D05FF08050DFF878120860BFF3C0
:101D80004F8FBFF36F8F07E014F11000FFF7F6FAE3
:101D900014F12400FFF7F2FAFFF7DAFB01E000206C
:101DA0000600002E07D1502080F31188BFF34F8F1B
:101DB000BFF36F8FFEE73000F2BD2DE9F843070057
:101DC0000C0015001E00DDF820905FF00008002ECA
:101DD00007D1502080F31188BFF34F8FBFF36F8F6F
:101DE000FEE7002F25D0002E23D0002D01D0002C9F
:101DF0001FD0002D01D1002C1BD154200090009841
:101E0000542807D0502080F31188BFF34F8FBFF3C1
:101E10006F8FFEE70098B046012088F84600CDF8A5
:101E200000804B46DBB22A002100380000F00FF89A
:101E30000AE0B8F1000F07D1502080F31188BFF3FA
:101E40004F8FBFF36F8FFEE74046BDE8F2832DE969
:101E5000F04105000C0016001F00DDF81880002C72
:101E600002D1C8F8008001E0C8F80060C8F83C5012
:101E7000C8F8404001214046FFF73AFF88F850700B
:101E80000020C8F84800BDE8F0812DE9F64182B095
:101E900080460E0000244746002F07D1502080F3D3
:101EA0001188BFF34F8FBFF36F8FFEE7002E02D173
:101EB000386C002801D1012000E00020C0B20028C9
:101EC00007D1502080F31188BFF34F8FBFF36F8F7E
:101ED000FEE7FEF7D7FF002802D10398002801D1C2
:101EE000012000E00020C0B2002807D1502080F37C
:101EF0001188BFF34F8FBFF36F8FFEE7FFF70EFB25
:101F0000BD6B002D1BD03100380000F0C3F8681EF7
:101F1000B863386900280ED017F11000FEF746FEAE
:101F2000002808D05FF08050DFF8C8100860BFF3C9
:101F30004F8FBFF36F8FFFF70BFB012057E0039824
:101F4000002803D1FFF704FB002050E0002C04D14F
:101F50006846FEF7A7FE01200400FFF7F9FAFEF736
:101F600017FCFFF7DBFA97F9440010F1010F02D1DB
:101F7000002087F8440097F9450010F1010F02D1C5
:101F8000002087F84500FFF7E3FA03A96846FEF74B
:101F900092FE002820D1380000F0DBF8002815D090
:101FA000039917F12400FEF7B1FD380000F08DF819
:101FB000FEF7F4FB0028A1D15FF08050DFF8341069
:101FC0000860BFF34F8FBFF36F8F97E7380000F0C3
:101FD0007CF8FEF7E3FB91E7380000F076F8FEF7B7
:101FE000DDFB380000F0B5F8002887D0002004B0F1
:101FF000BDE8F08104ED00E02DE9F84F06000F0088
:1020000014005FF00008B56B306C002809D130680F
:1020100000283AD1B068FEF749FF80460020B06042
:1020200033E0002C14D1D6F84090BA46D6F804B06C
:102030004A465146584600F03FF97068316C0844F2
:1020400070607068B16888421FD3306870601CE0AF
:10205000D6F84090BA46D6F80CB04A465146584693
:1020600000F02AF9F068316C49420844F060F068E9
:102070003168884204D2B068316C49420844F0604B
:10208000022C02D1002D00D06D1E681CB0634046AA
:10209000BDE8F28F2DE9F04104000D00206C00280E
:1020A00011D0E068216C0844E060E068A1688842D3
:1020B00001D32068E060266CE768A846320039004A
:1020C000404600F0F9F8BDE8F081F8B50400FFF7EC
:1020D00025FA94F94550280040B2012819DBA06C7C
:1020E000002807D0200000F097F800280FD0FEF756
:1020F0002BFE0CE0606A002808D014F12400FEF7E3
:1021000055FD002803D0FEF71FFE00E001E06D1E24
:10211000E1E75FF0FF3684F84560FFF719FAFFF753
:10212000FDF994F94470380040B201280CDB2069B5
:10213000002809D014F11000FEF738FD002801D066
:10214000FEF702FE7F1EEEE784F84460FFF700FA18
:10215000F1BD38B50400FFF7E1F9A06B002801D10B
:10216000012500E00025FFF7F3F9280032BD30B467
:102170000022002807D1502383F31188BFF34F8F2B
:10218000BFF36F8FFEE7002918D000231C00082C36
:1021900014D20D4D05EBC4035B68984203D105EBE7
:1021A000C4031A000AE0002A06D155F83430002B87
:1021B00002D105EBC4031A00641CE8E7002A01D031
:1021C0001160506030BC7047F83A0020F8B5040048
:1021D0000D0016002700FFF7A1F997F9440010F150
:1021E000010F02D1002087F8440097F9450010F153
:1021F000010F02D1002087F84500FFF7A9F9B86B5D
:10220000002805D13200290017F12400FEF79CFCBC
:102210003800FFF75AFFF1BD71B581B00198846CA9
:102220000025002C07D1502080F31188BFF34F8F79
:10223000BFF36F8FFEE7A06BE16B884207D350209E
:1022400080F31188BFF34F8FBFF36F8FFEE7A06B52
:10225000E16B88422ED294F94560002201A920004A
:10226000FFF7CAFE050030005FF0FF3140B2884240
:102270000BD1606A00281DD014F12400FEF796FCF3
:10228000002817D00120050014E0FEF72CFB3100D8
:1022900049B281420ED2310049B27F2907D1502183
:1022A00081F31188BFF34F8FBFF36F8FFEE7761C6A
:1022B00084F84560280076BD62B38B0708D0521EB3
:1022C00011F8013B00F8013B00F024808B07F6D1A8
:1022D000830740F0208000BF103A07D330B4B1E844
:1022E0003810103AA0E83810F9D230BC530724BF98
:1022F000B1E80810A0E8081044BF51F8043B40F8CA
:10230000043BD20724BF31F8022B20F8022B44BF34
:102310000B7803707047121F17D35B0009D151F877
:10232000043B20F8023B1B0C121F20F8023BF6D2A4
:102330000BE051F8043B00F8013B1B0A20F8023B7C
:102340001B0C121F00F8013BF3D238BF121D521EA6
:1023500024BF11F8013B00F8013BF8D8704700009A
:10236000DFF8D411086850F001000860DFF8CC21D4
:102370001368DFF8CC01034013600B68DFF8C40179
:1023800003400B60086830F480200860106830F467
:10239000FE0010605FF41F00DFF8AC1108607047AA
:1023A000DFF894110A6832F480320A600A6832F465
:1023B00080220A600200B2F5803F03D0B2F5802F80
:1023C00005D009E00A6852F480320A6004E00A6825
:1023D00052F4A0220A60FFE7704738B50020009051
:1023E00000240025312000F083F805000098401CEF
:1023F000009000984FF6FF71884203D02800C0B2C9
:102400000028EFD0312000F073F8002801D001201F
:1024100000E00020C0B232BD30B40023474D2C682C
:1024200034F47C1451EA000214432C6030BC704731
:102430000100C9B2454A1160704700213F4B1A683C
:102440009208920002431A6070473C48006810F0FE
:102450000C0070470021394B1A6832F0F002024339
:102460001A6070470021354B1A6832F4E06202436B
:102470001A6070470021314B1A6832F4605252EAF8
:10248000C0021A60704732490860704700212B4B28
:102490001A6832F4404202431A6070470A00D2B20E
:1024A000002A04D02C4A13680343136003E02A4A2D
:1024B00013688343136070470A00D2B2002A04D025
:1024C000264A13680343136003E0244A13688343D6
:1024D000136070470A00D2B2002A04D0204A136861
:1024E0000343136003E01E4A13688343136070477D
:1024F00030B401000020002300250A00D2B25209A6
:10250000D2B2012A02D10C48046806E0022A02D1A4
:102510001048046801E0134804680B00DBB213F0B4
:102520001F032000D840C00701D5012000E0002093
:10253000C0B230BC704700000010024004100240DE
:102540000000FFF8FFFFF6FE081002406000424264
:10255000D8004242201002401410024018100240DD
:102560001C1002402410024080B53D49086850F01C
:10257000010008603B4A13683B48034013600B6846
:102580003A4803400B60086830F480200860106807
:1025900030F4FE0010605FF41F003549086000F061
:1025A00001F801BD80B500F001F801BD82B0002046
:1025B0000190002000902A49086850F4803008609B
:1025C000086810F4003000900198401C01900098B9
:1025D000002804D101984FF6FF729042F0D10868AC
:1025E000800302D50120009001E0002000900098B7
:1025F000012831D11F48026852F0100202600268BF
:10260000920892000260026852F0020202601548CD
:102610000268026002680260026852F4806202602E
:10262000026832F47C120260026852F4A022026056
:102630000A6852F080720A600A689201FCD501684B
:10264000890889000160016851F002010160016898
:1026500011F00C010829FAD102B070470000000007
:1026600000100240041002400000FFF8FFFFF6FED9
:1026700008100240002002404FF4C0414843401C73
:102680000100481E0029FBD1704738B50024FFF730
:1026900067FE5FF48030FFF783FEFFF79EFE0500C4
:1026A0002800C0B201282BD10020FFF7D3FE002064
:1026B000FFF7E0FE4FF48060FFF7D4FE4FF4404098
:1026C000FFF7E4FE0020FFF7DEFE022000F058F8DE
:1026D000102000F05EF85FF480115FF48030FFF7A7
:1026E0009BFE0120FFF7A4FE3920FFF701FF002821
:1026F000FAD00220FFF7A1FEFFF7A7FE0828FBD1C2
:1027000031BD10B504002100C9B20120FFF7C6FE9B
:102710002100C9B20720FFF7DDFE2100C9B244F253
:102720001D20FFF7C9FE10BD80B500215FF00060DD
:1027300000F041F84FF4A06000F038F801BD80B51A
:10274000FFF7A3FFFFF7F0FF0120FFF7DAFF4FF4D9
:10275000407000F02BF84FF4FA70FFF78DFF4FF444
:10276000FA70FFF789FF4FF4FA70FFF785FF4FF417
:10277000FA70FFF781FF72B6FEF73AFF62B601BD4D
:102780000021DFF824301A6812F0380202431A6080
:102790007047DFF814100A6832F010020A600A6805
:1027A00002430A60704700000020024005490143CF
:1027B000054A11607047054A0A400243044B1A60FB
:1027C000704700000000FA050CED00E080FFFF1FDD
:1027D00008ED00E07047FEE7FEE7FEE7FEE7704722
:1027E0005FF400302049086020480168490849002A
:1027F00001601F481F490968D1F508714180012116
:102800000170704780B500F041F85FF40030164960
:1028100008604FF40870174908601448016851F0C7
:102820000101016000201449087101BD13480188AD
:10283000C90610D55FF400310B4A11600B490A68D4
:10284000520852000A600A490A4A1268D2F5087210
:102850004A8002220A7000880949088009480088D5
:1028600009490880704700000400024058000240F7
:10287000A02C00205C000240782A00200038014093
:102880007C3C0020043801407E3C00204FF4005086
:102890000A4908600848016849084900016005487C
:1028A00000884006FBD50248818800684161704776
:1028B000F4290008003801404400024004000240AE
:1028C000E0B5FFF73CFF00200190012000900023BD
:1028D000802204490448FDF783FCFDF70AFF00202D
:1028E0000EBD00BF802900081916000810B5074961
:1028F00079441831064C7C44163404E00A68081DFB
:10290000114488470146A142F8D110BD08000000DB
:1029100028000000CBE7FFFF783C00000C000020FF
:1029200000000000F3EAFFFF0C000000B40000000C
:10293000000000200000000000F00DF8002801D089
:10294000FFF7D4FFAFF300800020AFF30080FFF764
:10295000B7FF00F002F80120704700F001B8000056
:102960000746384600F002F8FBE7000080B5AFF3F9
:102970000080024A11001820ABBEFBE726000200CF
:102980004465766963655F5461736B437265617416
:10299000000000004465766963655F5461736B31C4
:1029A000000000004465766963655F5461736B32B3
:1029B000000000004465766963655F5461736B33A2
:1029C00000000000014880470148004769250008D1
:1029D000D5290008AFF30080AFF30080FFF7ACFF0C
:1029E000AAAAAAAA00A24A041E000000000C0140E4
:1029F00000080000000801400008000049444C4560
:102A000000000000546D722053766300546D7251C3
:102A10000000000008000000FFF7FEBFFFF7FEBF48
:102A2000FFF7FEBFFFF7FEBFFFF7FEBFFFF7FEBFDA
:102A3000FFF7FEBFFFF7FEBFFFF7FEBFFFF7FEBFCA
:102A4000FFF7FEBFFFF7FEBFFFF7FEBFFFF7FEBFBA
:102A5000FFF7FEBFFFF7FEBFFFF7FEBFFFF7FEBFAA
:102A6000FFF7FEBFFFF7FEBFFFF7FEBFFFF7FEBF9A
:102A7000FFF7FEBFFFF7FEBFFFF7FEBFFFF7FEBF8A
:102A8000FFF7FEBFFFF7FEBFFFF7FEBFFFF7FEBF7A
:102A9000FFF7FEBFFFF7FEBFFFF7FEBFFFF7FEBF6A
:102AA000FFF7FEBFFFF7FEBFFFF7FEBFFFF7FEBF5A
:102AB000FFF7FEBFFFF7FEBFFFF7FEBFFFF7FEBF4A
:102AC000FFF7FEBFFFF7FEBFFFF7FEBFFFF7FEBF3A
:102AD000FFF7FEBFFFF7FEBFFFF7FEBFFFF7FEBF2A
:102AE000FFF7FEBFFFF7FEBFFFF7FEBFFFF7FEBF1A
:0C2AF000FFF7FEBFFFF7FEBFFFF7FEBFC1
:04000005080029D5F1
:00000001FF
