:020000040800F2
:10000000383D0020556E00085D6800085F680008F4
:100010006168000863680008656800080000000067
:10002000000000000000000000000000B31F0008F6
:1000300067680008000000006D1F0008B91A00087A
:10004000C16E0008C56E0008C96E0008CD6E0008BC
:10005000D16E0008D56E0008D96E0008DD6E00086C
:10006000E16E0008E56E0008E96E0008ED6E00081C
:10007000F16E0008F56E0008ED680008C968000818
:10008000F96E0008FD6E0008016F0008056F00089A
:10009000096F00080D6F0008116F000869680008FB
:1000A000156F0008196F00081D6F0008216F000808
:1000B000256F0008296F00082D6F0008316F0008B8
:1000C000356F0008396F00083D6F0008416F000868
:1000D000456F000815690008496F00084D6F00085A
:1000E000516F0008556F0008596F00085D6F0008D8
:1000F000616F0008656F0008696F00086D6F000888
:10010000716F0008756F0008796F00087D6F000837
:10011000816F0008856F0008896F00088D6F0008E7
:10012000916F0008956F0008996F00089D6F000897
:100130002DE9F14F84B00E0017009846380080B2C8
:10014000800001F06BFA0500002D15D0602001F051
:1001500065FA0400002C0BD05FF060095FF0000A24
:10016000A34652464946584601F08AFB256304E0FF
:10017000280001F0DDFA00E00024002C12D000205D
:10018000039002940F9801900E98009043463A0015
:1001900092B23100049800F00AF8200000F077F8DD
:1001A000012001E05FF0FF3005B0BDE8F08F2DE9E0
:1001B000F94F81B00C0016000C9F0D9DDDF83880C2
:1001C000B00000905FF0A50BD8F830A05A46009917
:1001D000504601F055FBD8F8300000EB8600B0F136
:1001E000040A5FEADA0A5FEACA0A1AF0070000287E
:1001F00007D0502080F31188BFF34F8FBFF36F8F6C
:10020000FEE7002C14D000208146B9F1140F0CD267
:1002100014F8090008EB090181F8340014F809000A
:10022000002802D019F10109EFE7002088F8470003
:100230001F2F07D3502080F31188BFF34F8FBFF3D8
:100240006F8FFEE71F2F01D31E200700C8F82C7008
:10025000C8F8507018F1040001F054FB18F11800B0
:1002600001F050FBC8F81080D7F11F00C8F8180043
:10027000C8F82480029A0199504601F081FBC8F821
:100280000000002D01D0C5F80080BDE8F78F70B5E3
:10029000040001F0E1FBDFF8241A0868401C086044
:1002A000DFF81C5A2868002806D12C60086801284D
:1002B0000DD100F0B5FF0AE0DFF8B00A00680028B1
:1002C00005D1E06A2968C96A884200D32C60DFF84A
:1002D000A00A0168491C01600068A064DFF8941A54
:1002E0000A680123E06A83401A430A601420DFF899
:1002F000881AE26A42430A445668A660B268E2601D
:10030000221DB3685A60221DB260E26A42430A4469
:100310006261E26A4243E36A00FB03F00858401C52
:10032000885001F0B3FBDFF8440A006800280DD0C4
:100330002868C06AE16A884208D25FF08050DFF81E
:100340003C1A0860BFF34F8FBFF36F8F70BD70B55D
:10035000040001F081FB002C03D1DFF8640905687B
:1003600000E02500281D01F0F7FA00280FD1DFF882
:10037000081AEA6A142042438858002807D1DFF897
:10038000F4190A680123E86A83409A430A60A86A5C
:10039000002803D015F1180001F0DEFADFF8D009CB
:1003A0000168491C0160DFF81869306885420AD18C
:1003B000291DDFF8CC0901F0A8FADFF8C8090168A7
:1003C000491C016006E0DFF8F4080168491E01607D
:1003D00001F015F801F05AFB3068854202D0280080
:1003E00001F004F8DFF884090068002818D03068AC
:1003F000854215D1DFF890090068002807D0502009
:1004000080F31188BFF34F8FBFF36F8FFEE75FF06C
:100410008050DFF868190860BFF34F8FBFF36F8F0C
:1004200070BD2DE9F04104000D000026002C07D11D
:10043000502080F31188BFF34F8FBFF36F8FFEE71B
:10044000002D07D1502080F31188BFF34F8FBFF3E9
:100450006F8FFEE7DFF830090068002807D05020D2
:1004600080F31188BFF34F8FBFF36F8FFEE700F06B
:10047000DCFADFF81809D0F800802768EF19206847
:10048000804507D2206887420BD2B84509D20120A7
:10049000060006E02068874201D3B84501D201205A
:1004A00006002760002E04D00021B7EB080001F001
:1004B00049F800F0C0FA0100002908D15FF080502F
:1004C000DFF8B8281060BFF34F8FBFF36F8F300095
:1004D000BDE8F08138B505000024002D15D0DFF807
:1004E000A8080068002807D0502080F31188BFF3C7
:1004F0004F8FBFF36F8FFEE700F097FA00212800BF
:1005000001F020F800F097FA0400002C08D15FF009
:100510008050DFF868180860BFF34F8FBFF36F8F0C
:1005200031BD2DE9F04106003500002D07D15020E6
:1005300080F31188BFF34F8FBFF36F8FFEE7DFF8B3
:1005400080070068854201D1002034E001F084FA80
:1005500068690400DFF8C40900680700DFF8C00913
:100560000068804601F092FABC4201D0444501D1B6
:10057000022020E0DFF8AC09844213D1A86A0028E9
:100580000ED103200021012915DA05EB010292F8B2
:100590005C20012A02D1022210000CE0491CF2E783
:1005A000022008E0DFF8D807844201D0002C01D1F6
:1005B000042000E00120C0B2BDE8F08170B5040065
:1005C00001F04AFA002C03D1DFF8F406056800E0D8
:1005D0002500EE6A01F05AFA300070BD2DE9F84F9F
:1005E00004000E0000251F2E07D3502080F3118831
:1005F000BFF34F8FBFF36F8FFEE71F2E01D31E2077
:10060000060001F029FA002C04D1DFF8B406D0F876
:10061000008000E0A046D8F85090B1457BD0B145AD
:100620000BD2DFF89C06016888450DD00068C06ACF
:10063000864209D30120050006E0DFF88406006841
:10064000804501D101200500D8F82C000700D8F81A
:100650005000D8F82C10884201D1C8F82C60C8F896
:100660005060D8F81800002803D4D6F11F00C8F84D
:100670001800DFF804A75FF0140BD8F814000BFB88
:1006800007F1514488423BD118F1040001F064F9AC
:10069000002806D1DFF8DC0601680122BA40914348
:1006A0000160DFF8D0160A680123D8F82C008340D7
:1006B0001A430A60D8F82C000BFB00F05044406845
:1006C000C8F808008168C8F80C1018F104018268A5
:1006D000516018F104018160D8F82C100BFB01F176
:1006E0005144C8F81410D8F82C100BFB01F1D8F8BD
:1006F0002C200BFB02FB5AF80B20521C4AF801205D
:10070000002D08D05FF08050DFF8141A0860BFF3A6
:100710004F8FBFF36F8F01F0B9F9BDE8F18FF8B5D6
:10072000040001F099F9002C03D1DFF89405056865
:1007300000E02500281D01F00FF900280FD1DFF897
:100740003816EA6A142042438858002807D1DFF897
:1007500024160A680123E86A83409A430A60A86A5B
:10076000002803D015F1180001F0F6F8DFF8B4679F
:10077000291D300001F0C9F8002001280CDA05EB32
:10078000000191F85C10012904D1002105EB000261
:1007900082F85C10401CF0E701F078F9DFF8CC75C6
:1007A0003868002805D001F057F900F028FE01F064
:1007B0006DF9DFF80C150868854224D138680028E7
:1007C00016D0DFF8C4050068002807D0502080F359
:1007D0001188BFF34F8FBFF36F8FFEE75FF080503C
:1007E000DFF898150860BFF34F8FBFF36F8F0AE0F3
:1007F0003068DFF8C8241268904202D100200860F7
:1008000001E000F091FBF1BD10B4020000201300E4
:10081000002A07D1502181F31188BFF34F8FBFF316
:100820006F8FFEE75969DFF8FC46A14209D1996A4A
:10083000DFF8E049A14204D0996A002901D10121E1
:10084000080010BC7047F8B504002500002C07D143
:10085000502080F31188BFF34F8FBFF36F8FFEE7F7
:10086000DFF85C64306885423ED0002D3CD001F05A
:10087000F3F82800FFF7C8FF002833D0281D01F047
:100880006BF8DFF8F0140A680123E86A83401A4322
:100890000A601420DFF8E014EA6A42430A4452680E
:1008A000AA609368EB602B1D97687B602B1D93609B
:1008B000EB6A43430B446B61EB6A4343EF6A00FB13
:1008C00007F00858401CC850E86A3168C96A884275
:1008D00008D35FF08050DFF848180860BFF34F8FEF
:1008E000BFF36F8F01F0D2F8F1BDF8B50400002519
:1008F0002600002C07D1502080F31188BFF34F8FC2
:10090000BFF36F8FFEE701F0EBF8EFF31187502094
:1009100080F31188BFF34F8FBFF36F8F3000FFF765
:1009200073FF002841D0DFF860040068002836D14A
:10093000F06ADFF88C130968C96A884205D3012080
:1009400005000120DFF8D0180860301D01F004F820
:10095000DFF820140A680123F06A83401A430A6012
:100960001420DFF81414F26A42430A445268B26059
:100970009368F360331DD2F808C0CCF80430331DFF
:100980009360F36A43430B447361F36A4343D6F8BD
:100990002CC000FB0CF00858401CC85005E016F1B4
:1009A0001801DFF8B40900F0B0FF87F311882800C0
:1009B000F2BD1CB5DFF86408019000200090002310
:1009C0008022DFF8B018DFF8B008FFF7B1FB0400B1
:1009D000012C02D101F0D6F80400012C16D15020D0
:1009E00080F31188BFF34F8FBFF36F8F5FF0FF303D
:1009F000DFF8881808600120DFF870130860002015
:100A0000DFF88813086000F0E0FF0AE014F1010F3E
:100A100007D1502080F31188BFF34F8FBFF36F8F42
:100A2000FEE7DFF8C409006813BDDFF85C03016866
:100A3000491C01607047F8B500250026DFF84843DF
:100A40002068002807D1502080F31188BFF34F8F12
:100A5000BFF36F8FFEE700F0FFFF2068401E2060AD
:100A60002068002840F082809448006800287DD0EB
:100A7000DFF8A0170868002853D0C868C0680500D0
:100A8000A86A296AEA699160E9692A6A516041683D
:100A900015F11802914201D1296A41600021A96231
:100AA0000168491E01606869E968AA689160A968DF
:100AB000EA68516041682A1D914201D1E9684160AC
:100AC000002169610168491E0160AA490A68012381
:100AD000E86A83401A430A60A7481421EA6A4A4335
:100AE00002445268AA609368EB602B1D94686360AF
:100AF0002B1D9360EB6A4B4303446B61EB6A4B43E2
:100B0000EC6A01FB04F14158491CC150E86A6C4988
:100B10000968C96A8842ABD30120DFF8FC16086077
:100B2000A6E7002D01D000F06AFCDFF818793C68D8
:100B3000002C0CD000F02CF9002803D00120DFF8A5
:100B4000D8160860641E002CF4D100203860DFF84D
:100B5000C8060068002809D0012006005FF0805018
:100B600086490860BFF34F8FBFF36F8F00F08EFF91
:100B70003000F2BD854800687047504800687047F3
:100B80002DE9F041060000203368002B4ED03300E1
:100B9000D3F804E0DEF804E0C3F804E0D3F804E09E
:100BA00013F10808C64505D1D3F804E0DEF804E0E7
:100BB000C3F804E05B68DB689C463300D3F804E0CC
:100BC000DEF804E0C3F804E0D3F804E013F1080809
:100BD000C64505D1D3F804E0DEF804E0C3F804E02C
:100BE0005B68DB681F0000231A0000231C00142C24
:100BF00018D207EB040393F834301D002B0011F8D2
:100C000004E0DBB2734502D001231A0006E02B009A
:100C1000DBB2002B02D1380001231A00002A01D1D7
:100C2000641CE4E7002801D16745C6D1BDE8F08126
:100C300070B506001F25300001F060F9142807D3B5
:100C4000502080F31188BFF34F8FBFF36F8FFEE703
:100C5000FFF7EBFE6D1E31004748142202FB05F240
:100C60001044FFF78DFF0400002C01D1002DF1D1BD
:100C7000002C06D13100DFF8A4020068FFF780FFE6
:100C80000400002C06D13100DFF894020068FFF761
:100C900077FF0400002C05D13100DFF88802FFF750
:100CA0006FFF0400002C04D131003548FFF768FFC6
:100CB0000400FFF7C0FE200070BD0000E8320020F5
:100CC000D83200202DE9F24F0600150000271F241E
:100CD000FFF7ABFE0098DFF830180968884240D370
:100CE000641E5FF0240801222348142101FB04F153
:100CF000014408FB07F0304400F030FBC019070046
:100D0000002CEDD102228548016808FB07F0304431
:100D100000F024FB814619EB070902228048016894
:100D200008FB09F0304400F019FB82461AEB090A6F
:100D30000422134908FB0AF0304400F00FFB8346FD
:100D40001BEB0A0B0322774908FB0BF806EB0800A4
:100D500000F004FB10EB0B000700002D01D0002079
:100D60002860FFF768FE3800BDE8F28FF4320020FB
:100D700004330020F0320020E828002004ED00E0D9
:100D80005C320020E432002010330020EC320020DE
:100D90002DE9F0410027DFF880070068002840F0C7
:100DA000B580DFF878070468641C0460002C1AD151
:100DB0005A4908680068002807D0502080F311883D
:100DC000BFF34F8FBFF36F8FFEE7D1F80080544819
:100DD00002680A60C0F80080DFF844070168491C17
:100DE000016000F00CFBDFF894140868844278D3AB
:100DF0004A4A10680068002803D15FF0FF3008609D
:100E00006FE01068C068C068050068680600B442FA
:100E100001D20E6065E06869EA68AB689A60AA680A
:100E2000EB685A6042682B1D9A4201D1EA68426021
:100E300000226A610268521E0260A86A002812D06D
:100E4000A86A2A6AEB699A60EA692B6A5A60426862
:100E500015F118039A4201D12A6A42600022AA625F
:100E60000268521E0260DFF8A42613685FF0010CCE
:100E7000E86A1CFA00FC5CEA03031360DFF89006E2
:100E80001422EB6A534303445B68AB60D3F808C099
:100E9000C5F80CC015F1040CD3F808E0CEF804C076
:100EA00015F1040CC3F808C0D5F82CC002FB0CFCEB
:100EB0008444C5F814C0D5F82CC002FB0CFCD5F84E
:100EC0002CE002FB0EF28258521C40F80C20DFF896
:100ED00044060068C06AEA6A904289D2012007008D
:100EE00086E7DFF830060068DFF82416C26A1420AF
:100EF00042438858022801D301200700DFF8180375
:100F00000068002807D00120070004E0DFF834055E
:100F10000168491C01603800BDE8F081DC32002026
:100F2000E032002070320020DFF8EC050068002875
:100F300004D00120DFF8E01208602EE00020DFF886
:100F4000D8120860DFF8C4050068B0FA80F1D1F16A
:100F50001F011422DFF8B83502FB01F018580028F1
:100F600007D1502080F31188BFF34F8FBFF36F8FED
:100F7000FEE702FB01F203EB0200426852684260A6
:100F8000426810F108039A4202D1426852684260F6
:100F90004068C068DFF87C251060704738B50400F1
:100FA0000D00002C07D1502080F31188BFF34F8F24
:100FB000BFF36F8FFEE7DFF85C05006810F11801E2
:100FC000200000F0AEFC0121280000F0BBFA31BD8A
:100FD00070B504000E001500002C07D1502080F3DE
:100FE0001188BFF34F8FBFF36F8FFEE76068DFF8A4
:100FF00024150A68D06182680B681A620A68183280
:1010000083685A600A681832826009688C622168B5
:10101000491C2160002D02D05FF0FF30060029003E
:10102000300000F08FFA70BD70B40200D068C16863
:10103000002907D1502080F31188BFF34F8FBFF3F1
:101040006F8FFEE7886A0B6ACC69A360CB690C6A74
:101050006360436811F11804A34201D10B6A436035
:1010600000238B6203685B1E0360DFF8AC0400683A
:10107000002835D14869CB688C68A3608B68CC6840
:10108000636043680C1DA34201D1CB684360002319
:101090004B6103685B1E0360DFF870341C68012538
:1010A000C86A85402C431C60DFF864041423CC6AB2
:1010B0005C43044464688C60A568CD600D1DA6681F
:1010C00075600D1DA560CD6A5D4305444D61CD6A17
:1010D0005D43CE6A03FB06F3C3585B1C43510FE02C
:1010E0004C4B5868C86184680C6211F1180485681B
:1010F0006C6011F1180484608B621C68641C1C60B5
:10110000DFF810040068C06ACB6A984204D201205C
:101110000123414C236000E0002070BC70470000B8
:1011200004ED00E0DFF8F81309680160DFF8EC1364
:101130000968416070472DE9F04104000D00002C62
:1011400007D1502080F31188BFF34F8FBFF36F8F0B
:10115000FEE7002D07D1502080F31188BFF34F8F99
:10116000BFF36F8FFEE700F077FCDFF8B00306688F
:101170006768F71BDFF89C13086890F85D0000288B
:1011800006D00020096881F85D005FF0010824E0C6
:10119000286810F1010F02D15FF000081DE0DFF8B0
:1011A000800300682168884207D06068864204D3C3
:1011B0005FF00108002028600FE02868874208D20D
:1011C0002868C01B28602000FFF7ACFF5FF0000814
:1011D00003E0002028605FF0010800F057FC404663
:1011E000BDE8F08101200C490860704710B504008B
:1011F00000F046F8DFF8180300680228F8D35FF023
:101200008050DFF82C130860BFF34F8FBFF36F8F50
:10121000EEE7000048320020FC3200200C330020B2
:1012200070B500241F2C09D2DFF8E402142101FB61
:1012300004F1084400F057FB641CF3E7DFF8E452C4
:10124000280000F050FBDFF8E062300000F04BFBBC
:10125000414800F048FBDFF8D40200F044FBDFF81F
:10126000D40200F040FBDFF8D0020560DFF8CC02CA
:10127000066070BDA06E0008ED1100080833002064
:1012800038B5DFF8BC522868002817D000F0E4FB1E
:10129000DFF89802C068C0680400201D00F05CFB05
:1012A000DFF864020168491E01602868401E28605A
:1012B00000F0ECFB200000F099F8E2E731BD2DE9E9
:1012C000F04104000E0015001F00002C04D1DFF8CF
:1012D0002403D0F8008000E0A046C6F8008018F192
:1012E00034007060D8F82C003061D8F83000F0611C
:1012F000D8F84800B060D8F8500070610020B061A4
:101300003800C0B2052817D0DFF8E8020068804531
:1013100002D10020307313E037733800C0B20328C5
:101320000ED1FFF782FBD8F82800002801D0022058
:101330003073FFF780FB03E04046FFF7F2F83073AD
:10134000002D05D0D8F8300000F042F8308401E0DC
:1013500000203084BDE8F081483200202DE9F843B8
:1013600004000D0016005FF00009286800282CD04A
:101370002800416849684160416810F108029142C3
:1013800002D14168496841604068C06880462800D1
:10139000416849684160416810F10802914202D1F8
:1013A0004168496841604068C06807003300DBB2AB
:1013B0000122242000FB09F004EB00013800FFF7B4
:1013C0007EFF19F101094745E1D14846BDE8F283A6
:1013D000010000200A78A52A02D1491C401CF9E727
:1013E000800880B2704700001C00002010B5040087
:1013F000206B00F09DF9200000F09AF910BDDFF895
:10140000381108680068002805D15FF0FF30DFF868
:10141000E811086005E00868C0680068DFF8D811C6
:1014200008607047DFF8D4010068002801D101206E
:1014300007E0DFF8CC010068002801D1022000E0BD
:1014400000207047F8320020F8B50400250000267F
:10145000002C56D02F480068854207D0502080F3DA
:101460001188BFF34F8FBFF36F8FFEE7686D0028C1
:1014700007D1502080F31188BFF34F8FBFF36F8FD8
:10148000FEE7686D401E6865E86A296D884238D0BD
:10149000686D002835D1281D00F05EFA002806D1BD
:1014A0001A490A680123E86A83409A430A60286D52
:1014B000E862E86AD0F11F00A86114490A680123B4
:1014C000E86A83401A430A601420DFF83C11EA6A94
:1014D00042430A445268AA609368EB602B1D9768E8
:1014E0007B602B1D9360EB6A43430B446B61EB6A9B
:1014F0004343EF6A00FB07F00858401CC850012026
:1015000006003000F2BD0000E8320020F03200207A
:10151000E8280020D832002010330020EC320020D0
:101520000033002020320020343200205C320020C2
:1015300004ED00E070320020DC320020E0320020B8
:10154000E43200202DE9F04105000C002F48076827
:10155000DFF8A0800020D8F8001081F85D00D8F8EE
:101560000000001D00F0F8F9002808D1D8F80000AC
:1015700024490A680123C06A83409A430A6015F12E
:10158000010F1AD1002C18D021484168D8F800204A
:1015900091608A68D8F80030DA60D8F80020121D0F
:1015A0008B685A60D8F80020121D8A60D8F8002095
:1015B00050610268521C02601AE0E8190600D8F86F
:1015C00000004660BE4207D2D8F80000011D114855
:1015D000006800F0A6F90BE0D8F80000011D0E48E5
:1015E000006800F09EF9044801688E4200D206604F
:1015F000BDE8F081D832002008330020F43200200A
:1016000010330020F0320020E8280020EC320020C7
:1016100070320020E0320020DC3200202DE9F84F4B
:1016200004005FF00009FFF700FADFF834A2DAF8EF
:101630000000002801D100F0B6F8002C0FD0894836
:101640000168083114F00700091A0D005FF0FF303F
:10165000401BA04201D32C1901E000200400002C03
:1016600055D4002C53D0DFF800B2DBF80000A042C4
:101670004DD37E480700006806007068A04205D27E
:101680003068002802D037003668F6E7DAF8000044
:1016900086423CD0734839680268114489463168F3
:1016A0003960006840007168091B884216D206EB59
:1016B0000400804618F00700002807D0502080F36F
:1016C0001188BFF34F8FBFF36F8FFEE77068001B69
:1016D000C8F804007460404600F092F8DBF800108F
:1016E0007068091ACBF800106148DBF80010026836
:1016F000914202D2DBF800100160706850F00040A7
:101700007060002030605B480168491C0160FFF791
:1017100092F919F00700002807D0502080F31188B3
:10172000BFF34F8FBFF36F8FFEE74846BDE8F28FE0
:1017300070B504002600002C34D04A4800684042AE
:10174000064435006868002807D4502080F31188CB
:10175000BFF34F8FBFF36F8FFEE72868002807D0D5
:10176000502080F31188BFF34F8FBFF36F8FFEE7D8
:101770006868002816D52868002813D1686820F00A
:1017800000406860FFF751F937490A6868688218B5
:101790000A60280000F034F837480168491C0160ED
:1017A000FFF749F970BD70B44FF42052334801007F
:1017B00011F0070F04D0C91DC908C900521A8218B8
:1017C0000B002A48036000244460D41825480068B0
:1017D000241AE408E400224D2C6000202E6870607A
:1017E00000202E6830601800261A46602D680560BB
:1017F00045681F4E356045681B4E356070BC7047AC
:1018000030B41A4A1168814201D21268FAE7140012
:1018100051682144814204D153684168CB18536018
:1018200010000300416819441568A94210D10C4901
:1018300014680D68AC4208D04468116849680C19F6
:10184000446011680968016004E00968016001E012
:1018500011680160824200D0106030BC7047000007
:10186000C0320020B86E0008C4320020AC32002024
:10187000C8320020CC320020D0320020E800002006
:1018800062F30F2262F31F42401810F0030308D0E6
:10189000C91A1FD3DB0748BF00F8012D28BF20F865
:1018A000022D130030B414461546103928BF20E924
:1018B0003C00FAD8490728BF20E90C0048BF40F88F
:1018C000042D890028BF20F8022D48BF00F8012D03
:1018D00030BC7047C91818BF00F8012DCB0728BFCE
:1018E00000F8012D704710F1080141605FF0FF31F1
:1018F000816010F10801C16010F10801016100214F
:101900000160704700210161704742684A60936836
:101910008B60936859609160086103685B1C036089
:10192000704710B40B6813F1010F01D1026907E091
:1019300010F1080254682468A34201D35268F9E701
:1019400054684C604C68A1608A605160086104680A
:10195000641C046010BC7047010008698A684B6809
:101960009A604A688B685A6042688A4201D18A68E4
:10197000426000220A610268521E026000687047DD
:10198000001F5FF080730360001F4B085B00036063
:10199000001F0FF20D0303601438026020387047F7
:1019A0006348006810F1010F07D0502080F31188C0
:1019B000BFF34F8FBFF36F8FFEE7502080F3118886
:1019C000BFF34F8FBFF36F8FFEE7E0B55948017843
:1019D0000191FF21017001788DF800109DF8001031
:1019E00011F05001544A1170544907220A609DF8C1
:1019F0000020120608D50A68521E0A609DF80020D1
:101A000052008DF80020F2E70A68D2F10702042A9A
:101A100007D0502181F31188BFF34F8FBFF36F8F31
:101A2000FEE70A6812020A600A6812F4E0620A60BD
:101A3000019901704248016851F470010160016828
:101A400051F07041016000F083F8002038490860CF
:101A500000F0BFFA00200EBD502080F31188BFF3C4
:101A60004F8FBFF36F8F32490A68521C0A600968B2
:101A700001290AD133490968090606D080F3118883
:101A8000BFF34F8FBFF36F8FFEE770472849086899
:101A9000002807D1502080F31188BFF34F8FBFF388
:101AA0006F8FFEE70868401E08600868002802D1B2
:101AB000002080F31188704780B5502080F3118892
:101AC000BFF34F8FBFF36F8FFFF762F9002803D08A
:101AD0005FF080501B490860002080F3118801BD31
:101AE000EFF30580102811D3174A1268125C110019
:101AF0000A00114B1B78D2B29A4207D2502282F3CD
:101B00001188BFF34F8FBFF36F8FFEE70B4A126848
:101B10000E4B1B6813F4E0639A4207D2502282F303
:101B20001188BFF34F8FBFF36F8FFEE77047000040
:101B30000000002000E400E037330020D432002011
:101B400020ED00E004ED00E0BC6E00080CED00E0CC
:101B50000848002101600021074A1160074909680F
:101B60004FF47A72B1FBF2F1491E054A1160072168
:101B70000160704710E000E018E000E0180000206D
:101B800014E000E01CB5002400F080F9DFF8440305
:101B9000006800280ED0DFF840030190022000907A
:101BA00000234FF48072DFF834130FF28900FEF740
:101BB000BFFA0400002C07D1502080F31188BFF336
:101BC0004F8FBFF36F8FFEE7200016BD70B5040086
:101BD0000D0016002B003200A1694919200000F009
:101BE00093F8002805D0A06945192000216A88478C
:101BF000F0E770BD70B504000D00B9480068C0681A
:101C0000C668301DFFF7A8FE96F82800400705D5E6
:101C10002A0021003000FFF7D9FF05E096F82800E0
:101C200010F0FE0086F828003000316A884770BD49
:101C30000000000038B50400684600F03FF80500D9
:101C40000099280000F003F800F086F8F4E77CB56E
:101C500005000C00FEF7E9FE684600F042F80600B9
:101C60000098002827D1002C08D1AE4206D3FEF7F9
:101C7000E2FE31002800FFF7BDFF1EE0002C07D078
:101C8000984800680068002801D1012400E0002481
:101C90002200A91B8F48006800F006FCFEF7CBFE6F
:101CA00000280AD15FF080508F490860BFF34F8F42
:101CB000BFF36F8F01E0FEF7BEFE73BD0100884ADF
:101CC00010680068002801D1012000E000200860B1
:101CD0000868002803D11068C068006800E0002090
:101CE000704770B50400FEF745FF05007F4E306871
:101CF000854204D200F0B4F80120206001E0002009
:101D000020603560280070BD2DE9F04104000D0011
:101D100016001F005FF0000865602461AE420CD31E
:101D2000F01BA169884202D30120804611E0211DE9
:101D30006C480068FFF7F5FD0BE0BE4204D2BD42DF
:101D400002D30120804604E0211D65480068FFF7AA
:101D5000E8FD4046BDE8F08138B584B00022694610
:101D60005C48006800F0FFF9002877D00098002850
:101D7000F4D4029804006069002802D0201DFFF707
:101D8000EBFD03A8FFF7ADFF0500009801280DD07B
:101D900063D3032830D009D305284FD033D3072885
:101DA00004D003D309282ED026D356E094F8280077
:101DB00050F0010084F82800019B2A000199A069D5
:101DC00041182000FFF7A0FF002814D094F8280045
:101DD000400707D52A000199A06941182000FFF7A4
:101DE000F5FE05E094F8280010F0FE0084F82800C5
:101DF0002000216A8847B1E794F8280010F0FE001F
:101E000084F82800AAE794F8280050F0010084F82C
:101E100028000198A061A069002807D1502080F314
:101E20001188BFF34F8FBFF36F8FFEE72B002A009F
:101E3000A16949192000FFF767FF8FE794F8280090
:101E4000800703D42000FFF773FC05E094F8280016
:101E500010F0FE0084F8280080E77FE705B030BD71
:101E600010B51F4908680068002809D00868C068D4
:101E7000006804005FF0FF312000FFF7BBFEF0E7D1
:101E80000868184A13680B60106010BD70B5FFF742
:101E9000E3FD104C2068002818D1154D2800FFF7ED
:101EA00022FD144E3000FFF71EFD0D4805600D4861
:101EB000066000220C21052000F001F92060206856
:101EC000002803D00C49206800F0BFFAFFF7DEFDC0
:101ED00070BD00001C33002020330020A86E0008D5
:101EE000143300201833002004ED00E024330020D8
:101EF0008432002098320020B06E000800F1010307
:101F0000810704D010F8011B820781B1FAD1026861
:101F1000A2F10131914311F0803104BF50F8042F38
:101F2000F6E709BAB1FA81F100EBD100401CC01A02
:101F3000704730B4002513E050F8042BD30744BF9A
:101F4000A9F101039A18091F042942F8045BFAD287
:101F500013468C0744BF15809B1CC90748BF1D70E2
:101F600050F8041B0029E7D130BC7047EFF309801B
:101F7000BFF36F8F1D4B1A6820E9F00F106008B592
:101F80004FF0500080F31188BFF34F8FBFF36F8F76
:101F9000FEF7CAFF4FF0000080F31188BDE808404B
:101FA00019680868B0E8F00F80F30988BFF36F8FF5
:101FB00070470E4B19680868B0E8F00F80F3098885
:101FC000BFF36F8F4FF0000080F311884EF00D0EBD
:101FD000704707480068006880F3088862B661B6F9
:101FE000BFF34F8FBFF36F8F00DF0000D8320020A8
:101FF00008ED00E0F8B507000D0001263C00002CBC
:1020000007D1502080F31188BFF34F8FBFF36F8F3C
:10201000FEE7002C45D0E06B002842D05FF0FF3097
:10202000E16BB0FBF1F0216C88423AD3FFF714FD6D
:102030002168E26B206C424301EB0200A0600020AB
:10204000A063206860602168E26B521E206C4243EE
:1020500001EB0200E0605FF0FF3084F8440084F898
:102060004500002D12D12069002817D014F110006E
:10207000FEF7DAFF002811D05FF08050DFF8501231
:102080000860BFF34F8FBFF36F8F07E014F11000AC
:10209000FFF729FC14F12400FFF725FCFFF7F6FCFD
:1020A00001E000200600002E07D1502080F31188A7
:1020B000BFF34F8FBFF36F8FFEE73000F2BD2DE906
:1020C000F8430500884691460024002D20D05FF09B
:1020D000FF30B0FBF5F040451AD308FB05F010F1D6
:1020E000540F15D208FB05F0060016F15400FFF757
:1020F00095FA0400002C15D02000543007000094FD
:102100004B46DBB23A004146280000F00EF809E0E9
:10211000002C07D1502080F31188BFF34F8FBFF3FD
:102120006F8FFEE72000BDE8F2832DE9F041050046
:102130000C0016001F00DDF81880002C02D1C8F832
:10214000008001E0C8F80060C8F83C50C8F8404082
:1021500001214046FFF74EFF88F850700020C8F874
:102160004800BDE8F0812DE9F64182B080460E00BE
:1021700000244746002F07D1502080F31188BFF379
:102180004F8FBFF36F8FFEE7002E02D1386C00280F
:1021900001D1012000E00020C0B2002807D150206A
:1021A00080F31188BFF34F8FBFF36F8FFEE7FFF708
:1021B00039F9002802D10398002801D1012000E05C
:1021C0000020C0B2002807D1502080F31188BFF34F
:1021D0004F8FBFF36F8FFEE7FFF73EFCBD6B002D07
:1021E0001BD03100380000F0C3F8681EB8633869AE
:1021F00000280ED017F11000FEF716FF002808D0B7
:102200005FF08050DFF8C8100860BFF34F8FBFF356
:102210006F8FFFF73BFC012057E00398002803D1A4
:10222000FFF734FC002050E0002C04D16846FEF794
:1022300079FF01200400FFF729FCFEF7F6FBFFF70A
:102240000BFC97F9440010F1010F02D1002087F830
:10225000440097F9450010F1010F02D1002087F8E2
:102260004500FFF713FC03A96846FEF764FF00284A
:1022700020D1380000F0DBF8002815D0039917F1C1
:102280002400FEF78BFE380000F08DF8FEF7D3FB3C
:102290000028A1D15FF08050DFF834100860BFF350
:1022A0004F8FBFF36F8F97E7380000F07CF8FEF791
:1022B000C2FB91E7380000F076F8FEF7BCFB38006F
:1022C00000F0B5F8002887D0002004B0BDE8F08108
:1022D00004ED00E02DE9F84F06000F0014005FF058
:1022E0000008B56B306C002809D1306800283AD15D
:1022F000B068FFF7A9F880460020B06033E0002CFA
:1023000014D1D6F84090BA46D6F804B04A465146A1
:10231000584600F03FF97068316C0844706070688E
:10232000B16888421FD3306870601CE0D6F84090D6
:10233000BA46D6F80CB04A465146584600F02AF93B
:10234000F068316C49420844F060F06831688842B6
:1023500004D2B068316C49420844F060022C02D1CA
:10236000002D00D06D1E681CB0634046BDE8F28FA2
:102370002DE9F04104000D00206C002811D0E06828
:10238000216C0844E060E068A168884201D32068BD
:10239000E060266CE768A84632003900404600F04D
:1023A000F9F8BDE8F081F8B50400FFF755FB94F9A2
:1023B0004550280040B2012819DBA06C002807D046
:1023C000200000F097F800280FD0FEF70BFF0CE07C
:1023D000606A002808D014F12400FEF725FE0028CA
:1023E00003D0FEF7FFFE00E001E06D1EE1E75FF0C5
:1023F000FF3684F84560FFF749FBFFF72DFB94F9A2
:102400004470380040B201280CDB2069002809D054
:1024100014F11000FEF708FE002801D0FEF7E2FEDE
:102420007F1EEEE784F84460FFF730FBF1BD38B55E
:102430000400FFF711FBA06B002801D1012500E08B
:102440000025FFF723FB280032BD30B4002200280E
:1024500007D1502383F31188BFF34F8FBFF36F8FE2
:10246000FEE7002918D000231C00082C14D20D4DC3
:1024700005EBC4035B68984203D105EBC4031A0063
:102480000AE0002A06D155F83430002B02D105EBC2
:10249000C4031A00641CE8E7002A01D011605060F0
:1024A00030BC7047C8310020F8B504000D0016009C
:1024B0002700FFF7D1FA97F9440010F1010F02D17C
:1024C000002087F8440097F9450010F1010F02D170
:1024D000002087F84500FFF7D9FAB86B002805D12E
:1024E0003200290017F12400FEF772FD3800FFF7D3
:1024F0005AFFF1BD71B581B00198846C0025002CA4
:1025000007D1502080F31188BFF34F8FBFF36F8F37
:10251000FEE7A06BE16B884207D3502080F311885F
:10252000BFF34F8FBFF36F8FFEE7A06BE16B884265
:102530002ED294F94560002201A92000FFF7CAFEBF
:10254000050030005FF0FF3140B288420BD1606A75
:1025500000281DD014F12400FEF766FD002817D0D6
:102560000120050014E0FEF708FB310049B281426A
:102570000ED2310049B27F2907D1502181F3118851
:10258000BFF34F8FBFF36F8FFEE7761C84F8456073
:10259000280076BD62B38B0708D0521E11F8013BAC
:1025A00000F8013B00F024808B07F6D1830740F050
:1025B000208000BF103A07D330B4B1E83810103A89
:1025C000A0E83810F9D230BC530724BFB1E8081096
:1025D000A0E8081044BF51F8043B40F8043BD20780
:1025E00024BF31F8022B20F8022B44BF0B78037074
:1025F0007047121F17D35B0009D151F8043B20F834
:10260000023B1B0C121F20F8023BF6D20BE051F8E4
:10261000043B00F8013B1B0A20F8023B1B0C121F75
:1026200000F8013BF3D238BF121D521E24BF11F82F
:10263000013B00F8013BF8D87047B1F5807F02D329
:102640004FF0FF3070470170012070470078401E46
:102650008041C043C00F704700F5E07002689142AE
:1026600003D343681A44914202D380680028F5D10D
:1026700070471849086880B94FF4805048604FF49B
:1026800080324FF0FF30C86008610420124B8A602E
:102690004861C3F8BC01114808600120704701F18E
:1026A000080313F0070F0EBF0023C3F1080303F064
:1026B00007031944D21A8161C26042F001034B60E2
:1026C000091D4FF0280C41F802C0024A1369C3618A
:1026D0007047000008320020A02F00206859883C75
:1026E0002DE9F84F84B00646AFF30080F52E1E4D5D
:1026F00080F00F820B2E31BF10260B36F608F60045
:102700002868F408E04010F0030F4AD0C04300F0FE
:102710000100041905F1280000EBC408E700D8F80F
:1027200008607068C008C000B84218BF01F0E2F944
:10273000D6F80890464508BF01F0DCF94E4508BFC1
:1027400001F0D8F97068C008C000B84218BF01F0A5
:10275000D1F9C8450AD12868012101FA04F420EA18
:1027600004042C6010E000BFA02F002028698145E0
:1027700008D3D9F80C10B14204D1C8F80890C9F8B0
:102780000C8001E001F0B6F947F00300311D7060E4
:10279000301DCA5942F00102C25106F1080800F08A
:1027A00010BFA968B14280F09F83002800F0A2808A
:1027B0004FF0010808FA04F1490000FA04F4484215
:1027C00001430C4060420440641E200B00F01000E6
:1027D000C440610901F00801CC40A20802F00402E3
:1027E000D440630803F002030818DC401018C4F357
:1027F000400718183818FC40241805F1280000EB91
:10280000C40AE700DAF80890D9F80400C008C0004C
:10281000B84218BF01F06EF9D9F808B0D14508BF29
:1028200001F068F9D94508BF01F064F9D9F804004E
:10283000C008C000B84218BF01F05CF9DA4506D103
:10284000286808FA04F420EA04042C600DE02969E1
:102850008B4508D3DBF80C00484504D1CAF808B012
:10286000CBF80CA001E001F045F9BF1B46F00300D6
:1028700009F10402C9F8040047F00101915109EB84
:1028800006020192D751AC684FEAD40ABAF11F0F81
:1028900088BF01F02FF934B3CDF800A005F128006E
:1028A0006E6900EBCA0AD346102C38BF01F022F93A
:1028B0002968009821FA00F2D30704D408FA00F03E
:1028C0000843286007E0DAF80800296988422CBF2D
:1028D000834601F00FF9CAF80860CBF80C60C6F81F
:1028E00008B0C6F80CA0AF6009F10808019868614B
:1028F00000F067BE6868002800F017834142084076
:10290000401E010B01F01001C840420902F008020C
:10291000D040830803F00403D840440804F00204C4
:102920005118E0405918C0F34007611805F5987830
:102930007918F840401858F820104868C008C000BE
:102940008A46A0EB060B08E001464868C008C000B4
:10295000801B58453CBF83468A4608690028F3D14E
:1029600049690029F1D128698245C0F0CF80DAF8A1
:102970000410C90806EB0B09C900494518BF01F04E
:10298000B9F80AEB06008245019080F0BF80DAF8C2
:102990000C40DAF8187054450DD0DAF808002969AF
:1029A000884223D3C268524504BFA16851451DD156
:1029B000C460A0601CE00AF114010C6834B90AF18B
:1029C00010010C68A4B101E011460C6804F1140276
:1029D0001068002802BF04F1100210680028F3D12B
:1029E0002869814202D300220A6001E001F082F8E6
:1029F000002F34D0DAF81C0008EB800001688A450B
:102A000009D1046094B9DAF81C0069680122824097
:102A10009143696023E02869874205D339695145AC
:102A200014BF7C613C6101E001F064F8BCB129692C
:102A30008C4212D3A761DAF8100028B1884226BF71
:102A40002061846101F056F8DAF8140038B1296980
:102A5000884202D36061846101E001F04BF8BBF170
:102A6000100F0ED249F003000AF10401CAF8040065
:102A70000AF1040051F8092042F0010240F809204F
:102A80003EE046F003010AF10402CAF804104BF0DC
:102A900001009051019941F80BB0A8680090C4085A
:102AA0001F2C88BF01F026F8009828B305F12800F4
:102AB00000996F6900EBC408C146102938BF01F0C6
:102AC00019F8286820FA04F1CA0705D4012101FA8F
:102AD00004F404432C6007E0D8F808002969884210
:102AE0002CBF814601F006F8C8F80870C9F80C70D0
:102AF000C7F80890C7F80C80C5F808B0019868615D
:102B00001AF1080800F0F08100F05BBD00F0F2FF60
:102B1000EAE116F1400F28BF4FF0FF3680F0E48164
:102B20000B36F6086B68F600002B00F0DD810027FD
:102B3000300AC6F1000908BF002423D0B0F5803F59
:102B400028BF1F241ED2A0F58071090C01F00801D6
:102B50008840A0F58052120C02F004029040A0F5CB
:102B60008044240CC1F10E0104F00204891A091BEF
:102B7000A04001EBD031C81D26FA00F404F0010496
:102B800004EB410405F5987858F8240030B31F2C65
:102B90000FBFB4464FEA540CCCF1190C06FA0CFCEA
:102BA000BE46494601E04FEA4C0C4268D208D200CA
:102BB000921B8A4202D2110007460CD042691030A3
:102BC0004FEADC7950F82900002A1CBF8242964661
:102BD0000028E8D170468946A8BBB7BB012101FA9D
:102BE00004F4640060420443234000F07D815842B5
:102BF00003405B1E180B00F01000C340590901F0A0
:102C00000801CB409A0802F00402D3405C0804F0AB
:102C100002040818E3401018C3F3400C2018604465
:102C200023FA0CF31B1858F823000CE008464168FF
:102C3000C908C900891B49453CBF89460746016947
:102C40000029F3D140690028F1D1002F00F04C8118
:102C5000A868801B814580F0478129698F42FFF475
:102C600055AF7868C008C00006EB0901884218BF5C
:102C700000F040FF07EB060B5F45BFF447AFFC6871
:102C8000D7F818A0BC420CD0B8682969884223D371
:102C9000C268BA4204BFA168B9421DD1C460A06035
:102CA0001CE007F114010C6834B907F110010C683D
:102CB000A4B101E011460C6804F114021068002868
:102CC00002BF04F1100210680028F3D12869814284
:102CD00002D300220A6001E000F00CFFBAF1000FFD
:102CE00034D0F86908EB800001688F4208D1046095
:102CF000A4B9F8696968012282409143696025E0BE
:102D00002869824508D3DAF81010B94214BFCAF80E
:102D10001440CAF8104001E000F0ECFEB4B129699B
:102D20008C4211D3C4F818A0386928B1884226BF54
:102D30002061846100F0DEFE786938B1296988423B
:102D400002D36061846101E000F0D4FEB9F1100F9C
:102D50000CD2B14449F00300391D7860381D51F898
:102D6000092042F0010240F80920B9E046F00301D1
:102D70003A1D796049F0010090514FEAD9004BF8B3
:102D800009901F2822D805F1280101EBC004296809
:102D900021FA00F2D307A04605D4012202FA00F07E
:102DA0000843286006E0A068296988422CBF804655
:102DB00000F0A0FEC4F808B007F10800C8F80CB095
:102DC00040F8068007F10C018C5189E05FEA192078
:102DD00008BF002123D0B0F5803F28BF1F211ED29D
:102DE000A0F58072120C02F008029040A0F580510C
:102DF000090C01F004018840A0F580431B0CC2F1CE
:102E00000E0203F00203521AD21A984002EBD0329B
:102E1000D01D29FA00F101F0010101EB420107F197
:102E20001403CBF81C1000229A5107F1100308EB91
:102E300081009A516A6822FA01F3DC0711D4012358
:102E400003FA01F111436960C0F800B0CBF8180033
:102E500007F1080107F10C0040F806B041F806B090
:102E60003EE002681F291DBF4908C1F1190109FA96
:102E700001F1494600E002465068C008C0004845DC
:102E800018D002F11003C80F03EB80034900186843
:102E90000028F0D12869834220D3C3F800B007F19D
:102EA0000C01CBF8182041F806B007F1080040F8F3
:102EB00006B015E0296990688A4228BF88420DD380
:102EC000C0F80CB007F10801C2F808B0885107F14A
:102ED0000C0082510022CBF8182001E000F00AFE1D
:102EE00017F1080840F06D83A868B0421DD3811B1C
:102EF0006A6910290AD390196861A96041F0010339
:102F00004360415046F0030656600BE00021A96083
:102F10006961131D40F003015160111D1C5844F0FC
:102F200001040C5002F108084BE3E8688642C0F047
:102F30003883DFF8B89BD9F8000008B9FFF799FB90
:102F4000D9F8081088192F30491E20EA01018E4255
:102F500080F0358305F5D877B86838B13A688918B4
:102F60008A4280F02C838842C0F0298300F0C6FD9D
:102F700000281CBFD0F8008010F1010F00F01F8363
:102F800039687A68414439608A4238BF7960AC69EF
:102F900004BB296909B1884200D228610021386147
:102FA000C7F81480F9614FF0FF31D9F800206A6248
:102FB000296205F128020021D260926002F1080422
:102FC00054611461891C10321F29F5D9A8F1280217
:102FD00001461DE005F5E0710A46814600E0926871
:102FE000D2B11068536803449945F8D1107B0307A8
:102FF00012D413689C420FD3D2F804C063449C429D
:103000000AD2C444C2F804C02146E86808EB0002B2
:103010002846FFF744FBC1E22869814538BFC5F85F
:10302000109009EB080000E08968002900F0BD81DC
:103030000A688242F8D1087B020700F1B68108686D
:10304000C1F800904A6842444A6009F1080111F051
:10305000070F08BFCDF8049006D0C1F1080101F0B8
:10306000070109EB0102019200F1080111F0070FBD
:1030700004D0C1F1080101F007010844804601981D
:10308000A8EB00018419A1EB060B274646F00306C6
:103090004660474528BF00F02DFD98F80400C107A1
:1030A00058BF00F027FDBBF1100F38BF00F022FD24
:1030B000A869804508D1E9688B44C5F80CB0AF61B8
:1030C0004BF0010078606CE1686980450AD1A9681D
:1030D0008B44C5F808B06F614BF00100786047F889
:1030E0000BB05EE1D8F8040000F00301012940F0C4
:1030F000B880C008C000C1081F29039040D8D8F884
:1031000008200092D8F80C600291B04508BF00F08A
:10311000F1FC0098804508BF00F0ECFCD8F80400F2
:103120000299C008C000B0EBC10F18BF00F0E2FC6C
:103130000299009A05F1280000EBC100824208D0F4
:1031400011462A699142C0F08780CA68424540F022
:10315000838000998E4206D102982A680123834019
:103160009A432A607AE0864205D029698E4273D359
:10317000B068404570D10098C6600099B1606DE0BC
:10318000D8F818000090D8F80C6046450DD0D8F853
:1031900008002969884223D3C268424504BFB16848
:1031A00041451DD1C660B0601CE008F114010E68F5
:1031B00036B908F110010E68A6B101E011460E689B
:1031C00006F114021068002802BF06F11002106810
:1031D0000028F3D12869814202D300220A6001E06D
:1031E00000F088FC0098002838D0D8F81C0005F5BD
:1031F000987101EB80000168884509D106609EB98D
:10320000D8F81C006968012282409143696025E07A
:1032100000982969884205D30169414514BF466178
:10322000066101E000F066FCC6B129698E4213D345
:103230000098B061D8F8100028B1884226BF3061EC
:10324000866100F057FCD8F8140038B1296988422B
:1032500002D37061866101E000F04CFC0399884460
:103260008B44D8F8041049084900C8F804104BF002
:10327000010078604FEADB0647F80BB01F2E22D81A
:1032800005F1280000EBC604A146BBF1100F38BFC2
:1032900000F030FC286820FA06F1CA0705D40121A5
:1032A00001FA06F606432E6006E0A0682969884206
:1032B0002CBF814600F01EFCA760C9F80C70C7F84F
:1032C0000890FC606DE05FEA1B2008BF002123D05E
:1032D000B0F5803F28BF1F211ED2A0F58072120CCE
:1032E00002F008029040A0F58051090C01F00401A1
:1032F0008840A0F580431B0CC2F10E0203F00203CC
:10330000521AD21A984002EBD032D01D2BFA00F19B
:1033100001F0010101EB4201F961002305F598720A
:103320007B6102EB81003B616A6822FA01F3DE07F0
:1033300007D4012303FA01F1114369600760B86102
:103340001DE002681F291DBF4908C1F119010BFAD0
:1033500001F1594600E002465068C008C0005845D7
:1033600010D002F11003C80F03EB80034900186866
:103370000028F0D12869834211D31F60BA61FF6031
:10338000BC600EE0296990688A4228BF884206D353
:10339000C7609460B860FA600020B86101E000F096
:1033A000A9FB019800F108080BE121462846FFF728
:1033B00053F90168406808440090A0F1270111F01A
:1033C000070000980EBF0021C1F1080101F00701BC
:1033D0000844A0F12F0B04F110018B4538BFA34620
:1033E0000BF11802002102920191A8F1280249462E
:1033F0002846FFF754F90BF1080010F0070F18BF2B
:1034000000F078FB1B20CBF8040005F5E07292E891
:1034100009500BF1080181E8095000210BF1080067
:10342000F961B861009A02980199C7F81090C7F83D
:103430001480072300E0001D491C00F10807974293
:103440004360F8D30129D8BF00F054FBA34500F036
:10345000A580ABEB040B201D221D50F80B10490872
:10346000490042F80B104BF0010060604FEADB09A5
:1034700044F80BB0B9F11F0F22D805F1280000EB7A
:10348000C907B846BBF1100F38BF00F033FB2868FE
:1034900020FA09F1CA0705D4012101FA09F108430C
:1034A000286006E0B868296988422CBF804600F091
:1034B00021FBBC60C8F80C40C4F80880E7606DE0F0
:1034C0005FEA1B2008BF002123D0B0F5803F28BF52
:1034D0001F211ED2A0F58072120C02F0080290404B
:1034E000A0F58051090C01F004018840A0F580434B
:1034F0001B0CC2F10E0203F00203521AD21A9840BA
:1035000002EBD032D01D2BFA00F101F0010101EBEA
:10351000420105F59872002302EB8100E1616361CD
:1035200023616A6822FA01F3DF0707D4012303FA53
:1035300001F1114369600460A0611DE002681F2968
:103540001DBF4908C1F119010BFA01F1594600E00C
:1035500002465068C008C000584510D002F1100360
:10356000C80F03EB8003490018680028F0D12869D0
:10357000834211D31C60A261E460A4600EE029695B
:1035800090688A4228BF884206D3C4609460A060D5
:10359000E2600020A06101E000F0ACFAE868864239
:1035A0000DD2801BA969E8608A19AA6140F0010068
:1035B000506046F003064E6001F1080801E04FF04C
:1035C0000008AFF30080404605B0BDE8F08F00284A
:1035D00000D170472DE9F047A0F10805AFF3008056
:1035E000DFF80C6531698D42C0F07A82686800F0BE
:1035F0000302012A00F07482C2084FEAC209C2071E
:1036000005EB090839D42C6810F0030F00F06A822A
:10361000604205448D42A144C0F0628270698542D7
:1036200000F0DA80E408202C72D2D5F80CA0AF6844
:10363000554508BF00F05EFABD4208BF00F05AFAD7
:103640006868C008C000B0EBC40F18BF00F052FAA1
:1036500006F1280000EBC400874205D031698F4293
:1036600053D3FA68AA4250D1BA4540D130680121FB
:1036700001FA04F420EA04043460454580F0308205
:10368000D8F80440E00740F12B82A10700F17C81CB
:10369000B069804540F0B380F168B5618944C6F8EF
:1036A0000C9049F00100686071698D4202D10020E0
:1036B0007061B060F169494580F01482DFF82C2414
:1036C000106808B9FEF7D5FFB169002900F00A8239
:1036D000F068292824BF3046FEF7BEFFF069F16884
:1036E000884280F0FF814FF0FF30F061FAE18245BF
:1036F00006D03069824508D3DAF80810A94204D10F
:10370000C7F80CA0CAF80870B7E700F0F3F9B4E7FF
:10371000EC68AF69AC420BD0A868884222D3C1687C
:10372000A94204BFA268AA421CD1C460A0601BE0E9
:1037300005F11402146834B905F1100214689CB143
:1037400001E01A46146804F114031868002802BF47
:1037500004F1100318680028F3D18A4202D3002133
:10376000116001E000F0C6F9002F86D0E96906F586
:10377000987000EB81000268954209D10460200036
:1037800011D1E8697168012282409143716074E748
:103790003069874205D33969A94214BF7C613C6115
:1037A00001E000F0A7F9002C3FF467AF31698C42CB
:1037B000ABD3A761286928B1884226BF2061846104
:1037C00000F098F9686900283FF457AF31698842E2
:1037D0009BD36061846150E798F8040000F0030017
:1037E00003287FF44AAFC6F8089049F00101D8F8E1
:1037F000040040084000C8F8040069600AE07069ED
:1038000080450AD1B16875618944C6F8089049F0CD
:103810000100686045F8099064E1E408E400A1440F
:10382000E408202C3AD2D8F80CA0D8F80870D0457B
:1038300008BF00F05FF9B84508BF00F05BF9D8F8A1
:103840000400C008C000B0EBC40F18BF00F052F96C
:1038500006F1280000EBC400874207D031698F428F
:10386000C0F08580FA68424540F08180BA4507D1B2
:103870003068012101FA04F420EA0404346078E09D
:10388000824506D03069824571D3DAF80810414587
:103890006DD1C7F80CA0CAF808706AE0D8F80C40DF
:1038A000D8F8187044450DD0D8F80800316988421E
:1038B00023D3C268424504BFA16841451DD1C460FD
:1038C000A0601CE008F114010C6834B908F1100183
:1038D0000C68A4B101E011460C6804F114021068F0
:1038E000002802BF04F1100210680028F3D13069EB
:1038F000814202D300220A6001E000F0FBF8002FB1
:1039000037D0D8F81C1006F5987000EB81000268DB
:1039100090450AD10460200012D1D8F81C007168CB
:10392000012282409143716023E03069874205D3D0
:103930003969414514BF7C613C6101E000F0DAF86F
:10394000BCB131698C4212D3A761D8F8100028B1FC
:10395000884226BF2061846100F0CCF8D8F81400BA
:1039600038B13169884202D36061846101E000F0BE
:10397000C1F849F00100686045F8099071698D420D
:103980000BD1C6F80890ADE064086400C8F80440A4
:1039900049F00100686045F809904FEAD907202FE7
:1039A00022D206F1280000EBC704A046B9F1100F9F
:1039B00038BF00F09FF8306820FA07F1CA0705D435
:1039C000012101FA07F70743376006E0A068316973
:1039D00088422CBF804600F08DF8A560C8F80C50D6
:1039E000C5F80880EC607DE05FEA192008BF00217F
:1039F00023D0B0F5803F28BF1F211ED2A0F58072D2
:103A0000120C02F008029040A0F58051090C01F060
:103A100004018840A0F580431B0CC2F10E0203F0A4
:103A20000203521AD21A984002EBD032D01D29FA62
:103A300000F101F0010101EB420106F5987200234B
:103A400002EB8100E9616B612B61726822FA01F37C
:103A5000DC0707D4012303FA01F11143716005600B
:103A6000A8611DE002681F291DBF4908C1F11901A5
:103A700009FA01F1494600E002465068C008C0005A
:103A8000484510D002F11003C80F03EB8003490032
:103A900018680028F0D13069834211D31D60AA61F3
:103AA000ED60AD600EE0316990688A4228BF8842BF
:103AB00006D3C5609560A860EA600020A86101E0B7
:103AC00000F018F8306A401E30620BD1D6F8C801F9
:103AD00000E080680028FCD14FF0FF30306201E048
:103AE00000F008F8AFF30080BDE8F087083200204E
:103AF000A02F0020012000F017B82E000749086809
:103B000008B1002070470648C008C0000860054999
:103B1000C908C900091A0160704700BF2833002096
:103B20003F3D00203847002080B5AFF30080024AB7
:103B300011001820ABBEFBE7260002002DE9F14F73
:103B4000B2B09946924600230691CDE900333C9AE3
:103B50000F930DF14A0114914A7011E0329E5746BD
:103B60002C4617F8011B0698B0470028069000F075
:103B700026810F98401C641E0F90F2D13296AA4401
:103B80009AF80000252808D10021002209910A9204
:103B90000B910C920D910E920FE06A464FF0FF319F
:103BA000504601F063F8050002D10F9800F066BEA0
:103BB000D4D50125E3E741F001011AF8010F2028CF
:103BC000F9D023280CD02B2804D02D2805D030285C
:103BD00009D00BE041F00201EFE741F00401ECE70E
:103BE00041F00801E9E741F01001E6E72A280FD18A
:103BF000D9F8002052F8040BC9F8002000281190D1
:103C000003D54042119041F004010AF1010A14E089
:103C10001192DFF8EC3B0AE01198984205DA00EBCC
:103C2000800402EB4402303A11920AF1010A9AF838
:103C30000020A2F130000A28EED39AF800002E28C6
:103C400003D04FF0FF32109229E01AF8010F2A2812
:103C500009D1D9F8000050F8042BC9F800001092DF
:103C60000AF1010A1BE02D280CBF0AF1010A00200D
:103C700000221092DFF8882B0BE040B9109B934292
:103C800005DA03EB830504EB4504303C10940AF19C
:103C9000010A9AF80040A4F130030A2BEDD3ADF8E5
:103CA00048100FF660309AF8001000F0E9FF08B1F4
:103CB0001AF8010B8DF84A009DF84A00682805D1D2
:103CC0009AF8000068280CD1622106E06C2804BF35
:103CD0009AF800006C2804D171218DF84A100AF17D
:103CE000010A1FA808901AF801BBBBF125012DD0CD
:103CF0001C3900F06181091F022940F25D810E39F3
:103D00002AD0491F00F0B384093900F05581891E7B
:103D100000F04985491E00F0F584491E022940F251
:103D20004B81091F00F0EE84491F00F0BA80491E44
:103D300000F09D84491E65D0C91E21D0891E00F067
:103D40009684C91E00F0938400F04CBD25238DF8A5
:103D50007C30012109912AE06C208DF84A00D9F8C5
:103D6000000050F8042BC9F80000002A43D1149930
:103D7000487800283DD04FF0FF340FF6902012E035
:103D80009DF84A006C28EAD0D9F8000050F8044B9E
:103D9000C9F800000794D4B91499487898B14FF045
:103DA000FF340FF6842000F077FF201A07D13298F5
:103DB0001FAA04A900F065FD00287FF5E1AE4FF0D1
:103DC000FF3000F05BBD0FF67C200790EFE7109D01
:103DD000002D04D52046FEF791F8044607E02A4658
:103DE000204600F079FF002814BF041B2C460A94DB
:103DF000DDE70FF65422329804A900F0C8FD002830
:103E0000D5D5DCE7D9F8001051F8040BC9F800103B
:103E100020F00004002121F0FF351FABCDE904455F
:103E20000793DDE9042308993C2413B90AB91098D3
:103E300098B102F00F053035641EEEB23A2EA8BFDD
:103E40002735120942EA03721B090D5508BF002AE3
:103E500003D007980D19A842EBD308190790C4F1B5
:103E60003C0210980A92824209DABDF84810821A80
:103E70004FF6EF7001400C92ADF8481097E700281C
:103E800095D59DF8480000F0140010288FD1119BA3
:103E900009990C985B1A1B1A9A1A002A87DD0C9252
:103EA00085E71499487820B14FF0FF340FF69C1045
:103EB00079E79DF84A00622862D0682819D06A28FC
:103EC00040D06C2806D071284DD074282DD07A2887
:103ED0001ED064E0D9F8001051F8040BC9F80010A6
:103EE00020B94FF0FF340FF67C105CE70F990160AA
:103EF0005DE7D9F8001051F8040BC9F8001020B99B
:103F00004FF0FF340FF65C104DE70F9901804EE73C
:103F1000D9F8001051F8040BC9F800100028E5D1B9
:103F20004FF0FF340FF63C103DE7D9F8001051F880
:103F3000040BC9F800100028D8D14FF0FF340FF659
:103F4000241030E7D9F8001051F8040BC9F800101C
:103F500020B94FF0FF340FF60C1024E70F9AD31757
:103F6000C0E9002323E7D9F8001051F8040BC9F881
:103F700000100028F2D14FF0FF340FF6E80012E7EE
:103F8000D9F8001051F8040BC9F8001020B94FF00F
:103F9000FF340FF6D00006E70F99017007E7D9F854
:103FA000001051F8040BC9F8001000289ED14FF002
:103FB000FF340FF6B000F6E6D9F80020D21D22F04B
:103FC0000702C9F80020D2E900010832C9F8002030
:103FD000CDE90401C80F02D009982D210AE0BDF8EF
:103FE0004800810702D509982B2103E0C00705D5B9
:103FF000099820211FAA1154401C0990DDE90423CF
:1040000009991FA8CDE92E2308444BF0200161290E
:10401000079015AC0BD01099002902D506211091FC
:1040200005E001BF4BF02001672901221092DDE974
:10403000042359004915491C10D11A030ED0ABF1C5
:10404000610503211A2D0A9102D20FF6A43101E075
:104050000FF6A0310322FEF79DFAA8E65900491594
:10406000491C0AD11A0308D1ABF1610503211A2DAD
:104070000A9116D30FF68431ECE7DDE90401CDE9AE
:104080003001DDE9302323F00047B7F5801F22F02F
:1040900000060DD20022002F08BF002E029203D18D
:1040A00016E00FF65431D5E702AA00F041FE0FE00A
:1040B000DFF8EC0ADFF8EC1A00EB17500290DDE9AC
:1040C00030234FF0FF301940DFF8DC7A10403943DD
:1040D000CDE904014BF0200061280DD10798302173
:1040E0000170821CBBF1610F07920CBF782158212F
:1040F00041700998801C0990DDE9040120F000025C
:1041000031F0004308BF002A02D10026002571E1EA
:104110004BF02008B8F1610F40F0BE8010980028E5
:1041200047BF21210391401C0390039FDDE92E012D
:104130007F1C00220023DDE9044500F031FE0299D6
:104140008DF8542038BF85F00045091F002F0291DB
:104150000DF155065DDDDFF8541ACDE9302140F24E
:10416000FF732E93204629460022002300F030FEE4
:104170004FD24800400D00F11C0215D0002A13DD7B
:104180002E9B9A420ADBDDE9300121F0004205F066
:1041900000400243DDE93001114611E06FF31E518A
:1041A00041EA025120460BE024F0000035F00041C6
:1041B00008BF00280FBF29461C22294600F020FE18
:1041C00004460D4600F0BAFEFF1F002F804609DDB1
:1041D00000F0D2FE02460B462046294600F0DEFEE5
:1041E00004460D46F01D0721B8F1000F0CDD491EF5
:1041F0005EBF08F00F0200F8012D4FEA2818F3D532
:1042000002E0002200F8012D491EFAD5C61D002F3C
:10421000A8DC0DF15500361A03988642D8BF304607
:1042200000280DF1550430D4B04206DA0DF15501E5
:104230000A5C082AA8BF0F2100DA0021024615AB4C
:10424000134400E0401E13F80159521E8D42F9D06C
:104250000F2904D10DF155018B5C5B1C8B54002A96
:1042600004D50299091D15AC401C0291411E0CD4C5
:104270006218ABF13A0613783033DDB23A2DA8BF9D
:10428000F318491E02F80139F5D51099002940F1BB
:10429000AF80421E1092ABE00299DFF8142947F27A
:1042A0009750414391FBF2F2DDE92E45029225F051
:1042B0000045D2F1070204DD2046294600F04CFCFF
:1042C0000BE052420020DFF8EC1800F045FC0246FB
:1042D0000B462046294600F0D3FE0446B8F1660F8F
:1042E000109806BF029F0A3706273F18142FC8BF31
:1042F000142730208DF854000D460020DFF8B81840
:10430000CDE92E010DF15506002F33DD204629465B
:1043100000F0DAFF01460A4606F1080304200A26E7
:10432000B2FBF6F606EB860EA2EB4E02303203F835
:10433000012C0A22B6FBF2F202EB820EA6EB4E062D
:104340003036401E03F8026DE9D1083F002F03F11B
:104350000806D9DD084600F0CBFF02460B46204692
:10436000294600F01BFEDDE92E2300F0CFFF0446B6
:104370000D46CBE70DF15500361A0DF1550404E05A
:104380000298401E761E0290641C20783028F7D0D8
:10439000B8F1660F02D10299491C04E0B8F1650F2B
:1043A0000CBF01210021109808188642B8BF701E6A
:1043B00000281DD4B04204DA215C3429C8BF392159
:1043C00000DC30210246631E9D1800E0401E15F8F7
:1043D0000169521E8E42F9D0392902D1A15C491CD3
:1043E000A154002A04D50299491C1C46401C029184
:1043F0000646029D00F03EFC406A0778DDF84080EA
:1044000030B2002802DC01260FF2F4744BF02000D9
:10441000662808BF6D1C16D0672846D128B210F157
:10442000040F48DB404546DA9DF848006D1C010743
:1044300003D430B24045B8BF804628B2B8EB00087C
:1044400048BF4FF000080FFA85FB07980A99BBF1A7
:10445000000F00F3B2804A1C0A9230234354B8F193
:10446000000F03DC9DF84800010704D50A98411CA1
:104470000A9107990F5418EB0B0FB8BFC8F100054C
:104480002DB268420D90A84432B29045B8BF46465E
:10449000079B0A9836B20B96324621461844FEF71F
:1044A00079F8A8EB06000E90CBE0BBF1610F17D1B5
:1044B0004FF0700B19E030B2404504DA9DF8481017
:1044C0000A0758BF8046B8F1010848BF4FF00008FE
:1044D000BBF1670F14BF4FF0450B4FF0650B04E0C5
:1044E000BBF1410F08BF4FF0500B0A98411C0A91D5
:1044F000B8F1000F079914F8012B0A5403DC9DF85A
:10450000480001071AD50A98411C0A91B8F1000F1A
:1045100007990F5412DD761E30B2804507980A9B2A
:10452000B8BF464632B221461844FEF733F80A991E
:1045300036B271180A91A8EB06000D9007980A99F7
:1045400008442AB2002A80F800B003D42B2242701B
:10455000811C04E02D2141701546811C6D42002014
:104560002EAA0A2409E02B4693FBF4F505EB8506F9
:10457000A3EB460302F8013B401C2DB2002DF2DCF8
:10458000012806DC4BF02002652A04BF302201F826
:10459000012B00282EAA08D1302001F8010B06E0DB
:1045A000401E135C303301F8013B0028F8DC079A09
:1045B0000A981044091A0B9143E0084431B22AB218
:1045C000914219DA32B22146FDF7E4FF0A9936B278
:1045D0007118ABEB0606B8F1000F0A910D9603DCDB
:1045E0009DF84800020704D5079847540B99491CC9
:1045F0000B91CDF8388024E02146FDF7CBFF0A98D7
:10460000761B5844B8F1000F0A9003DC9DF848105F
:104610000A0703D5411C0A9107990F5430B280450F
:1046200007980A9BB8BF464632B204EB0B01184408
:10463000FDF7B0FF0A9836B230180A90A8EB0600D2
:104640000D909DF8480000F0140010287FF4AFABE7
:10465000099A0A990D988A180B9982180E988A1847
:10466000821811988242BFF6A2AB821A17E49DF815
:104670004A00622808D068280ED06A2814D06C2816
:104680001FD0712810D01CE0D9F8001051F8040B8D
:10469000C9F80010C0B21AE0D9F8001051F8040BA4
:1046A000C9F8001080B212E0D9F80020D21D22F023
:1046B0000702C9F80020D2E900010832C9F8002039
:1046C00006E0D9F8001051F8040BC9F800100021D9
:1046D000CDE904019DF8480001075AD5DDE904231E
:1046E000002B08BF002A54D04BF02000782850D16E
:1046F00009981FA930220A54401C431C099301F851
:1047000000B046E09DF84A00622808D068280ED024
:104710006A2814D06C281FD0712810D01CE0D9F85A
:10472000001051F8040BC9F8001040B21AE0D9F893
:10473000001051F8040BC9F8001000B212E0D9F8CB
:104740000020D21D22F00702C9F80020D2E90001A2
:104750000832C9F8002006E0D9F8001051F8040B1F
:10476000C9F80010C117CDE90401002902D5099844
:104770002D210AE0BDF84800810702D509982B21B8
:1047800003E0C00705D5099820211FAA1154401C39
:1047900009901FA809990144079104A8594600F0FF
:1047A00056F9FFF704BB9DF84A006C280BD0012195
:1047B0000991D9F8000050F8041BC9F800008DF8E1
:1047C0007C10FFF7F4BAD9F8000050F8041BC9F8C0
:1047D000000015914FF0FF3210920021169115AA9A
:1047E000FFF709BB25210122BBF1000F8DF87C10DA
:1047F00009923FF4DCAA8DF87DB00221FFF7AABA36
:10480000CBCCCC0C686A6C747A4C00007072696E08
:1048100074665F733A2062616420256C7320617254
:1048200067756D656E7400007072696E74665F7393
:104830003A2062616420257320617267756D656E30
:104840007400000000000000000000007072696E3B
:1048500074665F733A20256E20646973616C6C6FB7
:10486000776564007072696E74663A2062616420D4
:10487000256E20617267756D656E740033B0BDE89A
:10488000F08F2DE9FC410F46064690467A6B786919
:10489000396ABC6A121AB869521A796A121AF86926
:1048A000521A121A97F83800141B41070FD420200F
:1048B000002C8DF800000ADD254601236A463946A2
:1048C000304600F07DF900285DD16D1EF5D17B6981
:1048D00042463946304600F073F9002853D1302063
:1048E0008DF800003D6A002D09DD01236A46394636
:1048F000304600F065F9002845D16D1EF5D1BB6941
:10490000FA683946304600F05BF900283BD1302088
:104910008DF800007D6A002D08DD01236A463946C6
:10492000304600F04DF970BB6D1EF6D1F868B969DC
:10493000FB6942183946304600F042F918BB302076
:104940008DF80000BD6A002D08DD01236A46394656
:10495000304600F035F9B0B96D1EF6D197F8380041
:1049600041070DD52020002C8DF8000008DD012323
:104970006A463946304600F023F920B9641EF6D164
:104980000020BDE8F6814FF0FF30BDE8F6812DE94B
:10499000F8470D46A3B02F6B002F8246904648BFC4
:1049A0006FF0004700F083FD696B401801AA0021F9
:1049B000C2E90011812828BF4FF0FF3044D2894658
:1049C0001EE0A74230DB6869201881280BD3002144
:1049D000696303AA29465046FFF753FF5FEA0009BF
:1049E00022D40020686103AB6E692246694698199B
:1049F000FDF7D0FDA6196E6158F8040BA0B13F1B5E
:104A0000002F11DDD8F8001001AA684600F030F937
:104A10000446002C05D4D8F800000028D1D1641E2B
:104A2000CFD54FF0FF390EE0B9F1000F504604D159
:104A300003AA2946FFF725FF8146B9F1000F02D1ED
:104A4000002068616863484624B0BDE8F0872DE91E
:104A5000FC4307466F293E6908BF082405D041F092
:104A60002000782814BF0A2410243C25D7E900230D
:104A7000642918BF69299046994605D1002B03D5B2
:104A8000D8F1000869EB4909B9F1000F08BFB8F186
:104A9000000F0CD1386B50B9082C39D197F8380079
:104AA000010735D530203B2586F83B0030E08DF8F6
:104AB0000010404649462246E31700F0FDFC303224
:104AC000D0B26D1E3A28019504DB9DF80000A0F1DC
:104AD00051018A187255404649462246E31700F0B4
:104AE000EBFC80465FEA010908BFB8F1000F03D074
:104AF000F86871198842DCD3082C09D197F838007E
:104B0000010705D5705D302802D06D1E302070552C
:104B1000C5F13C02BA617119F960386B824208DA5A
:104B2000821A3A624FF6EF70398F01403987BDE83B
:104B3000F38300280ED597F8380000F014001028F1
:104B400008D17B6B7969386A5B1A1B1A9A1A002A9A
:104B5000C8BF3A62BDE8F3832DE9D04306460F464D
:104B600014464FF00008DFF8549012E0E00707D534
:104B700042464B463046394600F0C8FB06460F46D3
:104B80004046494642464B4600F0C0FB6410804612
:104B90008946002CEAD130463946BDE8D083000072
:104BA00002FCFFFFFFFF0F800000E03F0000F07FEE
:104BB000A08601000000F03F84D797410000244008
:104BC000F8B505460E4617461C4600205CB117F89E
:104BD000011BB068A847B06030B1F06A401CF062B9
:104BE0000020641EF3D1F2BD4FF0FF30F2BD000093
:104BF0006E616E004E414E00696E6600494E460081
:104C0000300043001C48704770B45368D41801E06A
:104C10005B1C491E042B08DA00291FBF057804F825
:104C2000015B10F8016B002EF2D1536070BC70472D
:104C300038B514461D4661B1FFF7E6FF61686A6B3F
:104C4000204690476FF00102811A02D0491E01D020
:104C500001E003E005E00021616032BD6FF001007A
:104C600032BD4FF0FF3032BDDA6B1047024BDFE749
:104C7000014BF9E701487047580000202000002050
:104C8000C9B202788A421AB11CBF10F8012FF9E7A5
:104C900018BF00207047000080B500B906A0054984
:104CA0000B681BB122220021984701E0FEF722FF8A
:104CB000222002BD2C330020636F6E737472616911
:104CC0006E742068616E646C65723A206261642063
:104CD0006D65737361676500C9B2830706D0521EA4
:104CE00022D310F8013B9942F7D11FE0083A13D3C1
:104CF00002F1040241EA012141EA014150F8043B7A
:104D0000121F21BF4B40A3F1013C2CEA030C1CF005
:104D1000803FF3D0C9B2001F083210F8013B521E89
:104D200028BF91EA030FF8D818BF0120401E704732
:104D300010B5144600F002F8226010BDC1F30A530A
:104D400043B14A0012F5001F28D2A3F2FE32A1EBB4
:104D50000251704750EA410C20D001F0004C31EA7A
:104D60000C01B1FA81F204BFB0FA80F3D2180B3A09
:104D7000B2F120032CBF00FA03F1914041EA0C018B
:104D80003EBFC2F1200C20FA0CF31943904052426E
:104D900040F2FD33D21A01EB0351704700227047F5
:104DA0004FF4001C1CEB410F94BF1CEB430F09E0B8
:104DB00041EA030C50EA4C0C52EA0C0C03D2994223
:104DC00008BF9042704714BF8B4282427047000078
:104DD0004FF4001C1CEB410F94BF1CEB430F09E088
:104DE00041EA030C50EA4C0C52EA0C0C03D28B4201
:104DF00008BF8242704714BF99429042704700003A
:104E0000124254D440F2FF7C1CEA11530FD0634588
:104E100031D09B1863453CBF01EB0251704701F054
:104E2000004141EA0C510020AFF30080704750EA86
:104E3000410320D001F0004C91EA0C011CD0B1FAE2
:104E400081F30B3B9A420DD9D21A994051EA0C01D9
:104E5000C3F1200C20FA0CFC61449840531C40F232
:104E6000FF7CD7E7914041EA0C01C2F1200C20FA07
:104E70000CF3194390407047B0FA80F31533202BA0
:104E8000E0D3202AEED3203A203B9A4209D9D21A05
:104E900000FA03F141EA0C010020531C40F2FF7CB0
:104EA000B8E700FA02F141EA0C01002070475242D3
:104EB00040F2FF7C1CEA11530DD06345DBD0B2EB0E
:104EC000030C3CBFA1EB025170470CF1010221EA37
:104ED000035141F4801150EA410CCCD001F0004C58
:104EE000352A27DC30B481EA0C01B2F1200309DA5B
:104EF000C2F12003044601FA03F5D0402843D14013
:104F00009C400CE0C3F12002450020FA03F418BFD6
:104F100044F0010421FA03F091400C43002174F1A4
:104F2000004550F1000051EB0C01244230BC7FF4ED
:104F30007BAF70476146002076E70000C1F30A535B
:104F400040F2FE329B1A14DDD3F120034FEAE172E6
:104F500008DDC90241EA505141F00040D8408018B4
:104F60005040704703F2E13010B1D24382F000406C
:104F70007047002070470000C11768B14840401AD0
:104F8000B0FA80F29040D21CC907C2F5846241EAAF
:104F9000025202EBD02140057047000070B44FF080
:104FA000004591EA030F40F19F836B40841A71EB37
:104FB000030603D2001BB141121973414FF4001CC8
:104FC0001CEB410F34BF7CEB430442E00C0DA4EB1F
:104FD0001356352E4FDC45EAC323DB0A45EAC121CF
:104FE000C912B6F120050DDD63FA05F6EB4086EA3D
:104FF0000305124218BF45F00105C01851F1000128
:105000000CD213E062FA06F5F2405540F3415A40E3
:10501000B340F3405A408018594107D349085FEA2A
:1050200030005FEA350528BF45F0010501F5801124
:10503000420875F1004250F1000041EB04514E006E
:1050400016F5001F70BC38BF70470020090D090518
:1050500070471CEB410F10D252EA43060BD0BCEB59
:10506000410F05D80C0DAB43661E342EB6DD02E0B1
:10507000AB438018594170BC704770BC704700004A
:10508000F0B540F2FF7581EA030C0CF0004C15EA14
:1050900011541DBF15EA1357AC42AF42E5E0BC41C5
:1050A000C1F31301C3F31303801A994143F480132E
:1050B00004D2641E4000494180185941C90241EAA6
:1050C0005051B1FBF3F603FB1611A2FB0675D7EBAB
:1050D000C020A94102D2761E80185941C90241EA76
:1050E0005051B1FBF3FE03FB1E11A2FB0E75D7EB73
:1050F000C020A94103D2AEF1010E801859418902A6
:1051000041EA9051760546EA8E2EB1FBF3F603FB99
:105110001611A2FB0675D7EB8020A94102D2761E9C
:1051200080185941C90241EA50514EEA060EB1FBBE
:10513000F3F603FB1611A2FB0675D7EBC020A941BD
:1051400002D2761E80185941C90241EA5051B1FB82
:10515000F3F703FB1711A2FB0735D3EBC020A941DE
:1051600067F100070CBF004247F0010766F3D5273F
:105170004FEA1E31B80814F5806412DDBD0775F1E1
:10518000004250EB0E5051EB045111F5801F5CBFF3
:1051900041EA0C01F0BD4CF07F6141F0E04100209C
:1051A000F0BDBD076D0840EA0E5041F48011D4F106
:1051B0000104B4F120060ADAC4F120060200E0403E
:1051C00001FA06F3E1401843B24015430EE0342CD7
:1051D00013DCC6F1200445EA40056D0820FA06F20A
:1051E000154321FA06F0A1400D43002175F100425C
:1051F00050F1000051EB0C01F0BD00205FEA0C0102
:10520000F0BDCFB992185B41B3FA83F704BFB2FA8D
:1052100082F6BF190B3FB7F120062FBF02FA06F343
:10522000BB40C7F1200622FA06F638BF3343BA4026
:105230001CB1E419641E33E77F4231F00041B1FA3A
:1052400081F404BFB0FA80F6A4190B3CB4F1200637
:105250002FBF00FA06F1A140C4F1200620FA06F69D
:1052600038BF3143A0403C1B1AE7AC421ABF05EAE5
:105270001357AF4212E050EA41061CBF52EA430600
:10528000BFE750EA4107304661461CBF41EA05517D
:10529000F0BD52EA430C08BFC143F0BD00204FF4FB
:1052A000001616EB410F98BF16EB430F08BF16EB25
:1052B000410F24BFC14305E016EB430F0CBF61460D
:1052C0004CEA0551F0BD0000400D491840EA81202C
:1052D0000CD2490DA1F58061491C40F0004005DB6E
:1052E000D1F11F0154BFC840C0177047002070475C
:1052F000014648B1B0FA80F18840C91CC1F584610B
:10530000090501EBD021400570470000B0B581EAE6
:10531000030C0CF0004C40F2FF7515EA11541DBF50
:1053200015EA1357AC42AF4239E0E41923EA45537A
:1053300043F48013C90241F0004141EA505EC702C4
:105340001100A7FB020200284FF00000EEFB012035
:105350004FF00001E3FB072118BF42F001024018A3
:1053600000214941E3FB0E01A4F580640F0302D242
:1053700052004041494154F101046CDD470872F18B
:10538000004250F1000051EB0451A1F580115CBFC7
:1053900041EA0C01B0BD4CEA05510020B0BD05EA60
:1053A0001357AC4214BFAF4241E050EA410E1CBF5C
:1053B00052EA430E02E061460020B0BD24423C4464
:1053C0001BD15FEA070EF6D0090302BF0146002099
:1053D000AEF1140EB1FA81F7AEEB070401FA07FE45
:1053E0000C37C7F1200100FA07F7C8404EEA000E5B
:1053F00023EA455343F48013A2E733F00043B3FAA2
:1054000083F704BFB2FA82FE77440B3FE41BB7F187
:10541000200E2FBF02FA0EF3BB40C7F1200E22FA76
:105420000EFE38BF43EA0E03BA40641C82E750EA1E
:10543000410E14BF52EA430E6FF000014FF4001703
:1054400017EB430F8ABF194617EB410FB5E74CEA3C
:1054500005510020B0BDD4F10104B4F120070FDAEA
:10546000C4F12007520828BF42F0010210FA07F5E4
:1054700001FA07F7E1BF2A43E0403843E1400FE07B
:10548000352C98DCC7F1200452EA400220FA07F2DA
:1054900018BF42F0010231FA07F0A1400A4300218F
:1054A00072F1004250F1000051EB0C01B0BD80B52B
:1054B000FFF7A8FB006C02BDBBBBE1B1B2F5803FBA
:1054C00080F07E80022A1ED98C46B1FBF2F102FBED
:1054D00011C31B0443EA1043B3FBF2FC02FB1C3371
:1054E00080B240EA0343B3FBF2F002FB103240EA21
:1054F0000C4000237047022A05D98446B0FBF2F025
:1055000002FB10C270474AB105D100F00102490800
:105510005FEA3000704700220023704700F09AB91C
:105520000B000200002100207047904271EB030C39
:10553000F6D3B3F5803F2FD2F0B5B3FA83F7B1FAC3
:1055400081F4A7F10F0E3D1B5340CEF1200602FA65
:105550000EF2F3415340B5F10F0746D80F3C2C44EF
:105560004140C4F12006A040F1414140B1FBF3F6B7
:1055700003FB1611A2FB0645001BA94102D2761EB1
:105580008018594180EA010221FA0EF362FA0EF204
:1055900000215A403046F0BD30B4B1FBF3FC03FBB0
:1055A0001C11A2FB0C45001BA94103D2ACF1010C5C
:1055B0008018594130BC02460B46604600217047B6
:1055C000B2F1807F65D3F0B5B2FA82F7B1FA81F417
:1055D000C7F10F063D1B22FA06F307F1110EF24147
:1055E00020355A40B5F10F07B8D94140C4F1200623
:1055F000A040F1414140B1FBF3FC03FB1C11A2FBB5
:105600000C45001BA94103D2BCF1010C8018594183
:105610000F2F12D30F3FC90341EA5041B1FBF3F6FC
:1056200003FB1611A2FB0645D4EBC030A94102D200
:10563000761E8018594146EACC3C07B34140C7F179
:105640002006B840F1414140B1FBF3F603FB1611CF
:10565000A2FB0645001BA94102D2761E80185941C3
:1056600080EA010221FA0EF3C7F1200462FA0EF279
:105670000CFA07F05A402CFA04F13043F0BD80EAEE
:10568000010221FA0EF3002162FA0EF260465A403E
:10569000F0BD8C46B1FBF2F102FB11C31B0243EAE1
:1056A0001063B3FBF2FC02FB1C331B024CEA00202C
:1056B00043EA1063B3FBF2FC02FB1C331B024CEA0F
:1056C000002043EA1063B3FBF2FC02FB1C331B0215
:1056D0004CEA002043EA1063B3FBF2FC02FB1C32ED
:1056E0004CEA002000237047841A71EB030604D2B1
:1056F0006E40001BB141121973414FF4001C1CEBAA
:10570000410F34BF7CEB430683E00C0DA4EB135632
:10571000362E00F37C80012E45EAC32341DC43EAA8
:10572000525312BFD20292025B08240545EAC121FE
:1057300041EA5051D2EBC020994125D407D1B0FAAB
:1057400080F610FA06F162D00020203608E0B1FAA7
:1057500081F6B140C6F1200220FA02F21143B040B6
:105760004FEAF474B4EB465434F001064FEA740483
:105770000AD8D6F50016760D04F00044F04061FA20
:1057800006F25040F1404840C00A40EA415021F042
:10579000004128BF5FEA500550F1000044EBD121E1
:1057A00035E0DB0A45EAC121C90AB6F120050EDD64
:1057B00042EA0242120CC5F1200603FA06F6EB405B
:1057C00042EA06056D42984161F100010DE062FA7E
:1057D00006F5F240554063FA06FC82EA0C02F340FB
:1057E0005A406D42904161EB030111F4801F05D1D5
:1057F000641E620502D06D004041494121F48011D0
:10580000430875F1004350F1000041EB045170BCB6
:1058100070471CEB410F15D223F0004352EA4306B8
:105820000BD04FEA4C0CBCEB410F04D80C0D661E9C
:10583000342EB7DDEBE7801A994150EA410608BFE4
:105840000021E4E708BF1CEB430F28BF6FF0000105
:10585000DDE7000070470000DFF8E412086850F050
:1058600001000860DFF8DC221368DFF8DC02034087
:1058700013600B68DFF8D40203400B60086830F453
:1058800080200860106830F4FE0010605FF41F0094
:10589000DFF8BC1208607047DFF8A4120A6832F41F
:1058A00080320A600A6832F480220A600200B2F58F
:1058B000803F03D0B2F5802F05D009E00A6852F48A
:1058C00080320A6004E00A6852F4A0220A60FFE70E
:1058D000704738B50020009000240025312000F0EA
:1058E0000BF905000098401C009000984FF6FF71DE
:1058F000884203D02800C0B20028EFD0312000F049
:10590000FBF8002801D0012000E00020C0B232BD29
:1059100030B400238B4D2C6834F47C1451EA00021F
:1059200014432C6030BC70470100C9B2894A116031
:1059300070470021834B1A689208920002431A6054
:1059400070478048006810F00C00704700217D4BC4
:105950001A6832F0F00202431A6070470021794B56
:105960001A6832F4E06202431A6070470021754BF6
:105970001A6832F4605252EAC0021A6070477649DF
:105980000860704700216F4B1A6832F440420243AE
:105990001A6070472DE9F04F010000220025002019
:1059A0000026684FD7F800C01CF00C0C6346002B93
:1059B00004D0042B05D0082B06D023E0684A0A60E7
:1059C00022E0684A0A601FE03A6812F470123B68ED
:1059D00013F480331800920C921C1500002804D197
:1059E000614A02FB05F20A600BE03A68920304D5B3
:1059F0005E4A02FB05F20A6003E05A4A02FB05F226
:105A00000A6001E0564A0A603C6814F0F004240978
:105A1000DFF85C9119F804E00A6832FA0EF24A6085
:105A20003B6813F4E0631B0A19F803804A6832FAF2
:105A300008F28A603A6812F46052D20A19F80290A9
:105A4000D1F804A03AFA09FAC1F80CA03F6817F49B
:105A50004047BF0BDFF81CA11AF807A0D1F80CB023
:105A6000BBFBFAFBC1F810B0BDE8F08F0A00D2B260
:105A7000002A04D0404A13680343136003E03E4AFF
:105A800013688343136070470A00D2B2002A04D01F
:105A90003A4A13680343136003E0384A13688343A8
:105AA000136070470A00D2B2002A04D0344A136847
:105AB0000343136003E0324A136883431360704763
:105AC0000A00D2B2002A04D02E4A1368034313609E
:105AD00003E02C4A13688343136070470A00D2B274
